{"contracts/upgradeInitializers/DynamicDiamondInit.sol":{"DiamondInit":{"abi":[{"inputs":[{"internalType":"bytes","name":"initParams","type":"bytes"}],"name":"init","outputs":[],"stateMutability":"nonpayable","type":"function"}],"devdoc":{"kind":"dev","methods":{},"version":1},"evm":{"bytecode":{"linkReferences":{},"object":"608060405234801561001057600080fd5b50610130806100206000396000f3fe6080604052348015600f57600080fd5b506004361060285760003560e01c80634ddf47d414602d575b600080fd5b603b60383660046053565b50565b005b634e487b7160e01b600052604160045260246000fd5b600060208284031215606457600080fd5b813567ffffffffffffffff80821115607b57600080fd5b818401915084601f830112608e57600080fd5b813581811115609d57609d603d565b604051601f8201601f19908116603f0116810190838211818310171560c25760c2603d565b8160405282815287602084870101111560da57600080fd5b82602086016020830137600092810160200192909252509594505050505056fea2646970667358221220959b10802d31e7ee83496253838ab5653770359cb8527ab667fc025b5b269ef664736f6c63430008140033","opcodes":"PUSH1 0x80 PUSH1 0x40 MSTORE CALLVALUE DUP1 ISZERO PUSH2 0x10 JUMPI PUSH1 0x0 DUP1 REVERT JUMPDEST POP PUSH2 0x130 DUP1 PUSH2 0x20 PUSH1 0x0 CODECOPY PUSH1 0x0 RETURN INVALID PUSH1 0x80 PUSH1 0x40 MSTORE CALLVALUE DUP1 ISZERO PUSH1 0xF JUMPI PUSH1 0x0 DUP1 REVERT JUMPDEST POP PUSH1 0x4 CALLDATASIZE LT PUSH1 0x28 JUMPI PUSH1 0x0 CALLDATALOAD PUSH1 0xE0 SHR DUP1 PUSH4 0x4DDF47D4 EQ PUSH1 0x2D JUMPI JUMPDEST PUSH1 0x0 DUP1 REVERT JUMPDEST PUSH1 0x3B PUSH1 0x38 CALLDATASIZE PUSH1 0x4 PUSH1 0x53 JUMP JUMPDEST POP JUMP JUMPDEST STOP JUMPDEST PUSH4 0x4E487B71 PUSH1 0xE0 SHL PUSH1 0x0 MSTORE PUSH1 0x41 PUSH1 0x4 MSTORE PUSH1 0x24 PUSH1 0x0 REVERT JUMPDEST PUSH1 0x0 PUSH1 0x20 DUP3 DUP5 SUB SLT ISZERO PUSH1 0x64 JUMPI PUSH1 0x0 DUP1 REVERT JUMPDEST DUP2 CALLDATALOAD PUSH8 0xFFFFFFFFFFFFFFFF DUP1 DUP3 GT ISZERO PUSH1 0x7B JUMPI PUSH1 0x0 DUP1 REVERT JUMPDEST DUP2 DUP5 ADD SWAP2 POP DUP5 PUSH1 0x1F DUP4 ADD SLT PUSH1 0x8E JUMPI PUSH1 0x0 DUP1 REVERT JUMPDEST DUP2 CALLDATALOAD DUP2 DUP2 GT ISZERO PUSH1 0x9D JUMPI PUSH1 0x9D PUSH1 0x3D JUMP JUMPDEST PUSH1 0x40 MLOAD PUSH1 0x1F DUP3 ADD PUSH1 0x1F NOT SWAP1 DUP2 AND PUSH1 0x3F ADD AND DUP2 ADD SWAP1 DUP4 DUP3 GT DUP2 DUP4 LT OR ISZERO PUSH1 0xC2 JUMPI PUSH1 0xC2 PUSH1 0x3D JUMP JUMPDEST DUP2 PUSH1 0x40 MSTORE DUP3 DUP2 MSTORE DUP8 PUSH1 0x20 DUP5 DUP8 ADD ADD GT ISZERO PUSH1 0xDA JUMPI PUSH1 0x0 DUP1 REVERT JUMPDEST DUP3 PUSH1 0x20 DUP7 ADD PUSH1 0x20 DUP4 ADD CALLDATACOPY PUSH1 0x0 SWAP3 DUP2 ADD PUSH1 0x20 ADD SWAP3 SWAP1 SWAP3 MSTORE POP SWAP6 SWAP5 POP POP POP POP POP JUMP INVALID LOG2 PUSH5 0x6970667358 0x22 SLT KECCAK256 SWAP6 SWAP12 LT DUP1 0x2D BALANCE 0xE7 0xEE DUP4 0x49 PUSH3 0x53838A 0xB5 PUSH6 0x3770359CB852 PUSH27 0xB667FC025B5B269EF664736F6C6343000814003300000000000000 "},"gasEstimates":{"creation":{"codeDepositCost":"60800","executionCost":"111","totalCost":"60911"},"external":{"init(bytes)":"infinite"}},"methodIdentifiers":{"init(bytes)":"4ddf47d4"}},"storageLayout":{"storage":[],"types":null},"userdoc":{"kind":"user","methods":{},"version":1}}}}