{"contracts/facets/DiamondCutFacet.sol":{"DiamondCutFacet":{"abi":[{"anonymous":false,"inputs":[{"components":[{"internalType":"address","name":"facetAddress","type":"address"},{"internalType":"enum IDiamondCut.FacetCutAction","name":"action","type":"uint8"},{"internalType":"bytes4[]","name":"functionSelectors","type":"bytes4[]"}],"indexed":false,"internalType":"struct IDiamondCut.FacetCut[]","name":"_diamondCut","type":"tuple[]"},{"indexed":false,"internalType":"address","name":"_init","type":"address"},{"indexed":false,"internalType":"bytes","name":"_calldata","type":"bytes"}],"name":"DiamondCut","type":"event"},{"anonymous":false,"inputs":[{"components":[{"internalType":"address","name":"facetAddress","type":"address"},{"internalType":"enum IDiamondCut.FacetCutAction","name":"action","type":"uint8"},{"internalType":"bytes4[]","name":"functionSelectors","type":"bytes4[]"}],"indexed":false,"internalType":"struct IDiamondCut.FacetCut[]","name":"_diamondCut","type":"tuple[]"},{"indexed":false,"internalType":"address","name":"_init","type":"address"},{"indexed":false,"internalType":"bytes","name":"_calldata","type":"bytes"}],"name":"DiamondCut","type":"event"},{"anonymous":false,"inputs":[{"indexed":true,"internalType":"address","name":"canceller","type":"address"}],"name":"DiamondCutCancelled","type":"event"},{"anonymous":false,"inputs":[{"indexed":true,"internalType":"address","name":"canceller","type":"address"}],"name":"DiamondCutCancelled","type":"event"},{"anonymous":false,"inputs":[{"indexed":true,"internalType":"address","name":"proposer","type":"address"},{"indexed":true,"internalType":"uint256","name":"proposalTime","type":"uint256"},{"indexed":false,"internalType":"uint256","name":"executionTime","type":"uint256"}],"name":"DiamondCutProposed","type":"event"},{"anonymous":false,"inputs":[{"indexed":true,"internalType":"address","name":"proposer","type":"address"},{"indexed":true,"internalType":"uint256","name":"proposalTime","type":"uint256"},{"indexed":false,"internalType":"uint256","name":"executionTime","type":"uint256"}],"name":"DiamondCutProposed","type":"event"},{"inputs":[],"name":"cancelDiamondCut","outputs":[],"stateMutability":"nonpayable","type":"function"},{"inputs":[{"components":[{"internalType":"address","name":"facetAddress","type":"address"},{"internalType":"enum IDiamondCut.FacetCutAction","name":"action","type":"uint8"},{"internalType":"bytes4[]","name":"functionSelectors","type":"bytes4[]"}],"internalType":"struct IDiamondCut.FacetCut[]","name":"","type":"tuple[]"},{"internalType":"address","name":"","type":"address"},{"internalType":"bytes","name":"","type":"bytes"}],"name":"diamondCut","outputs":[],"stateMutability":"pure","type":"function"},{"inputs":[],"name":"executeDiamondCut","outputs":[],"stateMutability":"nonpayable","type":"function"},{"inputs":[{"components":[{"internalType":"address","name":"facetAddress","type":"address"},{"internalType":"enum IDiamondCut.FacetCutAction","name":"action","type":"uint8"},{"internalType":"bytes4[]","name":"functionSelectors","type":"bytes4[]"}],"internalType":"struct IDiamondCut.FacetCut[]","name":"_diamondCut","type":"tuple[]"},{"internalType":"address","name":"_init","type":"address"},{"internalType":"bytes","name":"_calldata","type":"bytes"}],"name":"proposeDiamondCut","outputs":[],"stateMutability":"nonpayable","type":"function"}],"devdoc":{"details":"Implementation of the diamond cut functionality with a timelock mechanism.      The diamond cut operation allows adding, replacing, or removing facets and functions      from the diamond proxy contract. This implementation adds a security timelock      that requires a two-step process (propose and execute) for diamond cuts,      enhancing security by allowing time for review before execution.      Based on the EIP-2535 Diamond Standard.","kind":"dev","methods":{"cancelDiamondCut()":{"custom:security":"Only callable by the contract owner","details":"Allows the contract owner to cancel a pending diamond cut proposal      before it is executed. This is useful if errors are found in the      proposed changes during the timelock period or if the changes      are no longer desired. Once cancelled, the proposal is completely      removed and a new proposal would need to be submitted if needed."},"diamondCut((address,uint8,bytes4[])[],address,bytes)":{"custom:security":"Always reverts with an error message directing to the new functions","details":"THIS FUNCTION IS DEPRECATED and will always revert when called.      It has been replaced by the more secure two-step process using      proposeDiamondCut() followed by executeDiamondCut(), which adds a timelock      security feature. This function remains to maintain compatibility with      the IDiamondCut interface but cannot be used."},"executeDiamondCut()":{"custom:security":"Reverts if no diamond cut is proposed, if the timelock period                  hasn't expired, or if the initialization call fails","details":"Second and final step in the two-step diamond modification process.      This executes the changes that were previously proposed, but only if      the required timelock period has passed. The timelock period is a      security measure to allow stakeholders time to review proposed changes.      Only the contract owner can execute the diamond cut."},"proposeDiamondCut((address,uint8,bytes4[])[],address,bytes)":{"details":"First step in the two-step process for modifying the diamond. This queues up      changes that can only be executed after a predefined timelock period.      Only the contract owner can propose changes.","params":{"_calldata":"A function call, including function selector and arguments, for initialization","_diamondCut":"Contains the facet addresses and function selectors to add, replace, or remove","_init":"The address of the contract or facet to execute initialization code"}}},"title":"DiamondCutFacet","version":1},"evm":{"bytecode":{"linkReferences":{},"object":"608060405234801561001057600080fd5b50612120806100206000396000f3fe608060405234801561001057600080fd5b506004361061004c5760003560e01c80631f931c1c146100515780636fb0599814610066578063bbf2358e1461006e578063f37a5da014610081575b600080fd5b61006461005f366004611986565b610089565b005b61006461010f565b61006461007c366004611986565b610121565b61006461017a565b60405162461bcd60e51b815260206004820152604a60248201527f46756e6374696f6e20646570726563617465643a205573652070726f706f736560448201527f4469616d6f6e644375742829202b20657865637574654469616d6f6e644375746064820152690a0a481a5b9cdd19585960b21b608482015260a4015b60405180910390fd5b61011761018a565b61011f6101ff565b565b61012961018a565b6101736101368587611acc565b8484848080601f0160208091040260200160405190810160405280939291908181526020018383808284376000920191909152506102c292505050565b5050505050565b61018261018a565b61011f61084b565b60008051602061207f833981519152600401546001600160a01b0316331461011f5760405162461bcd60e51b815260206004820152602260248201527f4c69624469616d6f6e643a204d75737420626520636f6e7472616374206f776e60448201526132b960f11b6064820152608401610106565b7fc8fcad8db84d3cc18b4c41d551ea0ee66dd599cde068d998e57d5e09332c13265460008051602061207f8339815191529060ff166102505760405162461bcd60e51b815260040161010690611c10565b6006810160006102608282611857565b6001820180546001600160a01b031916905561028060028301600061187b565b506000600382018190556004909101805460ff1916905560405133917fde8f30fefd36ba49bcf89e333c7bafb2b3b3bad08938db1630376b2a66b15f6c91a250565b7fc8fcad8db84d3cc18b4c41d551ea0ee66dd599cde068d998e57d5e09332c13265460008051602061207f8339815191529060ff16156103505760405162461bcd60e51b8152602060048201526024808201527f4c69624469616d6f6e643a205570677261646520616c72656164792070726f706044820152631bdcd95960e21b6064820152608401610106565b60008160050154116103b05760405162461bcd60e51b8152602060048201526024808201527f4c69624469616d6f6e643a2054696d656c6f636b206e6f7420696e697469616c6044820152631a5e995960e21b6064820152608401610106565b6000845167ffffffffffffffff8111156103cc576103cc611a38565b60405190808252806020026020018201604052801561041957816020015b604080516060808201835260008083526020830152918101919091528152602001906001900390816103ea5790505b50905060005b85518110156105985785818151811061043a5761043a611c56565b602002602001015182828151811061045457610454611c56565b6020026020010181905250600086828151811061047357610473611c56565b6020026020010151604001515167ffffffffffffffff81111561049857610498611a38565b6040519080825280602002602001820160405280156104c1578160200160208202803683370190505b50905060005b8783815181106104d9576104d9611c56565b60200260200101516040015151811015610561578783815181106104ff576104ff611c56565b602002602001015160400151818151811061051c5761051c611c56565b602002602001015182828151811061053657610536611c56565b6001600160e01b0319909216602092830291909101909101528061055981611c82565b9150506104c7565b508083838151811061057557610575611c56565b60200260200101516040018190525050808061059090611c82565b91505061041f565b506105a7600683016000611857565b60005b85518110156107bc57600683018054600101815560005285518690829081106105d5576105d5611c56565b6020026020010151600001518360060160000182815481106105f9576105f9611c56565b906000526020600020906002020160000160006101000a8154816001600160a01b0302191690836001600160a01b0316021790555085818151811061064057610640611c56565b60200260200101516020015183600601600001828154811061066457610664611c56565b906000526020600020906002020160000160146101000a81548160ff0219169083600281111561069657610696611c9b565b0217905550600683018054829081106106b1576106b1611c56565b906000526020600020906002020160010160006106ce91906118b5565b60005b8682815181106106e3576106e3611c56565b602002602001015160400151518110156107a9576006840180548390811061070d5761070d611c56565b906000526020600020906002020160010187838151811061073057610730611c56565b602002602001015160400151828151811061074d5761074d611c56565b60209081029190910181015182546001810184556000938452919092206008820401805463ffffffff60079093166004026101000a928302191660e09390931c91909102919091179055806107a181611c82565b9150506106d1565b50806107b481611c82565b9150506105aa565b506007820180546001600160a01b0319166001600160a01b038616179055600882016107e88482611d39565b504260098301819055600a8301805460ff19166001179055600583015433907f11c0a67eabfbe53177aaac87bbbb2f9c5730614d4c5c6a6ec177e86ddfe5c7e0906108339084611df9565b60405190815260200160405180910390a35050505050565b7fc8fcad8db84d3cc18b4c41d551ea0ee66dd599cde068d998e57d5e09332c13265460008051602061207f8339815191529060ff1661089c5760405162461bcd60e51b815260040161010690611c10565b600581015460098201546108b09190611df9565b42101561090f5760405162461bcd60e51b815260206004820152602760248201527f4c69624469616d6f6e643a2054696d656c6f636b20706572696f64206e6f7420604482015266195b185c1cd95960ca1b6064820152608401610106565b610adf81600601600001805480602002602001604051908101604052809291908181526020016000905b82821015610a385760008481526020908190206040805160608101909152600285810290920180546001600160a01b03811683529193909290840191600160a01b900460ff169081111561098f5761098f611c9b565b60028111156109a0576109a0611c9b565b815260200160018201805480602002602001604051908101604052809291908181526020018280548015610a2057602002820191906000526020600020906000905b82829054906101000a900460e01b6001600160e01b031916815260200190600401906020826003010492830192600103820291508084116109e25790505b50505050508152505081526020019060010190610939565b5050505060078301546008840180546001600160a01b0390921691610a5c90611cb1565b80601f0160208091040260200160405190810160405280929190818152602001828054610a8890611cb1565b8015610ad55780601f10610aaa57610100808354040283529160200191610ad5565b820191906000526020600020905b815481529060010190602001808311610ab857829003601f168201915b5050505050610b25565b600681016000610aef8282611857565b6001820180546001600160a01b0319169055610b0f60028301600061187b565b5060006003820155600401805460ff1916905550565b60005b8351811015610ceb576000848281518110610b4557610b45611c56565b602002602001015160200151905060006002811115610b6657610b66611c9b565b816002811115610b7857610b78611c9b565b03610bc657610bc1858381518110610b9257610b92611c56565b602002602001015160000151868481518110610bb057610bb0611c56565b602002602001015160400151610d36565b610cd8565b6001816002811115610bda57610bda611c9b565b03610c2357610bc1858381518110610bf457610bf4611c56565b602002602001015160000151868481518110610c1257610c12611c56565b602002602001015160400151610eae565b6002816002811115610c3757610c37611c9b565b03610c8057610bc1858381518110610c5157610c51611c56565b602002602001015160000151868481518110610c6f57610c6f611c56565b60200260200101516040015161103e565b60405162461bcd60e51b815260206004820152602760248201527f4c69624469616d6f6e644375743a20496e636f727265637420466163657443756044820152663a20b1ba34b7b760c91b6064820152608401610106565b5080610ce381611c82565b915050610b28565b507f8faa70878671ccd212d20771b795c50af8fd3ff6cf27f4bde57e5d4de0aeb673838383604051610d1f93929190611e62565b60405180910390a1610d31828261115c565b505050565b6000815111610d575760405162461bcd60e51b815260040161010690611f62565b60008051602061207f8339815191526001600160a01b038316610d8c5760405162461bcd60e51b815260040161010690611fad565b6001600160a01b0383166000908152600182016020526040812054906001600160601b0382169003610dc257610dc28285611369565b60005b8351811015610173576000848281518110610de257610de2611c56565b6020908102919091018101516001600160e01b031981166000908152918690526040909120549091506001600160a01b03168015610e805760405162461bcd60e51b815260206004820152603560248201527f4c69624469616d6f6e644375743a2043616e2774206164642066756e6374696f6044820152746e207468617420616c72656164792065786973747360581b6064820152608401610106565b610e8c8583868a6113d3565b83610e9681611ff9565b94505050508080610ea690611c82565b915050610dc5565b6000815111610ecf5760405162461bcd60e51b815260040161010690611f62565b60008051602061207f8339815191526001600160a01b038316610f045760405162461bcd60e51b815260040161010690611fad565b6001600160a01b0383166000908152600182016020526040812054906001600160601b0382169003610f3a57610f3a8285611369565b60005b8351811015610173576000848281518110610f5a57610f5a611c56565b6020908102919091018101516001600160e01b031981166000908152918690526040909120549091506001600160a01b0390811690871681036110055760405162461bcd60e51b815260206004820152603860248201527f4c69624469616d6f6e644375743a2043616e2774207265706c6163652066756e60448201527f6374696f6e20776974682073616d652066756e6374696f6e00000000000000006064820152608401610106565b611010858284611473565b61101c8583868a6113d3565b8361102681611ff9565b9450505050808061103690611c82565b915050610f3d565b600081511161105f5760405162461bcd60e51b815260040161010690611f62565b60008051602061207f8339815191526001600160a01b038316156110e45760405162461bcd60e51b815260206004820152603660248201527f4c69624469616d6f6e644375743a2052656d6f76652066616365742061646472604482015275657373206d757374206265206164647265737328302960501b6064820152608401610106565b60005b825181101561115657600083828151811061110457611104611c56565b6020908102919091018101516001600160e01b031981166000908152918590526040909120549091506001600160a01b0316611141848284611473565b5050808061114e90611c82565b9150506110e7565b50505050565b6001600160a01b0382166111e3578051156111df5760405162461bcd60e51b815260206004820152603c60248201527f4c69624469616d6f6e644375743a205f696e697420697320616464726573732860448201527f3029206275745f63616c6c64617461206973206e6f7420656d707479000000006064820152608401610106565b5050565b600081511161125a5760405162461bcd60e51b815260206004820152603d60248201527f4c69624469616d6f6e644375743a205f63616c6c6461746120697320656d707460448201527f7920627574205f696e6974206973206e6f7420616464726573732830290000006064820152608401610106565b6001600160a01b038216301461128c5761128c8260405180606001604052806028815260200161209f60289139611836565b600080836001600160a01b0316836040516112a7919061201f565b600060405180830381855af49150503d80600081146112e2576040519150601f19603f3d011682016040523d82523d6000602084013e6112e7565b606091505b50915091508161115657805115611312578060405162461bcd60e51b8152600401610106919061203b565b60405162461bcd60e51b815260206004820152602660248201527f4c69624469616d6f6e644375743a205f696e69742066756e6374696f6e2072656044820152651d995c9d195960d21b6064820152608401610106565b61138b816040518060600160405280602481526020016120c760249139611836565b6002820180546001600160a01b0390921660008181526001948501602090815260408220860185905594840183559182529290200180546001600160a01b0319169091179055565b6001600160e01b0319831660008181526020868152604080832080546001600160601b03909716600160a01b026001600160a01b0397881617815594909516808352600180890183529583208054968701815583528183206008870401805460e09890981c60046007909816979097026101000a96870263ffffffff9097021990971695909517909555529290915281546001600160a01b031916179055565b6001600160a01b0382166114ef5760405162461bcd60e51b815260206004820152603760248201527f4c69624469616d6f6e644375743a2043616e27742072656d6f76652066756e6360448201527f74696f6e207468617420646f65736e27742065786973740000000000000000006064820152608401610106565b306001600160a01b0383160361155e5760405162461bcd60e51b815260206004820152602e60248201527f4c69624469616d6f6e644375743a2043616e27742072656d6f766520696d6d7560448201526d3a30b1363290333ab731ba34b7b760911b6064820152608401610106565b6001600160e01b03198116600090815260208481526040808320546001600160a01b0386168452600180880190935290832054600160a01b9091046001600160601b031692916115ad91612055565b905080821461169f576001600160a01b038416600090815260018601602052604081208054839081106115e2576115e2611c56565b600091825260208083206008830401546001600160a01b038916845260018a019091526040909220805460079092166004026101000a90920460e01b92508291908590811061163357611633611c56565b600091825260208083206008830401805463ffffffff60079094166004026101000a938402191660e09590951c929092029390931790556001600160e01b03199290921682528690526040902080546001600160a01b0316600160a01b6001600160601b038516021790555b6001600160a01b038416600090815260018601602052604090208054806116c8576116c8612068565b60008281526020808220600860001990940193840401805463ffffffff600460078716026101000a0219169055919092556001600160e01b0319851682528690526040812081905581900361017357600285015460009061172b90600190612055565b6001600160a01b03861660009081526001808901602052604090912001549091508082146117da57600087600201838154811061176a5761176a611c56565b6000918252602090912001546002890180546001600160a01b03909216925082918490811061179b5761179b611c56565b600091825260208083209190910180546001600160a01b0319166001600160a01b03948516179055929091168152600189810190925260409020018190555b866002018054806117ed576117ed612068565b60008281526020808220830160001990810180546001600160a01b03191690559092019092556001600160a01b0388168252600189810190915260408220015550505050505050565b813b81816111565760405162461bcd60e51b8152600401610106919061203b565b508054600082556002029060005260206000209081019061187891906118da565b50565b50805461188790611cb1565b6000825580601f10611897575050565b601f016020900490600052602060002090810190611878919061190c565b508054600082556007016008900490600052602060002090810190611878919061190c565b808211156119085780546001600160a81b031916815560006118ff60018301826118b5565b506002016118da565b5090565b5b80821115611908576000815560010161190d565b80356001600160a01b038116811461193857600080fd5b919050565b60008083601f84011261194f57600080fd5b50813567ffffffffffffffff81111561196757600080fd5b60208301915083602082850101111561197f57600080fd5b9250929050565b60008060008060006060868803121561199e57600080fd5b853567ffffffffffffffff808211156119b657600080fd5b818801915088601f8301126119ca57600080fd5b8135818111156119d957600080fd5b8960208260051b85010111156119ee57600080fd5b60208301975080965050611a0460208901611921565b94506040880135915080821115611a1a57600080fd5b50611a278882890161193d565b969995985093965092949392505050565b634e487b7160e01b600052604160045260246000fd5b6040516060810167ffffffffffffffff81118282101715611a7157611a71611a38565b60405290565b604051601f8201601f1916810167ffffffffffffffff81118282101715611aa057611aa0611a38565b604052919050565b600067ffffffffffffffff821115611ac257611ac2611a38565b5060051b60200190565b6000611adf611ada84611aa8565b611a77565b83815260208082019190600586811b860136811115611afd57600080fd5b865b81811015611c0357803567ffffffffffffffff80821115611b205760008081fd5b818a01915060608236031215611b365760008081fd5b611b3e611a4e565b611b4783611921565b81528683013560038110611b5b5760008081fd5b8188015260408381013583811115611b735760008081fd5b939093019236601f850112611b8a57600092508283fd5b83359250611b9a611ada84611aa8565b83815292871b84018801928881019036851115611bb75760008081fd5b948901945b84861015611bec5785356001600160e01b031981168114611bdd5760008081fd5b82529489019490890190611bbc565b918301919091525088525050948301948301611aff565b5092979650505050505050565b60208082526026908201527f4c69624469616d6f6e643a204e6f20757067726164652070726f706f73616c2060408201526565786973747360d01b606082015260800190565b634e487b7160e01b600052603260045260246000fd5b634e487b7160e01b600052601160045260246000fd5b600060018201611c9457611c94611c6c565b5060010190565b634e487b7160e01b600052602160045260246000fd5b600181811c90821680611cc557607f821691505b602082108103611ce557634e487b7160e01b600052602260045260246000fd5b50919050565b601f821115610d3157600081815260208120601f850160051c81016020861015611d125750805b601f850160051c820191505b81811015611d3157828155600101611d1e565b505050505050565b815167ffffffffffffffff811115611d5357611d53611a38565b611d6781611d618454611cb1565b84611ceb565b602080601f831160018114611d9c5760008415611d845750858301515b600019600386901b1c1916600185901b178555611d31565b600085815260208120601f198616915b82811015611dcb57888601518255948401946001909101908401611dac565b5085821015611de95787850151600019600388901b60f8161c191681555b5050505050600190811b01905550565b80820180821115611e0c57611e0c611c6c565b92915050565b60005b83811015611e2d578181015183820152602001611e15565b50506000910152565b60008151808452611e4e816020860160208601611e12565b601f01601f19169290920160200192915050565b60006060808301818452808751808352608092508286019150828160051b8701016020808b0160005b84811015611f3257898403607f19018652815180516001600160a01b03168552838101518986019060038110611ed157634e487b7160e01b600052602160045260246000fd5b868601526040918201519186018a905281519081905290840190600090898701905b80831015611f1d5783516001600160e01b0319168252928601926001929092019190860190611ef3565b50978501979550505090820190600101611e8b565b50506001600160a01b038a16908801528681036040880152611f548189611e36565b9a9950505050505050505050565b6020808252602b908201527f4c69624469616d6f6e644375743a204e6f2073656c6563746f727320696e206660408201526a1858d95d081d1bc818dd5d60aa1b606082015260800190565b6020808252602c908201527f4c69624469616d6f6e644375743a204164642066616365742063616e2774206260408201526b65206164647265737328302960a01b606082015260800190565b60006001600160601b0380831681810361201557612015611c6c565b6001019392505050565b60008251612031818460208701611e12565b9190910192915050565b60208152600061204e6020830184611e36565b9392505050565b81810381811115611e0c57611e0c611c6c565b634e487b7160e01b600052603160045260246000fdfec8fcad8db84d3cc18b4c41d551ea0ee66dd599cde068d998e57d5e09332c131c4c69624469616d6f6e644375743a205f696e6974206164647265737320686173206e6f20636f64654c69624469616d6f6e644375743a204e657720666163657420686173206e6f20636f6465a264697066735822122092d865d88fec14bb225c1f31fd167b832c06056f0f4779a70e2a9569f0778f5d64736f6c63430008140033","opcodes":"PUSH1 0x80 PUSH1 0x40 MSTORE CALLVALUE DUP1 ISZERO PUSH2 0x10 JUMPI PUSH1 0x0 DUP1 REVERT JUMPDEST POP PUSH2 0x2120 DUP1 PUSH2 0x20 PUSH1 0x0 CODECOPY PUSH1 0x0 RETURN INVALID PUSH1 0x80 PUSH1 0x40 MSTORE CALLVALUE DUP1 ISZERO PUSH2 0x10 JUMPI PUSH1 0x0 DUP1 REVERT JUMPDEST POP PUSH1 0x4 CALLDATASIZE LT PUSH2 0x4C JUMPI PUSH1 0x0 CALLDATALOAD PUSH1 0xE0 SHR DUP1 PUSH4 0x1F931C1C EQ PUSH2 0x51 JUMPI DUP1 PUSH4 0x6FB05998 EQ PUSH2 0x66 JUMPI DUP1 PUSH4 0xBBF2358E EQ PUSH2 0x6E JUMPI DUP1 PUSH4 0xF37A5DA0 EQ PUSH2 0x81 JUMPI JUMPDEST PUSH1 0x0 DUP1 REVERT JUMPDEST PUSH2 0x64 PUSH2 0x5F CALLDATASIZE PUSH1 0x4 PUSH2 0x1986 JUMP JUMPDEST PUSH2 0x89 JUMP JUMPDEST STOP JUMPDEST PUSH2 0x64 PUSH2 0x10F JUMP JUMPDEST PUSH2 0x64 PUSH2 0x7C CALLDATASIZE PUSH1 0x4 PUSH2 0x1986 JUMP JUMPDEST PUSH2 0x121 JUMP JUMPDEST PUSH2 0x64 PUSH2 0x17A JUMP JUMPDEST PUSH1 0x40 MLOAD PUSH3 0x461BCD PUSH1 0xE5 SHL DUP2 MSTORE PUSH1 0x20 PUSH1 0x4 DUP3 ADD MSTORE PUSH1 0x4A PUSH1 0x24 DUP3 ADD MSTORE PUSH32 0x46756E6374696F6E20646570726563617465643A205573652070726F706F7365 PUSH1 0x44 DUP3 ADD MSTORE PUSH32 0x4469616D6F6E644375742829202B20657865637574654469616D6F6E64437574 PUSH1 0x64 DUP3 ADD MSTORE PUSH10 0xA0A481A5B9CDD195859 PUSH1 0xB2 SHL PUSH1 0x84 DUP3 ADD MSTORE PUSH1 0xA4 ADD JUMPDEST PUSH1 0x40 MLOAD DUP1 SWAP2 SUB SWAP1 REVERT JUMPDEST PUSH2 0x117 PUSH2 0x18A JUMP JUMPDEST PUSH2 0x11F PUSH2 0x1FF JUMP JUMPDEST JUMP JUMPDEST PUSH2 0x129 PUSH2 0x18A JUMP JUMPDEST PUSH2 0x173 PUSH2 0x136 DUP6 DUP8 PUSH2 0x1ACC JUMP JUMPDEST DUP5 DUP5 DUP5 DUP1 DUP1 PUSH1 0x1F ADD PUSH1 0x20 DUP1 SWAP2 DIV MUL PUSH1 0x20 ADD PUSH1 0x40 MLOAD SWAP1 DUP2 ADD PUSH1 0x40 MSTORE DUP1 SWAP4 SWAP3 SWAP2 SWAP1 DUP2 DUP2 MSTORE PUSH1 0x20 ADD DUP4 DUP4 DUP1 DUP3 DUP5 CALLDATACOPY PUSH1 0x0 SWAP3 ADD SWAP2 SWAP1 SWAP2 MSTORE POP PUSH2 0x2C2 SWAP3 POP POP POP JUMP JUMPDEST POP POP POP POP POP JUMP JUMPDEST PUSH2 0x182 PUSH2 0x18A JUMP JUMPDEST PUSH2 0x11F PUSH2 0x84B JUMP JUMPDEST PUSH1 0x0 DUP1 MLOAD PUSH1 0x20 PUSH2 0x207F DUP4 CODECOPY DUP2 MLOAD SWAP2 MSTORE PUSH1 0x4 ADD SLOAD PUSH1 0x1 PUSH1 0x1 PUSH1 0xA0 SHL SUB AND CALLER EQ PUSH2 0x11F JUMPI PUSH1 0x40 MLOAD PUSH3 0x461BCD PUSH1 0xE5 SHL DUP2 MSTORE PUSH1 0x20 PUSH1 0x4 DUP3 ADD MSTORE PUSH1 0x22 PUSH1 0x24 DUP3 ADD MSTORE PUSH32 0x4C69624469616D6F6E643A204D75737420626520636F6E7472616374206F776E PUSH1 0x44 DUP3 ADD MSTORE PUSH2 0x32B9 PUSH1 0xF1 SHL PUSH1 0x64 DUP3 ADD MSTORE PUSH1 0x84 ADD PUSH2 0x106 JUMP JUMPDEST PUSH32 0xC8FCAD8DB84D3CC18B4C41D551EA0EE66DD599CDE068D998E57D5E09332C1326 SLOAD PUSH1 0x0 DUP1 MLOAD PUSH1 0x20 PUSH2 0x207F DUP4 CODECOPY DUP2 MLOAD SWAP2 MSTORE SWAP1 PUSH1 0xFF AND PUSH2 0x250 JUMPI PUSH1 0x40 MLOAD PUSH3 0x461BCD PUSH1 0xE5 SHL DUP2 MSTORE PUSH1 0x4 ADD PUSH2 0x106 SWAP1 PUSH2 0x1C10 JUMP JUMPDEST PUSH1 0x6 DUP2 ADD PUSH1 0x0 PUSH2 0x260 DUP3 DUP3 PUSH2 0x1857 JUMP JUMPDEST PUSH1 0x1 DUP3 ADD DUP1 SLOAD PUSH1 0x1 PUSH1 0x1 PUSH1 0xA0 SHL SUB NOT AND SWAP1 SSTORE PUSH2 0x280 PUSH1 0x2 DUP4 ADD PUSH1 0x0 PUSH2 0x187B JUMP JUMPDEST POP PUSH1 0x0 PUSH1 0x3 DUP3 ADD DUP2 SWAP1 SSTORE PUSH1 0x4 SWAP1 SWAP2 ADD DUP1 SLOAD PUSH1 0xFF NOT AND SWAP1 SSTORE PUSH1 0x40 MLOAD CALLER SWAP2 PUSH32 0xDE8F30FEFD36BA49BCF89E333C7BAFB2B3B3BAD08938DB1630376B2A66B15F6C SWAP2 LOG2 POP JUMP JUMPDEST PUSH32 0xC8FCAD8DB84D3CC18B4C41D551EA0EE66DD599CDE068D998E57D5E09332C1326 SLOAD PUSH1 0x0 DUP1 MLOAD PUSH1 0x20 PUSH2 0x207F DUP4 CODECOPY DUP2 MLOAD SWAP2 MSTORE SWAP1 PUSH1 0xFF AND ISZERO PUSH2 0x350 JUMPI PUSH1 0x40 MLOAD PUSH3 0x461BCD PUSH1 0xE5 SHL DUP2 MSTORE PUSH1 0x20 PUSH1 0x4 DUP3 ADD MSTORE PUSH1 0x24 DUP1 DUP3 ADD MSTORE PUSH32 0x4C69624469616D6F6E643A205570677261646520616C72656164792070726F70 PUSH1 0x44 DUP3 ADD MSTORE PUSH4 0x1BDCD959 PUSH1 0xE2 SHL PUSH1 0x64 DUP3 ADD MSTORE PUSH1 0x84 ADD PUSH2 0x106 JUMP JUMPDEST PUSH1 0x0 DUP2 PUSH1 0x5 ADD SLOAD GT PUSH2 0x3B0 JUMPI PUSH1 0x40 MLOAD PUSH3 0x461BCD PUSH1 0xE5 SHL DUP2 MSTORE PUSH1 0x20 PUSH1 0x4 DUP3 ADD MSTORE PUSH1 0x24 DUP1 DUP3 ADD MSTORE PUSH32 0x4C69624469616D6F6E643A2054696D656C6F636B206E6F7420696E697469616C PUSH1 0x44 DUP3 ADD MSTORE PUSH4 0x1A5E9959 PUSH1 0xE2 SHL PUSH1 0x64 DUP3 ADD MSTORE PUSH1 0x84 ADD PUSH2 0x106 JUMP JUMPDEST PUSH1 0x0 DUP5 MLOAD PUSH8 0xFFFFFFFFFFFFFFFF DUP2 GT ISZERO PUSH2 0x3CC JUMPI PUSH2 0x3CC PUSH2 0x1A38 JUMP JUMPDEST PUSH1 0x40 MLOAD SWAP1 DUP1 DUP3 MSTORE DUP1 PUSH1 0x20 MUL PUSH1 0x20 ADD DUP3 ADD PUSH1 0x40 MSTORE DUP1 ISZERO PUSH2 0x419 JUMPI DUP2 PUSH1 0x20 ADD JUMPDEST PUSH1 0x40 DUP1 MLOAD PUSH1 0x60 DUP1 DUP3 ADD DUP4 MSTORE PUSH1 0x0 DUP1 DUP4 MSTORE PUSH1 0x20 DUP4 ADD MSTORE SWAP2 DUP2 ADD SWAP2 SWAP1 SWAP2 MSTORE DUP2 MSTORE PUSH1 0x20 ADD SWAP1 PUSH1 0x1 SWAP1 SUB SWAP1 DUP2 PUSH2 0x3EA JUMPI SWAP1 POP JUMPDEST POP SWAP1 POP PUSH1 0x0 JUMPDEST DUP6 MLOAD DUP2 LT ISZERO PUSH2 0x598 JUMPI DUP6 DUP2 DUP2 MLOAD DUP2 LT PUSH2 0x43A JUMPI PUSH2 0x43A PUSH2 0x1C56 JUMP JUMPDEST PUSH1 0x20 MUL PUSH1 0x20 ADD ADD MLOAD DUP3 DUP3 DUP2 MLOAD DUP2 LT PUSH2 0x454 JUMPI PUSH2 0x454 PUSH2 0x1C56 JUMP JUMPDEST PUSH1 0x20 MUL PUSH1 0x20 ADD ADD DUP2 SWAP1 MSTORE POP PUSH1 0x0 DUP7 DUP3 DUP2 MLOAD DUP2 LT PUSH2 0x473 JUMPI PUSH2 0x473 PUSH2 0x1C56 JUMP JUMPDEST PUSH1 0x20 MUL PUSH1 0x20 ADD ADD MLOAD PUSH1 0x40 ADD MLOAD MLOAD PUSH8 0xFFFFFFFFFFFFFFFF DUP2 GT ISZERO PUSH2 0x498 JUMPI PUSH2 0x498 PUSH2 0x1A38 JUMP JUMPDEST PUSH1 0x40 MLOAD SWAP1 DUP1 DUP3 MSTORE DUP1 PUSH1 0x20 MUL PUSH1 0x20 ADD DUP3 ADD PUSH1 0x40 MSTORE DUP1 ISZERO PUSH2 0x4C1 JUMPI DUP2 PUSH1 0x20 ADD PUSH1 0x20 DUP3 MUL DUP1 CALLDATASIZE DUP4 CALLDATACOPY ADD SWAP1 POP JUMPDEST POP SWAP1 POP PUSH1 0x0 JUMPDEST DUP8 DUP4 DUP2 MLOAD DUP2 LT PUSH2 0x4D9 JUMPI PUSH2 0x4D9 PUSH2 0x1C56 JUMP JUMPDEST PUSH1 0x20 MUL PUSH1 0x20 ADD ADD MLOAD PUSH1 0x40 ADD MLOAD MLOAD DUP2 LT ISZERO PUSH2 0x561 JUMPI DUP8 DUP4 DUP2 MLOAD DUP2 LT PUSH2 0x4FF JUMPI PUSH2 0x4FF PUSH2 0x1C56 JUMP JUMPDEST PUSH1 0x20 MUL PUSH1 0x20 ADD ADD MLOAD PUSH1 0x40 ADD MLOAD DUP2 DUP2 MLOAD DUP2 LT PUSH2 0x51C JUMPI PUSH2 0x51C PUSH2 0x1C56 JUMP JUMPDEST PUSH1 0x20 MUL PUSH1 0x20 ADD ADD MLOAD DUP3 DUP3 DUP2 MLOAD DUP2 LT PUSH2 0x536 JUMPI PUSH2 0x536 PUSH2 0x1C56 JUMP JUMPDEST PUSH1 0x1 PUSH1 0x1 PUSH1 0xE0 SHL SUB NOT SWAP1 SWAP3 AND PUSH1 0x20 SWAP3 DUP4 MUL SWAP2 SWAP1 SWAP2 ADD SWAP1 SWAP2 ADD MSTORE DUP1 PUSH2 0x559 DUP2 PUSH2 0x1C82 JUMP JUMPDEST SWAP2 POP POP PUSH2 0x4C7 JUMP JUMPDEST POP DUP1 DUP4 DUP4 DUP2 MLOAD DUP2 LT PUSH2 0x575 JUMPI PUSH2 0x575 PUSH2 0x1C56 JUMP JUMPDEST PUSH1 0x20 MUL PUSH1 0x20 ADD ADD MLOAD PUSH1 0x40 ADD DUP2 SWAP1 MSTORE POP POP DUP1 DUP1 PUSH2 0x590 SWAP1 PUSH2 0x1C82 JUMP JUMPDEST SWAP2 POP POP PUSH2 0x41F JUMP JUMPDEST POP PUSH2 0x5A7 PUSH1 0x6 DUP4 ADD PUSH1 0x0 PUSH2 0x1857 JUMP JUMPDEST PUSH1 0x0 JUMPDEST DUP6 MLOAD DUP2 LT ISZERO PUSH2 0x7BC JUMPI PUSH1 0x6 DUP4 ADD DUP1 SLOAD PUSH1 0x1 ADD DUP2 SSTORE PUSH1 0x0 MSTORE DUP6 MLOAD DUP7 SWAP1 DUP3 SWAP1 DUP2 LT PUSH2 0x5D5 JUMPI PUSH2 0x5D5 PUSH2 0x1C56 JUMP JUMPDEST PUSH1 0x20 MUL PUSH1 0x20 ADD ADD MLOAD PUSH1 0x0 ADD MLOAD DUP4 PUSH1 0x6 ADD PUSH1 0x0 ADD DUP3 DUP2 SLOAD DUP2 LT PUSH2 0x5F9 JUMPI PUSH2 0x5F9 PUSH2 0x1C56 JUMP JUMPDEST SWAP1 PUSH1 0x0 MSTORE PUSH1 0x20 PUSH1 0x0 KECCAK256 SWAP1 PUSH1 0x2 MUL ADD PUSH1 0x0 ADD PUSH1 0x0 PUSH2 0x100 EXP DUP2 SLOAD DUP2 PUSH1 0x1 PUSH1 0x1 PUSH1 0xA0 SHL SUB MUL NOT AND SWAP1 DUP4 PUSH1 0x1 PUSH1 0x1 PUSH1 0xA0 SHL SUB AND MUL OR SWAP1 SSTORE POP DUP6 DUP2 DUP2 MLOAD DUP2 LT PUSH2 0x640 JUMPI PUSH2 0x640 PUSH2 0x1C56 JUMP JUMPDEST PUSH1 0x20 MUL PUSH1 0x20 ADD ADD MLOAD PUSH1 0x20 ADD MLOAD DUP4 PUSH1 0x6 ADD PUSH1 0x0 ADD DUP3 DUP2 SLOAD DUP2 LT PUSH2 0x664 JUMPI PUSH2 0x664 PUSH2 0x1C56 JUMP JUMPDEST SWAP1 PUSH1 0x0 MSTORE PUSH1 0x20 PUSH1 0x0 KECCAK256 SWAP1 PUSH1 0x2 MUL ADD PUSH1 0x0 ADD PUSH1 0x14 PUSH2 0x100 EXP DUP2 SLOAD DUP2 PUSH1 0xFF MUL NOT AND SWAP1 DUP4 PUSH1 0x2 DUP2 GT ISZERO PUSH2 0x696 JUMPI PUSH2 0x696 PUSH2 0x1C9B JUMP JUMPDEST MUL OR SWAP1 SSTORE POP PUSH1 0x6 DUP4 ADD DUP1 SLOAD DUP3 SWAP1 DUP2 LT PUSH2 0x6B1 JUMPI PUSH2 0x6B1 PUSH2 0x1C56 JUMP JUMPDEST SWAP1 PUSH1 0x0 MSTORE PUSH1 0x20 PUSH1 0x0 KECCAK256 SWAP1 PUSH1 0x2 MUL ADD PUSH1 0x1 ADD PUSH1 0x0 PUSH2 0x6CE SWAP2 SWAP1 PUSH2 0x18B5 JUMP JUMPDEST PUSH1 0x0 JUMPDEST DUP7 DUP3 DUP2 MLOAD DUP2 LT PUSH2 0x6E3 JUMPI PUSH2 0x6E3 PUSH2 0x1C56 JUMP JUMPDEST PUSH1 0x20 MUL PUSH1 0x20 ADD ADD MLOAD PUSH1 0x40 ADD MLOAD MLOAD DUP2 LT ISZERO PUSH2 0x7A9 JUMPI PUSH1 0x6 DUP5 ADD DUP1 SLOAD DUP4 SWAP1 DUP2 LT PUSH2 0x70D JUMPI PUSH2 0x70D PUSH2 0x1C56 JUMP JUMPDEST SWAP1 PUSH1 0x0 MSTORE PUSH1 0x20 PUSH1 0x0 KECCAK256 SWAP1 PUSH1 0x2 MUL ADD PUSH1 0x1 ADD DUP8 DUP4 DUP2 MLOAD DUP2 LT PUSH2 0x730 JUMPI PUSH2 0x730 PUSH2 0x1C56 JUMP JUMPDEST PUSH1 0x20 MUL PUSH1 0x20 ADD ADD MLOAD PUSH1 0x40 ADD MLOAD DUP3 DUP2 MLOAD DUP2 LT PUSH2 0x74D JUMPI PUSH2 0x74D PUSH2 0x1C56 JUMP JUMPDEST PUSH1 0x20 SWAP1 DUP2 MUL SWAP2 SWAP1 SWAP2 ADD DUP2 ADD MLOAD DUP3 SLOAD PUSH1 0x1 DUP2 ADD DUP5 SSTORE PUSH1 0x0 SWAP4 DUP5 MSTORE SWAP2 SWAP1 SWAP3 KECCAK256 PUSH1 0x8 DUP3 DIV ADD DUP1 SLOAD PUSH4 0xFFFFFFFF PUSH1 0x7 SWAP1 SWAP4 AND PUSH1 0x4 MUL PUSH2 0x100 EXP SWAP3 DUP4 MUL NOT AND PUSH1 0xE0 SWAP4 SWAP1 SWAP4 SHR SWAP2 SWAP1 SWAP2 MUL SWAP2 SWAP1 SWAP2 OR SWAP1 SSTORE DUP1 PUSH2 0x7A1 DUP2 PUSH2 0x1C82 JUMP JUMPDEST SWAP2 POP POP PUSH2 0x6D1 JUMP JUMPDEST POP DUP1 PUSH2 0x7B4 DUP2 PUSH2 0x1C82 JUMP JUMPDEST SWAP2 POP POP PUSH2 0x5AA JUMP JUMPDEST POP PUSH1 0x7 DUP3 ADD DUP1 SLOAD PUSH1 0x1 PUSH1 0x1 PUSH1 0xA0 SHL SUB NOT AND PUSH1 0x1 PUSH1 0x1 PUSH1 0xA0 SHL SUB DUP7 AND OR SWAP1 SSTORE PUSH1 0x8 DUP3 ADD PUSH2 0x7E8 DUP5 DUP3 PUSH2 0x1D39 JUMP JUMPDEST POP TIMESTAMP PUSH1 0x9 DUP4 ADD DUP2 SWAP1 SSTORE PUSH1 0xA DUP4 ADD DUP1 SLOAD PUSH1 0xFF NOT AND PUSH1 0x1 OR SWAP1 SSTORE PUSH1 0x5 DUP4 ADD SLOAD CALLER SWAP1 PUSH32 0x11C0A67EABFBE53177AAAC87BBBB2F9C5730614D4C5C6A6EC177E86DDFE5C7E0 SWAP1 PUSH2 0x833 SWAP1 DUP5 PUSH2 0x1DF9 JUMP JUMPDEST PUSH1 0x40 MLOAD SWAP1 DUP2 MSTORE PUSH1 0x20 ADD PUSH1 0x40 MLOAD DUP1 SWAP2 SUB SWAP1 LOG3 POP POP POP POP POP JUMP JUMPDEST PUSH32 0xC8FCAD8DB84D3CC18B4C41D551EA0EE66DD599CDE068D998E57D5E09332C1326 SLOAD PUSH1 0x0 DUP1 MLOAD PUSH1 0x20 PUSH2 0x207F DUP4 CODECOPY DUP2 MLOAD SWAP2 MSTORE SWAP1 PUSH1 0xFF AND PUSH2 0x89C JUMPI PUSH1 0x40 MLOAD PUSH3 0x461BCD PUSH1 0xE5 SHL DUP2 MSTORE PUSH1 0x4 ADD PUSH2 0x106 SWAP1 PUSH2 0x1C10 JUMP JUMPDEST PUSH1 0x5 DUP2 ADD SLOAD PUSH1 0x9 DUP3 ADD SLOAD PUSH2 0x8B0 SWAP2 SWAP1 PUSH2 0x1DF9 JUMP JUMPDEST TIMESTAMP LT ISZERO PUSH2 0x90F JUMPI PUSH1 0x40 MLOAD PUSH3 0x461BCD PUSH1 0xE5 SHL DUP2 MSTORE PUSH1 0x20 PUSH1 0x4 DUP3 ADD MSTORE PUSH1 0x27 PUSH1 0x24 DUP3 ADD MSTORE PUSH32 0x4C69624469616D6F6E643A2054696D656C6F636B20706572696F64206E6F7420 PUSH1 0x44 DUP3 ADD MSTORE PUSH7 0x195B185C1CD959 PUSH1 0xCA SHL PUSH1 0x64 DUP3 ADD MSTORE PUSH1 0x84 ADD PUSH2 0x106 JUMP JUMPDEST PUSH2 0xADF DUP2 PUSH1 0x6 ADD PUSH1 0x0 ADD DUP1 SLOAD DUP1 PUSH1 0x20 MUL PUSH1 0x20 ADD PUSH1 0x40 MLOAD SWAP1 DUP2 ADD PUSH1 0x40 MSTORE DUP1 SWAP3 SWAP2 SWAP1 DUP2 DUP2 MSTORE PUSH1 0x20 ADD PUSH1 0x0 SWAP1 JUMPDEST DUP3 DUP3 LT ISZERO PUSH2 0xA38 JUMPI PUSH1 0x0 DUP5 DUP2 MSTORE PUSH1 0x20 SWAP1 DUP2 SWAP1 KECCAK256 PUSH1 0x40 DUP1 MLOAD PUSH1 0x60 DUP2 ADD SWAP1 SWAP2 MSTORE PUSH1 0x2 DUP6 DUP2 MUL SWAP1 SWAP3 ADD DUP1 SLOAD PUSH1 0x1 PUSH1 0x1 PUSH1 0xA0 SHL SUB DUP2 AND DUP4 MSTORE SWAP2 SWAP4 SWAP1 SWAP3 SWAP1 DUP5 ADD SWAP2 PUSH1 0x1 PUSH1 0xA0 SHL SWAP1 DIV PUSH1 0xFF AND SWAP1 DUP2 GT ISZERO PUSH2 0x98F JUMPI PUSH2 0x98F PUSH2 0x1C9B JUMP JUMPDEST PUSH1 0x2 DUP2 GT ISZERO PUSH2 0x9A0 JUMPI PUSH2 0x9A0 PUSH2 0x1C9B JUMP JUMPDEST DUP2 MSTORE PUSH1 0x20 ADD PUSH1 0x1 DUP3 ADD DUP1 SLOAD DUP1 PUSH1 0x20 MUL PUSH1 0x20 ADD PUSH1 0x40 MLOAD SWAP1 DUP2 ADD PUSH1 0x40 MSTORE DUP1 SWAP3 SWAP2 SWAP1 DUP2 DUP2 MSTORE PUSH1 0x20 ADD DUP3 DUP1 SLOAD DUP1 ISZERO PUSH2 0xA20 JUMPI PUSH1 0x20 MUL DUP3 ADD SWAP2 SWAP1 PUSH1 0x0 MSTORE PUSH1 0x20 PUSH1 0x0 KECCAK256 SWAP1 PUSH1 0x0 SWAP1 JUMPDEST DUP3 DUP3 SWAP1 SLOAD SWAP1 PUSH2 0x100 EXP SWAP1 DIV PUSH1 0xE0 SHL PUSH1 0x1 PUSH1 0x1 PUSH1 0xE0 SHL SUB NOT AND DUP2 MSTORE PUSH1 0x20 ADD SWAP1 PUSH1 0x4 ADD SWAP1 PUSH1 0x20 DUP3 PUSH1 0x3 ADD DIV SWAP3 DUP4 ADD SWAP3 PUSH1 0x1 SUB DUP3 MUL SWAP2 POP DUP1 DUP5 GT PUSH2 0x9E2 JUMPI SWAP1 POP JUMPDEST POP POP POP POP POP DUP2 MSTORE POP POP DUP2 MSTORE PUSH1 0x20 ADD SWAP1 PUSH1 0x1 ADD SWAP1 PUSH2 0x939 JUMP JUMPDEST POP POP POP POP PUSH1 0x7 DUP4 ADD SLOAD PUSH1 0x8 DUP5 ADD DUP1 SLOAD PUSH1 0x1 PUSH1 0x1 PUSH1 0xA0 SHL SUB SWAP1 SWAP3 AND SWAP2 PUSH2 0xA5C SWAP1 PUSH2 0x1CB1 JUMP JUMPDEST DUP1 PUSH1 0x1F ADD PUSH1 0x20 DUP1 SWAP2 DIV MUL PUSH1 0x20 ADD PUSH1 0x40 MLOAD SWAP1 DUP2 ADD PUSH1 0x40 MSTORE DUP1 SWAP3 SWAP2 SWAP1 DUP2 DUP2 MSTORE PUSH1 0x20 ADD DUP3 DUP1 SLOAD PUSH2 0xA88 SWAP1 PUSH2 0x1CB1 JUMP JUMPDEST DUP1 ISZERO PUSH2 0xAD5 JUMPI DUP1 PUSH1 0x1F LT PUSH2 0xAAA JUMPI PUSH2 0x100 DUP1 DUP4 SLOAD DIV MUL DUP4 MSTORE SWAP2 PUSH1 0x20 ADD SWAP2 PUSH2 0xAD5 JUMP JUMPDEST DUP3 ADD SWAP2 SWAP1 PUSH1 0x0 MSTORE PUSH1 0x20 PUSH1 0x0 KECCAK256 SWAP1 JUMPDEST DUP2 SLOAD DUP2 MSTORE SWAP1 PUSH1 0x1 ADD SWAP1 PUSH1 0x20 ADD DUP1 DUP4 GT PUSH2 0xAB8 JUMPI DUP3 SWAP1 SUB PUSH1 0x1F AND DUP3 ADD SWAP2 JUMPDEST POP POP POP POP POP PUSH2 0xB25 JUMP JUMPDEST PUSH1 0x6 DUP2 ADD PUSH1 0x0 PUSH2 0xAEF DUP3 DUP3 PUSH2 0x1857 JUMP JUMPDEST PUSH1 0x1 DUP3 ADD DUP1 SLOAD PUSH1 0x1 PUSH1 0x1 PUSH1 0xA0 SHL SUB NOT AND SWAP1 SSTORE PUSH2 0xB0F PUSH1 0x2 DUP4 ADD PUSH1 0x0 PUSH2 0x187B JUMP JUMPDEST POP PUSH1 0x0 PUSH1 0x3 DUP3 ADD SSTORE PUSH1 0x4 ADD DUP1 SLOAD PUSH1 0xFF NOT AND SWAP1 SSTORE POP JUMP JUMPDEST PUSH1 0x0 JUMPDEST DUP4 MLOAD DUP2 LT ISZERO PUSH2 0xCEB JUMPI PUSH1 0x0 DUP5 DUP3 DUP2 MLOAD DUP2 LT PUSH2 0xB45 JUMPI PUSH2 0xB45 PUSH2 0x1C56 JUMP JUMPDEST PUSH1 0x20 MUL PUSH1 0x20 ADD ADD MLOAD PUSH1 0x20 ADD MLOAD SWAP1 POP PUSH1 0x0 PUSH1 0x2 DUP2 GT ISZERO PUSH2 0xB66 JUMPI PUSH2 0xB66 PUSH2 0x1C9B JUMP JUMPDEST DUP2 PUSH1 0x2 DUP2 GT ISZERO PUSH2 0xB78 JUMPI PUSH2 0xB78 PUSH2 0x1C9B JUMP JUMPDEST SUB PUSH2 0xBC6 JUMPI PUSH2 0xBC1 DUP6 DUP4 DUP2 MLOAD DUP2 LT PUSH2 0xB92 JUMPI PUSH2 0xB92 PUSH2 0x1C56 JUMP JUMPDEST PUSH1 0x20 MUL PUSH1 0x20 ADD ADD MLOAD PUSH1 0x0 ADD MLOAD DUP7 DUP5 DUP2 MLOAD DUP2 LT PUSH2 0xBB0 JUMPI PUSH2 0xBB0 PUSH2 0x1C56 JUMP JUMPDEST PUSH1 0x20 MUL PUSH1 0x20 ADD ADD MLOAD PUSH1 0x40 ADD MLOAD PUSH2 0xD36 JUMP JUMPDEST PUSH2 0xCD8 JUMP JUMPDEST PUSH1 0x1 DUP2 PUSH1 0x2 DUP2 GT ISZERO PUSH2 0xBDA JUMPI PUSH2 0xBDA PUSH2 0x1C9B JUMP JUMPDEST SUB PUSH2 0xC23 JUMPI PUSH2 0xBC1 DUP6 DUP4 DUP2 MLOAD DUP2 LT PUSH2 0xBF4 JUMPI PUSH2 0xBF4 PUSH2 0x1C56 JUMP JUMPDEST PUSH1 0x20 MUL PUSH1 0x20 ADD ADD MLOAD PUSH1 0x0 ADD MLOAD DUP7 DUP5 DUP2 MLOAD DUP2 LT PUSH2 0xC12 JUMPI PUSH2 0xC12 PUSH2 0x1C56 JUMP JUMPDEST PUSH1 0x20 MUL PUSH1 0x20 ADD ADD MLOAD PUSH1 0x40 ADD MLOAD PUSH2 0xEAE JUMP JUMPDEST PUSH1 0x2 DUP2 PUSH1 0x2 DUP2 GT ISZERO PUSH2 0xC37 JUMPI PUSH2 0xC37 PUSH2 0x1C9B JUMP JUMPDEST SUB PUSH2 0xC80 JUMPI PUSH2 0xBC1 DUP6 DUP4 DUP2 MLOAD DUP2 LT PUSH2 0xC51 JUMPI PUSH2 0xC51 PUSH2 0x1C56 JUMP JUMPDEST PUSH1 0x20 MUL PUSH1 0x20 ADD ADD MLOAD PUSH1 0x0 ADD MLOAD DUP7 DUP5 DUP2 MLOAD DUP2 LT PUSH2 0xC6F JUMPI PUSH2 0xC6F PUSH2 0x1C56 JUMP JUMPDEST PUSH1 0x20 MUL PUSH1 0x20 ADD ADD MLOAD PUSH1 0x40 ADD MLOAD PUSH2 0x103E JUMP JUMPDEST PUSH1 0x40 MLOAD PUSH3 0x461BCD PUSH1 0xE5 SHL DUP2 MSTORE PUSH1 0x20 PUSH1 0x4 DUP3 ADD MSTORE PUSH1 0x27 PUSH1 0x24 DUP3 ADD MSTORE PUSH32 0x4C69624469616D6F6E644375743A20496E636F72726563742046616365744375 PUSH1 0x44 DUP3 ADD MSTORE PUSH7 0x3A20B1BA34B7B7 PUSH1 0xC9 SHL PUSH1 0x64 DUP3 ADD MSTORE PUSH1 0x84 ADD PUSH2 0x106 JUMP JUMPDEST POP DUP1 PUSH2 0xCE3 DUP2 PUSH2 0x1C82 JUMP JUMPDEST SWAP2 POP POP PUSH2 0xB28 JUMP JUMPDEST POP PUSH32 0x8FAA70878671CCD212D20771B795C50AF8FD3FF6CF27F4BDE57E5D4DE0AEB673 DUP4 DUP4 DUP4 PUSH1 0x40 MLOAD PUSH2 0xD1F SWAP4 SWAP3 SWAP2 SWAP1 PUSH2 0x1E62 JUMP JUMPDEST PUSH1 0x40 MLOAD DUP1 SWAP2 SUB SWAP1 LOG1 PUSH2 0xD31 DUP3 DUP3 PUSH2 0x115C JUMP JUMPDEST POP POP POP JUMP JUMPDEST PUSH1 0x0 DUP2 MLOAD GT PUSH2 0xD57 JUMPI PUSH1 0x40 MLOAD PUSH3 0x461BCD PUSH1 0xE5 SHL DUP2 MSTORE PUSH1 0x4 ADD PUSH2 0x106 SWAP1 PUSH2 0x1F62 JUMP JUMPDEST PUSH1 0x0 DUP1 MLOAD PUSH1 0x20 PUSH2 0x207F DUP4 CODECOPY DUP2 MLOAD SWAP2 MSTORE PUSH1 0x1 PUSH1 0x1 PUSH1 0xA0 SHL SUB DUP4 AND PUSH2 0xD8C JUMPI PUSH1 0x40 MLOAD PUSH3 0x461BCD PUSH1 0xE5 SHL DUP2 MSTORE PUSH1 0x4 ADD PUSH2 0x106 SWAP1 PUSH2 0x1FAD JUMP JUMPDEST PUSH1 0x1 PUSH1 0x1 PUSH1 0xA0 SHL SUB DUP4 AND PUSH1 0x0 SWAP1 DUP2 MSTORE PUSH1 0x1 DUP3 ADD PUSH1 0x20 MSTORE PUSH1 0x40 DUP2 KECCAK256 SLOAD SWAP1 PUSH1 0x1 PUSH1 0x1 PUSH1 0x60 SHL SUB DUP3 AND SWAP1 SUB PUSH2 0xDC2 JUMPI PUSH2 0xDC2 DUP3 DUP6 PUSH2 0x1369 JUMP JUMPDEST PUSH1 0x0 JUMPDEST DUP4 MLOAD DUP2 LT ISZERO PUSH2 0x173 JUMPI PUSH1 0x0 DUP5 DUP3 DUP2 MLOAD DUP2 LT PUSH2 0xDE2 JUMPI PUSH2 0xDE2 PUSH2 0x1C56 JUMP JUMPDEST PUSH1 0x20 SWAP1 DUP2 MUL SWAP2 SWAP1 SWAP2 ADD DUP2 ADD MLOAD PUSH1 0x1 PUSH1 0x1 PUSH1 0xE0 SHL SUB NOT DUP2 AND PUSH1 0x0 SWAP1 DUP2 MSTORE SWAP2 DUP7 SWAP1 MSTORE PUSH1 0x40 SWAP1 SWAP2 KECCAK256 SLOAD SWAP1 SWAP2 POP PUSH1 0x1 PUSH1 0x1 PUSH1 0xA0 SHL SUB AND DUP1 ISZERO PUSH2 0xE80 JUMPI PUSH1 0x40 MLOAD PUSH3 0x461BCD PUSH1 0xE5 SHL DUP2 MSTORE PUSH1 0x20 PUSH1 0x4 DUP3 ADD MSTORE PUSH1 0x35 PUSH1 0x24 DUP3 ADD MSTORE PUSH32 0x4C69624469616D6F6E644375743A2043616E2774206164642066756E6374696F PUSH1 0x44 DUP3 ADD MSTORE PUSH21 0x6E207468617420616C726561647920657869737473 PUSH1 0x58 SHL PUSH1 0x64 DUP3 ADD MSTORE PUSH1 0x84 ADD PUSH2 0x106 JUMP JUMPDEST PUSH2 0xE8C DUP6 DUP4 DUP7 DUP11 PUSH2 0x13D3 JUMP JUMPDEST DUP4 PUSH2 0xE96 DUP2 PUSH2 0x1FF9 JUMP JUMPDEST SWAP5 POP POP POP POP DUP1 DUP1 PUSH2 0xEA6 SWAP1 PUSH2 0x1C82 JUMP JUMPDEST SWAP2 POP POP PUSH2 0xDC5 JUMP JUMPDEST PUSH1 0x0 DUP2 MLOAD GT PUSH2 0xECF JUMPI PUSH1 0x40 MLOAD PUSH3 0x461BCD PUSH1 0xE5 SHL DUP2 MSTORE PUSH1 0x4 ADD PUSH2 0x106 SWAP1 PUSH2 0x1F62 JUMP JUMPDEST PUSH1 0x0 DUP1 MLOAD PUSH1 0x20 PUSH2 0x207F DUP4 CODECOPY DUP2 MLOAD SWAP2 MSTORE PUSH1 0x1 PUSH1 0x1 PUSH1 0xA0 SHL SUB DUP4 AND PUSH2 0xF04 JUMPI PUSH1 0x40 MLOAD PUSH3 0x461BCD PUSH1 0xE5 SHL DUP2 MSTORE PUSH1 0x4 ADD PUSH2 0x106 SWAP1 PUSH2 0x1FAD JUMP JUMPDEST PUSH1 0x1 PUSH1 0x1 PUSH1 0xA0 SHL SUB DUP4 AND PUSH1 0x0 SWAP1 DUP2 MSTORE PUSH1 0x1 DUP3 ADD PUSH1 0x20 MSTORE PUSH1 0x40 DUP2 KECCAK256 SLOAD SWAP1 PUSH1 0x1 PUSH1 0x1 PUSH1 0x60 SHL SUB DUP3 AND SWAP1 SUB PUSH2 0xF3A JUMPI PUSH2 0xF3A DUP3 DUP6 PUSH2 0x1369 JUMP JUMPDEST PUSH1 0x0 JUMPDEST DUP4 MLOAD DUP2 LT ISZERO PUSH2 0x173 JUMPI PUSH1 0x0 DUP5 DUP3 DUP2 MLOAD DUP2 LT PUSH2 0xF5A JUMPI PUSH2 0xF5A PUSH2 0x1C56 JUMP JUMPDEST PUSH1 0x20 SWAP1 DUP2 MUL SWAP2 SWAP1 SWAP2 ADD DUP2 ADD MLOAD PUSH1 0x1 PUSH1 0x1 PUSH1 0xE0 SHL SUB NOT DUP2 AND PUSH1 0x0 SWAP1 DUP2 MSTORE SWAP2 DUP7 SWAP1 MSTORE PUSH1 0x40 SWAP1 SWAP2 KECCAK256 SLOAD SWAP1 SWAP2 POP PUSH1 0x1 PUSH1 0x1 PUSH1 0xA0 SHL SUB SWAP1 DUP2 AND SWAP1 DUP8 AND DUP2 SUB PUSH2 0x1005 JUMPI PUSH1 0x40 MLOAD PUSH3 0x461BCD PUSH1 0xE5 SHL DUP2 MSTORE PUSH1 0x20 PUSH1 0x4 DUP3 ADD MSTORE PUSH1 0x38 PUSH1 0x24 DUP3 ADD MSTORE PUSH32 0x4C69624469616D6F6E644375743A2043616E2774207265706C6163652066756E PUSH1 0x44 DUP3 ADD MSTORE PUSH32 0x6374696F6E20776974682073616D652066756E6374696F6E0000000000000000 PUSH1 0x64 DUP3 ADD MSTORE PUSH1 0x84 ADD PUSH2 0x106 JUMP JUMPDEST PUSH2 0x1010 DUP6 DUP3 DUP5 PUSH2 0x1473 JUMP JUMPDEST PUSH2 0x101C DUP6 DUP4 DUP7 DUP11 PUSH2 0x13D3 JUMP JUMPDEST DUP4 PUSH2 0x1026 DUP2 PUSH2 0x1FF9 JUMP JUMPDEST SWAP5 POP POP POP POP DUP1 DUP1 PUSH2 0x1036 SWAP1 PUSH2 0x1C82 JUMP JUMPDEST SWAP2 POP POP PUSH2 0xF3D JUMP JUMPDEST PUSH1 0x0 DUP2 MLOAD GT PUSH2 0x105F JUMPI PUSH1 0x40 MLOAD PUSH3 0x461BCD PUSH1 0xE5 SHL DUP2 MSTORE PUSH1 0x4 ADD PUSH2 0x106 SWAP1 PUSH2 0x1F62 JUMP JUMPDEST PUSH1 0x0 DUP1 MLOAD PUSH1 0x20 PUSH2 0x207F DUP4 CODECOPY DUP2 MLOAD SWAP2 MSTORE PUSH1 0x1 PUSH1 0x1 PUSH1 0xA0 SHL SUB DUP4 AND ISZERO PUSH2 0x10E4 JUMPI PUSH1 0x40 MLOAD PUSH3 0x461BCD PUSH1 0xE5 SHL DUP2 MSTORE PUSH1 0x20 PUSH1 0x4 DUP3 ADD MSTORE PUSH1 0x36 PUSH1 0x24 DUP3 ADD MSTORE PUSH32 0x4C69624469616D6F6E644375743A2052656D6F76652066616365742061646472 PUSH1 0x44 DUP3 ADD MSTORE PUSH22 0x657373206D7573742062652061646472657373283029 PUSH1 0x50 SHL PUSH1 0x64 DUP3 ADD MSTORE PUSH1 0x84 ADD PUSH2 0x106 JUMP JUMPDEST PUSH1 0x0 JUMPDEST DUP3 MLOAD DUP2 LT ISZERO PUSH2 0x1156 JUMPI PUSH1 0x0 DUP4 DUP3 DUP2 MLOAD DUP2 LT PUSH2 0x1104 JUMPI PUSH2 0x1104 PUSH2 0x1C56 JUMP JUMPDEST PUSH1 0x20 SWAP1 DUP2 MUL SWAP2 SWAP1 SWAP2 ADD DUP2 ADD MLOAD PUSH1 0x1 PUSH1 0x1 PUSH1 0xE0 SHL SUB NOT DUP2 AND PUSH1 0x0 SWAP1 DUP2 MSTORE SWAP2 DUP6 SWAP1 MSTORE PUSH1 0x40 SWAP1 SWAP2 KECCAK256 SLOAD SWAP1 SWAP2 POP PUSH1 0x1 PUSH1 0x1 PUSH1 0xA0 SHL SUB AND PUSH2 0x1141 DUP5 DUP3 DUP5 PUSH2 0x1473 JUMP JUMPDEST POP POP DUP1 DUP1 PUSH2 0x114E SWAP1 PUSH2 0x1C82 JUMP JUMPDEST SWAP2 POP POP PUSH2 0x10E7 JUMP JUMPDEST POP POP POP POP JUMP JUMPDEST PUSH1 0x1 PUSH1 0x1 PUSH1 0xA0 SHL SUB DUP3 AND PUSH2 0x11E3 JUMPI DUP1 MLOAD ISZERO PUSH2 0x11DF JUMPI PUSH1 0x40 MLOAD PUSH3 0x461BCD PUSH1 0xE5 SHL DUP2 MSTORE PUSH1 0x20 PUSH1 0x4 DUP3 ADD MSTORE PUSH1 0x3C PUSH1 0x24 DUP3 ADD MSTORE PUSH32 0x4C69624469616D6F6E644375743A205F696E6974206973206164647265737328 PUSH1 0x44 DUP3 ADD MSTORE PUSH32 0x3029206275745F63616C6C64617461206973206E6F7420656D70747900000000 PUSH1 0x64 DUP3 ADD MSTORE PUSH1 0x84 ADD PUSH2 0x106 JUMP JUMPDEST POP POP JUMP JUMPDEST PUSH1 0x0 DUP2 MLOAD GT PUSH2 0x125A JUMPI PUSH1 0x40 MLOAD PUSH3 0x461BCD PUSH1 0xE5 SHL DUP2 MSTORE PUSH1 0x20 PUSH1 0x4 DUP3 ADD MSTORE PUSH1 0x3D PUSH1 0x24 DUP3 ADD MSTORE PUSH32 0x4C69624469616D6F6E644375743A205F63616C6C6461746120697320656D7074 PUSH1 0x44 DUP3 ADD MSTORE PUSH32 0x7920627574205F696E6974206973206E6F742061646472657373283029000000 PUSH1 0x64 DUP3 ADD MSTORE PUSH1 0x84 ADD PUSH2 0x106 JUMP JUMPDEST PUSH1 0x1 PUSH1 0x1 PUSH1 0xA0 SHL SUB DUP3 AND ADDRESS EQ PUSH2 0x128C JUMPI PUSH2 0x128C DUP3 PUSH1 0x40 MLOAD DUP1 PUSH1 0x60 ADD PUSH1 0x40 MSTORE DUP1 PUSH1 0x28 DUP2 MSTORE PUSH1 0x20 ADD PUSH2 0x209F PUSH1 0x28 SWAP2 CODECOPY PUSH2 0x1836 JUMP JUMPDEST PUSH1 0x0 DUP1 DUP4 PUSH1 0x1 PUSH1 0x1 PUSH1 0xA0 SHL SUB AND DUP4 PUSH1 0x40 MLOAD PUSH2 0x12A7 SWAP2 SWAP1 PUSH2 0x201F JUMP JUMPDEST PUSH1 0x0 PUSH1 0x40 MLOAD DUP1 DUP4 SUB DUP2 DUP6 GAS DELEGATECALL SWAP2 POP POP RETURNDATASIZE DUP1 PUSH1 0x0 DUP2 EQ PUSH2 0x12E2 JUMPI PUSH1 0x40 MLOAD SWAP2 POP PUSH1 0x1F NOT PUSH1 0x3F RETURNDATASIZE ADD AND DUP3 ADD PUSH1 0x40 MSTORE RETURNDATASIZE DUP3 MSTORE RETURNDATASIZE PUSH1 0x0 PUSH1 0x20 DUP5 ADD RETURNDATACOPY PUSH2 0x12E7 JUMP JUMPDEST PUSH1 0x60 SWAP2 POP JUMPDEST POP SWAP2 POP SWAP2 POP DUP2 PUSH2 0x1156 JUMPI DUP1 MLOAD ISZERO PUSH2 0x1312 JUMPI DUP1 PUSH1 0x40 MLOAD PUSH3 0x461BCD PUSH1 0xE5 SHL DUP2 MSTORE PUSH1 0x4 ADD PUSH2 0x106 SWAP2 SWAP1 PUSH2 0x203B JUMP JUMPDEST PUSH1 0x40 MLOAD PUSH3 0x461BCD PUSH1 0xE5 SHL DUP2 MSTORE PUSH1 0x20 PUSH1 0x4 DUP3 ADD MSTORE PUSH1 0x26 PUSH1 0x24 DUP3 ADD MSTORE PUSH32 0x4C69624469616D6F6E644375743A205F696E69742066756E6374696F6E207265 PUSH1 0x44 DUP3 ADD MSTORE PUSH6 0x1D995C9D1959 PUSH1 0xD2 SHL PUSH1 0x64 DUP3 ADD MSTORE PUSH1 0x84 ADD PUSH2 0x106 JUMP JUMPDEST PUSH2 0x138B DUP2 PUSH1 0x40 MLOAD DUP1 PUSH1 0x60 ADD PUSH1 0x40 MSTORE DUP1 PUSH1 0x24 DUP2 MSTORE PUSH1 0x20 ADD PUSH2 0x20C7 PUSH1 0x24 SWAP2 CODECOPY PUSH2 0x1836 JUMP JUMPDEST PUSH1 0x2 DUP3 ADD DUP1 SLOAD PUSH1 0x1 PUSH1 0x1 PUSH1 0xA0 SHL SUB SWAP1 SWAP3 AND PUSH1 0x0 DUP2 DUP2 MSTORE PUSH1 0x1 SWAP5 DUP6 ADD PUSH1 0x20 SWAP1 DUP2 MSTORE PUSH1 0x40 DUP3 KECCAK256 DUP7 ADD DUP6 SWAP1 SSTORE SWAP5 DUP5 ADD DUP4 SSTORE SWAP2 DUP3 MSTORE SWAP3 SWAP1 KECCAK256 ADD DUP1 SLOAD PUSH1 0x1 PUSH1 0x1 PUSH1 0xA0 SHL SUB NOT AND SWAP1 SWAP2 OR SWAP1 SSTORE JUMP JUMPDEST PUSH1 0x1 PUSH1 0x1 PUSH1 0xE0 SHL SUB NOT DUP4 AND PUSH1 0x0 DUP2 DUP2 MSTORE PUSH1 0x20 DUP7 DUP2 MSTORE PUSH1 0x40 DUP1 DUP4 KECCAK256 DUP1 SLOAD PUSH1 0x1 PUSH1 0x1 PUSH1 0x60 SHL SUB SWAP1 SWAP8 AND PUSH1 0x1 PUSH1 0xA0 SHL MUL PUSH1 0x1 PUSH1 0x1 PUSH1 0xA0 SHL SUB SWAP8 DUP9 AND OR DUP2 SSTORE SWAP5 SWAP1 SWAP6 AND DUP1 DUP4 MSTORE PUSH1 0x1 DUP1 DUP10 ADD DUP4 MSTORE SWAP6 DUP4 KECCAK256 DUP1 SLOAD SWAP7 DUP8 ADD DUP2 SSTORE DUP4 MSTORE DUP2 DUP4 KECCAK256 PUSH1 0x8 DUP8 DIV ADD DUP1 SLOAD PUSH1 0xE0 SWAP9 SWAP1 SWAP9 SHR PUSH1 0x4 PUSH1 0x7 SWAP1 SWAP9 AND SWAP8 SWAP1 SWAP8 MUL PUSH2 0x100 EXP SWAP7 DUP8 MUL PUSH4 0xFFFFFFFF SWAP1 SWAP8 MUL NOT SWAP1 SWAP8 AND SWAP6 SWAP1 SWAP6 OR SWAP1 SWAP6 SSTORE MSTORE SWAP3 SWAP1 SWAP2 MSTORE DUP2 SLOAD PUSH1 0x1 PUSH1 0x1 PUSH1 0xA0 SHL SUB NOT AND OR SWAP1 SSTORE JUMP JUMPDEST PUSH1 0x1 PUSH1 0x1 PUSH1 0xA0 SHL SUB DUP3 AND PUSH2 0x14EF JUMPI PUSH1 0x40 MLOAD PUSH3 0x461BCD PUSH1 0xE5 SHL DUP2 MSTORE PUSH1 0x20 PUSH1 0x4 DUP3 ADD MSTORE PUSH1 0x37 PUSH1 0x24 DUP3 ADD MSTORE PUSH32 0x4C69624469616D6F6E644375743A2043616E27742072656D6F76652066756E63 PUSH1 0x44 DUP3 ADD MSTORE PUSH32 0x74696F6E207468617420646F65736E2774206578697374000000000000000000 PUSH1 0x64 DUP3 ADD MSTORE PUSH1 0x84 ADD PUSH2 0x106 JUMP JUMPDEST ADDRESS PUSH1 0x1 PUSH1 0x1 PUSH1 0xA0 SHL SUB DUP4 AND SUB PUSH2 0x155E JUMPI PUSH1 0x40 MLOAD PUSH3 0x461BCD PUSH1 0xE5 SHL DUP2 MSTORE PUSH1 0x20 PUSH1 0x4 DUP3 ADD MSTORE PUSH1 0x2E PUSH1 0x24 DUP3 ADD MSTORE PUSH32 0x4C69624469616D6F6E644375743A2043616E27742072656D6F766520696D6D75 PUSH1 0x44 DUP3 ADD MSTORE PUSH14 0x3A30B1363290333AB731BA34B7B7 PUSH1 0x91 SHL PUSH1 0x64 DUP3 ADD MSTORE PUSH1 0x84 ADD PUSH2 0x106 JUMP JUMPDEST PUSH1 0x1 PUSH1 0x1 PUSH1 0xE0 SHL SUB NOT DUP2 AND PUSH1 0x0 SWAP1 DUP2 MSTORE PUSH1 0x20 DUP5 DUP2 MSTORE PUSH1 0x40 DUP1 DUP4 KECCAK256 SLOAD PUSH1 0x1 PUSH1 0x1 PUSH1 0xA0 SHL SUB DUP7 AND DUP5 MSTORE PUSH1 0x1 DUP1 DUP9 ADD SWAP1 SWAP4 MSTORE SWAP1 DUP4 KECCAK256 SLOAD PUSH1 0x1 PUSH1 0xA0 SHL SWAP1 SWAP2 DIV PUSH1 0x1 PUSH1 0x1 PUSH1 0x60 SHL SUB AND SWAP3 SWAP2 PUSH2 0x15AD SWAP2 PUSH2 0x2055 JUMP JUMPDEST SWAP1 POP DUP1 DUP3 EQ PUSH2 0x169F JUMPI PUSH1 0x1 PUSH1 0x1 PUSH1 0xA0 SHL SUB DUP5 AND PUSH1 0x0 SWAP1 DUP2 MSTORE PUSH1 0x1 DUP7 ADD PUSH1 0x20 MSTORE PUSH1 0x40 DUP2 KECCAK256 DUP1 SLOAD DUP4 SWAP1 DUP2 LT PUSH2 0x15E2 JUMPI PUSH2 0x15E2 PUSH2 0x1C56 JUMP JUMPDEST PUSH1 0x0 SWAP2 DUP3 MSTORE PUSH1 0x20 DUP1 DUP4 KECCAK256 PUSH1 0x8 DUP4 DIV ADD SLOAD PUSH1 0x1 PUSH1 0x1 PUSH1 0xA0 SHL SUB DUP10 AND DUP5 MSTORE PUSH1 0x1 DUP11 ADD SWAP1 SWAP2 MSTORE PUSH1 0x40 SWAP1 SWAP3 KECCAK256 DUP1 SLOAD PUSH1 0x7 SWAP1 SWAP3 AND PUSH1 0x4 MUL PUSH2 0x100 EXP SWAP1 SWAP3 DIV PUSH1 0xE0 SHL SWAP3 POP DUP3 SWAP2 SWAP1 DUP6 SWAP1 DUP2 LT PUSH2 0x1633 JUMPI PUSH2 0x1633 PUSH2 0x1C56 JUMP JUMPDEST PUSH1 0x0 SWAP2 DUP3 MSTORE PUSH1 0x20 DUP1 DUP4 KECCAK256 PUSH1 0x8 DUP4 DIV ADD DUP1 SLOAD PUSH4 0xFFFFFFFF PUSH1 0x7 SWAP1 SWAP5 AND PUSH1 0x4 MUL PUSH2 0x100 EXP SWAP4 DUP5 MUL NOT AND PUSH1 0xE0 SWAP6 SWAP1 SWAP6 SHR SWAP3 SWAP1 SWAP3 MUL SWAP4 SWAP1 SWAP4 OR SWAP1 SSTORE PUSH1 0x1 PUSH1 0x1 PUSH1 0xE0 SHL SUB NOT SWAP3 SWAP1 SWAP3 AND DUP3 MSTORE DUP7 SWAP1 MSTORE PUSH1 0x40 SWAP1 KECCAK256 DUP1 SLOAD PUSH1 0x1 PUSH1 0x1 PUSH1 0xA0 SHL SUB AND PUSH1 0x1 PUSH1 0xA0 SHL PUSH1 0x1 PUSH1 0x1 PUSH1 0x60 SHL SUB DUP6 AND MUL OR SWAP1 SSTORE JUMPDEST PUSH1 0x1 PUSH1 0x1 PUSH1 0xA0 SHL SUB DUP5 AND PUSH1 0x0 SWAP1 DUP2 MSTORE PUSH1 0x1 DUP7 ADD PUSH1 0x20 MSTORE PUSH1 0x40 SWAP1 KECCAK256 DUP1 SLOAD DUP1 PUSH2 0x16C8 JUMPI PUSH2 0x16C8 PUSH2 0x2068 JUMP JUMPDEST PUSH1 0x0 DUP3 DUP2 MSTORE PUSH1 0x20 DUP1 DUP3 KECCAK256 PUSH1 0x8 PUSH1 0x0 NOT SWAP1 SWAP5 ADD SWAP4 DUP5 DIV ADD DUP1 SLOAD PUSH4 0xFFFFFFFF PUSH1 0x4 PUSH1 0x7 DUP8 AND MUL PUSH2 0x100 EXP MUL NOT AND SWAP1 SSTORE SWAP2 SWAP1 SWAP3 SSTORE PUSH1 0x1 PUSH1 0x1 PUSH1 0xE0 SHL SUB NOT DUP6 AND DUP3 MSTORE DUP7 SWAP1 MSTORE PUSH1 0x40 DUP2 KECCAK256 DUP2 SWAP1 SSTORE DUP2 SWAP1 SUB PUSH2 0x173 JUMPI PUSH1 0x2 DUP6 ADD SLOAD PUSH1 0x0 SWAP1 PUSH2 0x172B SWAP1 PUSH1 0x1 SWAP1 PUSH2 0x2055 JUMP JUMPDEST PUSH1 0x1 PUSH1 0x1 PUSH1 0xA0 SHL SUB DUP7 AND PUSH1 0x0 SWAP1 DUP2 MSTORE PUSH1 0x1 DUP1 DUP10 ADD PUSH1 0x20 MSTORE PUSH1 0x40 SWAP1 SWAP2 KECCAK256 ADD SLOAD SWAP1 SWAP2 POP DUP1 DUP3 EQ PUSH2 0x17DA JUMPI PUSH1 0x0 DUP8 PUSH1 0x2 ADD DUP4 DUP2 SLOAD DUP2 LT PUSH2 0x176A JUMPI PUSH2 0x176A PUSH2 0x1C56 JUMP JUMPDEST PUSH1 0x0 SWAP2 DUP3 MSTORE PUSH1 0x20 SWAP1 SWAP2 KECCAK256 ADD SLOAD PUSH1 0x2 DUP10 ADD DUP1 SLOAD PUSH1 0x1 PUSH1 0x1 PUSH1 0xA0 SHL SUB SWAP1 SWAP3 AND SWAP3 POP DUP3 SWAP2 DUP5 SWAP1 DUP2 LT PUSH2 0x179B JUMPI PUSH2 0x179B PUSH2 0x1C56 JUMP JUMPDEST PUSH1 0x0 SWAP2 DUP3 MSTORE PUSH1 0x20 DUP1 DUP4 KECCAK256 SWAP2 SWAP1 SWAP2 ADD DUP1 SLOAD PUSH1 0x1 PUSH1 0x1 PUSH1 0xA0 SHL SUB NOT AND PUSH1 0x1 PUSH1 0x1 PUSH1 0xA0 SHL SUB SWAP5 DUP6 AND OR SWAP1 SSTORE SWAP3 SWAP1 SWAP2 AND DUP2 MSTORE PUSH1 0x1 DUP10 DUP2 ADD SWAP1 SWAP3 MSTORE PUSH1 0x40 SWAP1 KECCAK256 ADD DUP2 SWAP1 SSTORE JUMPDEST DUP7 PUSH1 0x2 ADD DUP1 SLOAD DUP1 PUSH2 0x17ED JUMPI PUSH2 0x17ED PUSH2 0x2068 JUMP JUMPDEST PUSH1 0x0 DUP3 DUP2 MSTORE PUSH1 0x20 DUP1 DUP3 KECCAK256 DUP4 ADD PUSH1 0x0 NOT SWAP1 DUP2 ADD DUP1 SLOAD PUSH1 0x1 PUSH1 0x1 PUSH1 0xA0 SHL SUB NOT AND SWAP1 SSTORE SWAP1 SWAP3 ADD SWAP1 SWAP3 SSTORE PUSH1 0x1 PUSH1 0x1 PUSH1 0xA0 SHL SUB DUP9 AND DUP3 MSTORE PUSH1 0x1 DUP10 DUP2 ADD SWAP1 SWAP2 MSTORE PUSH1 0x40 DUP3 KECCAK256 ADD SSTORE POP POP POP POP POP POP POP JUMP JUMPDEST DUP2 EXTCODESIZE DUP2 DUP2 PUSH2 0x1156 JUMPI PUSH1 0x40 MLOAD PUSH3 0x461BCD PUSH1 0xE5 SHL DUP2 MSTORE PUSH1 0x4 ADD PUSH2 0x106 SWAP2 SWAP1 PUSH2 0x203B JUMP JUMPDEST POP DUP1 SLOAD PUSH1 0x0 DUP3 SSTORE PUSH1 0x2 MUL SWAP1 PUSH1 0x0 MSTORE PUSH1 0x20 PUSH1 0x0 KECCAK256 SWAP1 DUP2 ADD SWAP1 PUSH2 0x1878 SWAP2 SWAP1 PUSH2 0x18DA JUMP JUMPDEST POP JUMP JUMPDEST POP DUP1 SLOAD PUSH2 0x1887 SWAP1 PUSH2 0x1CB1 JUMP JUMPDEST PUSH1 0x0 DUP3 SSTORE DUP1 PUSH1 0x1F LT PUSH2 0x1897 JUMPI POP POP JUMP JUMPDEST PUSH1 0x1F ADD PUSH1 0x20 SWAP1 DIV SWAP1 PUSH1 0x0 MSTORE PUSH1 0x20 PUSH1 0x0 KECCAK256 SWAP1 DUP2 ADD SWAP1 PUSH2 0x1878 SWAP2 SWAP1 PUSH2 0x190C JUMP JUMPDEST POP DUP1 SLOAD PUSH1 0x0 DUP3 SSTORE PUSH1 0x7 ADD PUSH1 0x8 SWAP1 DIV SWAP1 PUSH1 0x0 MSTORE PUSH1 0x20 PUSH1 0x0 KECCAK256 SWAP1 DUP2 ADD SWAP1 PUSH2 0x1878 SWAP2 SWAP1 PUSH2 0x190C JUMP JUMPDEST DUP1 DUP3 GT ISZERO PUSH2 0x1908 JUMPI DUP1 SLOAD PUSH1 0x1 PUSH1 0x1 PUSH1 0xA8 SHL SUB NOT AND DUP2 SSTORE PUSH1 0x0 PUSH2 0x18FF PUSH1 0x1 DUP4 ADD DUP3 PUSH2 0x18B5 JUMP JUMPDEST POP PUSH1 0x2 ADD PUSH2 0x18DA JUMP JUMPDEST POP SWAP1 JUMP JUMPDEST JUMPDEST DUP1 DUP3 GT ISZERO PUSH2 0x1908 JUMPI PUSH1 0x0 DUP2 SSTORE PUSH1 0x1 ADD PUSH2 0x190D JUMP JUMPDEST DUP1 CALLDATALOAD PUSH1 0x1 PUSH1 0x1 PUSH1 0xA0 SHL SUB DUP2 AND DUP2 EQ PUSH2 0x1938 JUMPI PUSH1 0x0 DUP1 REVERT JUMPDEST SWAP2 SWAP1 POP JUMP JUMPDEST PUSH1 0x0 DUP1 DUP4 PUSH1 0x1F DUP5 ADD SLT PUSH2 0x194F JUMPI PUSH1 0x0 DUP1 REVERT JUMPDEST POP DUP2 CALLDATALOAD PUSH8 0xFFFFFFFFFFFFFFFF DUP2 GT ISZERO PUSH2 0x1967 JUMPI PUSH1 0x0 DUP1 REVERT JUMPDEST PUSH1 0x20 DUP4 ADD SWAP2 POP DUP4 PUSH1 0x20 DUP3 DUP6 ADD ADD GT ISZERO PUSH2 0x197F JUMPI PUSH1 0x0 DUP1 REVERT JUMPDEST SWAP3 POP SWAP3 SWAP1 POP JUMP JUMPDEST PUSH1 0x0 DUP1 PUSH1 0x0 DUP1 PUSH1 0x0 PUSH1 0x60 DUP7 DUP9 SUB SLT ISZERO PUSH2 0x199E JUMPI PUSH1 0x0 DUP1 REVERT JUMPDEST DUP6 CALLDATALOAD PUSH8 0xFFFFFFFFFFFFFFFF DUP1 DUP3 GT ISZERO PUSH2 0x19B6 JUMPI PUSH1 0x0 DUP1 REVERT JUMPDEST DUP2 DUP9 ADD SWAP2 POP DUP9 PUSH1 0x1F DUP4 ADD SLT PUSH2 0x19CA JUMPI PUSH1 0x0 DUP1 REVERT JUMPDEST DUP2 CALLDATALOAD DUP2 DUP2 GT ISZERO PUSH2 0x19D9 JUMPI PUSH1 0x0 DUP1 REVERT JUMPDEST DUP10 PUSH1 0x20 DUP3 PUSH1 0x5 SHL DUP6 ADD ADD GT ISZERO PUSH2 0x19EE JUMPI PUSH1 0x0 DUP1 REVERT JUMPDEST PUSH1 0x20 DUP4 ADD SWAP8 POP DUP1 SWAP7 POP POP PUSH2 0x1A04 PUSH1 0x20 DUP10 ADD PUSH2 0x1921 JUMP JUMPDEST SWAP5 POP PUSH1 0x40 DUP9 ADD CALLDATALOAD SWAP2 POP DUP1 DUP3 GT ISZERO PUSH2 0x1A1A JUMPI PUSH1 0x0 DUP1 REVERT JUMPDEST POP PUSH2 0x1A27 DUP9 DUP3 DUP10 ADD PUSH2 0x193D JUMP JUMPDEST SWAP7 SWAP10 SWAP6 SWAP9 POP SWAP4 SWAP7 POP SWAP3 SWAP5 SWAP4 SWAP3 POP POP POP JUMP JUMPDEST PUSH4 0x4E487B71 PUSH1 0xE0 SHL PUSH1 0x0 MSTORE PUSH1 0x41 PUSH1 0x4 MSTORE PUSH1 0x24 PUSH1 0x0 REVERT JUMPDEST PUSH1 0x40 MLOAD PUSH1 0x60 DUP2 ADD PUSH8 0xFFFFFFFFFFFFFFFF DUP2 GT DUP3 DUP3 LT OR ISZERO PUSH2 0x1A71 JUMPI PUSH2 0x1A71 PUSH2 0x1A38 JUMP JUMPDEST PUSH1 0x40 MSTORE SWAP1 JUMP JUMPDEST PUSH1 0x40 MLOAD PUSH1 0x1F DUP3 ADD PUSH1 0x1F NOT AND DUP2 ADD PUSH8 0xFFFFFFFFFFFFFFFF DUP2 GT DUP3 DUP3 LT OR ISZERO PUSH2 0x1AA0 JUMPI PUSH2 0x1AA0 PUSH2 0x1A38 JUMP JUMPDEST PUSH1 0x40 MSTORE SWAP2 SWAP1 POP JUMP JUMPDEST PUSH1 0x0 PUSH8 0xFFFFFFFFFFFFFFFF DUP3 GT ISZERO PUSH2 0x1AC2 JUMPI PUSH2 0x1AC2 PUSH2 0x1A38 JUMP JUMPDEST POP PUSH1 0x5 SHL PUSH1 0x20 ADD SWAP1 JUMP JUMPDEST PUSH1 0x0 PUSH2 0x1ADF PUSH2 0x1ADA DUP5 PUSH2 0x1AA8 JUMP JUMPDEST PUSH2 0x1A77 JUMP JUMPDEST DUP4 DUP2 MSTORE PUSH1 0x20 DUP1 DUP3 ADD SWAP2 SWAP1 PUSH1 0x5 DUP7 DUP2 SHL DUP7 ADD CALLDATASIZE DUP2 GT ISZERO PUSH2 0x1AFD JUMPI PUSH1 0x0 DUP1 REVERT JUMPDEST DUP7 JUMPDEST DUP2 DUP2 LT ISZERO PUSH2 0x1C03 JUMPI DUP1 CALLDATALOAD PUSH8 0xFFFFFFFFFFFFFFFF DUP1 DUP3 GT ISZERO PUSH2 0x1B20 JUMPI PUSH1 0x0 DUP1 DUP2 REVERT JUMPDEST DUP2 DUP11 ADD SWAP2 POP PUSH1 0x60 DUP3 CALLDATASIZE SUB SLT ISZERO PUSH2 0x1B36 JUMPI PUSH1 0x0 DUP1 DUP2 REVERT JUMPDEST PUSH2 0x1B3E PUSH2 0x1A4E JUMP JUMPDEST PUSH2 0x1B47 DUP4 PUSH2 0x1921 JUMP JUMPDEST DUP2 MSTORE DUP7 DUP4 ADD CALLDATALOAD PUSH1 0x3 DUP2 LT PUSH2 0x1B5B JUMPI PUSH1 0x0 DUP1 DUP2 REVERT JUMPDEST DUP2 DUP9 ADD MSTORE PUSH1 0x40 DUP4 DUP2 ADD CALLDATALOAD DUP4 DUP2 GT ISZERO PUSH2 0x1B73 JUMPI PUSH1 0x0 DUP1 DUP2 REVERT JUMPDEST SWAP4 SWAP1 SWAP4 ADD SWAP3 CALLDATASIZE PUSH1 0x1F DUP6 ADD SLT PUSH2 0x1B8A JUMPI PUSH1 0x0 SWAP3 POP DUP3 DUP4 REVERT JUMPDEST DUP4 CALLDATALOAD SWAP3 POP PUSH2 0x1B9A PUSH2 0x1ADA DUP5 PUSH2 0x1AA8 JUMP JUMPDEST DUP4 DUP2 MSTORE SWAP3 DUP8 SHL DUP5 ADD DUP9 ADD SWAP3 DUP9 DUP2 ADD SWAP1 CALLDATASIZE DUP6 GT ISZERO PUSH2 0x1BB7 JUMPI PUSH1 0x0 DUP1 DUP2 REVERT JUMPDEST SWAP5 DUP10 ADD SWAP5 JUMPDEST DUP5 DUP7 LT ISZERO PUSH2 0x1BEC JUMPI DUP6 CALLDATALOAD PUSH1 0x1 PUSH1 0x1 PUSH1 0xE0 SHL SUB NOT DUP2 AND DUP2 EQ PUSH2 0x1BDD JUMPI PUSH1 0x0 DUP1 DUP2 REVERT JUMPDEST DUP3 MSTORE SWAP5 DUP10 ADD SWAP5 SWAP1 DUP10 ADD SWAP1 PUSH2 0x1BBC JUMP JUMPDEST SWAP2 DUP4 ADD SWAP2 SWAP1 SWAP2 MSTORE POP DUP9 MSTORE POP POP SWAP5 DUP4 ADD SWAP5 DUP4 ADD PUSH2 0x1AFF JUMP JUMPDEST POP SWAP3 SWAP8 SWAP7 POP POP POP POP POP POP POP JUMP JUMPDEST PUSH1 0x20 DUP1 DUP3 MSTORE PUSH1 0x26 SWAP1 DUP3 ADD MSTORE PUSH32 0x4C69624469616D6F6E643A204E6F20757067726164652070726F706F73616C20 PUSH1 0x40 DUP3 ADD MSTORE PUSH6 0x657869737473 PUSH1 0xD0 SHL PUSH1 0x60 DUP3 ADD MSTORE PUSH1 0x80 ADD SWAP1 JUMP JUMPDEST PUSH4 0x4E487B71 PUSH1 0xE0 SHL PUSH1 0x0 MSTORE PUSH1 0x32 PUSH1 0x4 MSTORE PUSH1 0x24 PUSH1 0x0 REVERT JUMPDEST PUSH4 0x4E487B71 PUSH1 0xE0 SHL PUSH1 0x0 MSTORE PUSH1 0x11 PUSH1 0x4 MSTORE PUSH1 0x24 PUSH1 0x0 REVERT JUMPDEST PUSH1 0x0 PUSH1 0x1 DUP3 ADD PUSH2 0x1C94 JUMPI PUSH2 0x1C94 PUSH2 0x1C6C JUMP JUMPDEST POP PUSH1 0x1 ADD SWAP1 JUMP JUMPDEST PUSH4 0x4E487B71 PUSH1 0xE0 SHL PUSH1 0x0 MSTORE PUSH1 0x21 PUSH1 0x4 MSTORE PUSH1 0x24 PUSH1 0x0 REVERT JUMPDEST PUSH1 0x1 DUP2 DUP2 SHR SWAP1 DUP3 AND DUP1 PUSH2 0x1CC5 JUMPI PUSH1 0x7F DUP3 AND SWAP2 POP JUMPDEST PUSH1 0x20 DUP3 LT DUP2 SUB PUSH2 0x1CE5 JUMPI PUSH4 0x4E487B71 PUSH1 0xE0 SHL PUSH1 0x0 MSTORE PUSH1 0x22 PUSH1 0x4 MSTORE PUSH1 0x24 PUSH1 0x0 REVERT JUMPDEST POP SWAP2 SWAP1 POP JUMP JUMPDEST PUSH1 0x1F DUP3 GT ISZERO PUSH2 0xD31 JUMPI PUSH1 0x0 DUP2 DUP2 MSTORE PUSH1 0x20 DUP2 KECCAK256 PUSH1 0x1F DUP6 ADD PUSH1 0x5 SHR DUP2 ADD PUSH1 0x20 DUP7 LT ISZERO PUSH2 0x1D12 JUMPI POP DUP1 JUMPDEST PUSH1 0x1F DUP6 ADD PUSH1 0x5 SHR DUP3 ADD SWAP2 POP JUMPDEST DUP2 DUP2 LT ISZERO PUSH2 0x1D31 JUMPI DUP3 DUP2 SSTORE PUSH1 0x1 ADD PUSH2 0x1D1E JUMP JUMPDEST POP POP POP POP POP POP JUMP JUMPDEST DUP2 MLOAD PUSH8 0xFFFFFFFFFFFFFFFF DUP2 GT ISZERO PUSH2 0x1D53 JUMPI PUSH2 0x1D53 PUSH2 0x1A38 JUMP JUMPDEST PUSH2 0x1D67 DUP2 PUSH2 0x1D61 DUP5 SLOAD PUSH2 0x1CB1 JUMP JUMPDEST DUP5 PUSH2 0x1CEB JUMP JUMPDEST PUSH1 0x20 DUP1 PUSH1 0x1F DUP4 GT PUSH1 0x1 DUP2 EQ PUSH2 0x1D9C JUMPI PUSH1 0x0 DUP5 ISZERO PUSH2 0x1D84 JUMPI POP DUP6 DUP4 ADD MLOAD JUMPDEST PUSH1 0x0 NOT PUSH1 0x3 DUP7 SWAP1 SHL SHR NOT AND PUSH1 0x1 DUP6 SWAP1 SHL OR DUP6 SSTORE PUSH2 0x1D31 JUMP JUMPDEST PUSH1 0x0 DUP6 DUP2 MSTORE PUSH1 0x20 DUP2 KECCAK256 PUSH1 0x1F NOT DUP7 AND SWAP2 JUMPDEST DUP3 DUP2 LT ISZERO PUSH2 0x1DCB JUMPI DUP9 DUP7 ADD MLOAD DUP3 SSTORE SWAP5 DUP5 ADD SWAP5 PUSH1 0x1 SWAP1 SWAP2 ADD SWAP1 DUP5 ADD PUSH2 0x1DAC JUMP JUMPDEST POP DUP6 DUP3 LT ISZERO PUSH2 0x1DE9 JUMPI DUP8 DUP6 ADD MLOAD PUSH1 0x0 NOT PUSH1 0x3 DUP9 SWAP1 SHL PUSH1 0xF8 AND SHR NOT AND DUP2 SSTORE JUMPDEST POP POP POP POP POP PUSH1 0x1 SWAP1 DUP2 SHL ADD SWAP1 SSTORE POP JUMP JUMPDEST DUP1 DUP3 ADD DUP1 DUP3 GT ISZERO PUSH2 0x1E0C JUMPI PUSH2 0x1E0C PUSH2 0x1C6C JUMP JUMPDEST SWAP3 SWAP2 POP POP JUMP JUMPDEST PUSH1 0x0 JUMPDEST DUP4 DUP2 LT ISZERO PUSH2 0x1E2D JUMPI DUP2 DUP2 ADD MLOAD DUP4 DUP3 ADD MSTORE PUSH1 0x20 ADD PUSH2 0x1E15 JUMP JUMPDEST POP POP PUSH1 0x0 SWAP2 ADD MSTORE JUMP JUMPDEST PUSH1 0x0 DUP2 MLOAD DUP1 DUP5 MSTORE PUSH2 0x1E4E DUP2 PUSH1 0x20 DUP7 ADD PUSH1 0x20 DUP7 ADD PUSH2 0x1E12 JUMP JUMPDEST PUSH1 0x1F ADD PUSH1 0x1F NOT AND SWAP3 SWAP1 SWAP3 ADD PUSH1 0x20 ADD SWAP3 SWAP2 POP POP JUMP JUMPDEST PUSH1 0x0 PUSH1 0x60 DUP1 DUP4 ADD DUP2 DUP5 MSTORE DUP1 DUP8 MLOAD DUP1 DUP4 MSTORE PUSH1 0x80 SWAP3 POP DUP3 DUP7 ADD SWAP2 POP DUP3 DUP2 PUSH1 0x5 SHL DUP8 ADD ADD PUSH1 0x20 DUP1 DUP12 ADD PUSH1 0x0 JUMPDEST DUP5 DUP2 LT ISZERO PUSH2 0x1F32 JUMPI DUP10 DUP5 SUB PUSH1 0x7F NOT ADD DUP7 MSTORE DUP2 MLOAD DUP1 MLOAD PUSH1 0x1 PUSH1 0x1 PUSH1 0xA0 SHL SUB AND DUP6 MSTORE DUP4 DUP2 ADD MLOAD DUP10 DUP7 ADD SWAP1 PUSH1 0x3 DUP2 LT PUSH2 0x1ED1 JUMPI PUSH4 0x4E487B71 PUSH1 0xE0 SHL PUSH1 0x0 MSTORE PUSH1 0x21 PUSH1 0x4 MSTORE PUSH1 0x24 PUSH1 0x0 REVERT JUMPDEST DUP7 DUP7 ADD MSTORE PUSH1 0x40 SWAP2 DUP3 ADD MLOAD SWAP2 DUP7 ADD DUP11 SWAP1 MSTORE DUP2 MLOAD SWAP1 DUP2 SWAP1 MSTORE SWAP1 DUP5 ADD SWAP1 PUSH1 0x0 SWAP1 DUP10 DUP8 ADD SWAP1 JUMPDEST DUP1 DUP4 LT ISZERO PUSH2 0x1F1D JUMPI DUP4 MLOAD PUSH1 0x1 PUSH1 0x1 PUSH1 0xE0 SHL SUB NOT AND DUP3 MSTORE SWAP3 DUP7 ADD SWAP3 PUSH1 0x1 SWAP3 SWAP1 SWAP3 ADD SWAP2 SWAP1 DUP7 ADD SWAP1 PUSH2 0x1EF3 JUMP JUMPDEST POP SWAP8 DUP6 ADD SWAP8 SWAP6 POP POP POP SWAP1 DUP3 ADD SWAP1 PUSH1 0x1 ADD PUSH2 0x1E8B JUMP JUMPDEST POP POP PUSH1 0x1 PUSH1 0x1 PUSH1 0xA0 SHL SUB DUP11 AND SWAP1 DUP9 ADD MSTORE DUP7 DUP2 SUB PUSH1 0x40 DUP9 ADD MSTORE PUSH2 0x1F54 DUP2 DUP10 PUSH2 0x1E36 JUMP JUMPDEST SWAP11 SWAP10 POP POP POP POP POP POP POP POP POP POP JUMP JUMPDEST PUSH1 0x20 DUP1 DUP3 MSTORE PUSH1 0x2B SWAP1 DUP3 ADD MSTORE PUSH32 0x4C69624469616D6F6E644375743A204E6F2073656C6563746F727320696E2066 PUSH1 0x40 DUP3 ADD MSTORE PUSH11 0x1858D95D081D1BC818DD5D PUSH1 0xAA SHL PUSH1 0x60 DUP3 ADD MSTORE PUSH1 0x80 ADD SWAP1 JUMP JUMPDEST PUSH1 0x20 DUP1 DUP3 MSTORE PUSH1 0x2C SWAP1 DUP3 ADD MSTORE PUSH32 0x4C69624469616D6F6E644375743A204164642066616365742063616E27742062 PUSH1 0x40 DUP3 ADD MSTORE PUSH12 0x652061646472657373283029 PUSH1 0xA0 SHL PUSH1 0x60 DUP3 ADD MSTORE PUSH1 0x80 ADD SWAP1 JUMP JUMPDEST PUSH1 0x0 PUSH1 0x1 PUSH1 0x1 PUSH1 0x60 SHL SUB DUP1 DUP4 AND DUP2 DUP2 SUB PUSH2 0x2015 JUMPI PUSH2 0x2015 PUSH2 0x1C6C JUMP JUMPDEST PUSH1 0x1 ADD SWAP4 SWAP3 POP POP POP JUMP JUMPDEST PUSH1 0x0 DUP3 MLOAD PUSH2 0x2031 DUP2 DUP5 PUSH1 0x20 DUP8 ADD PUSH2 0x1E12 JUMP JUMPDEST SWAP2 SWAP1 SWAP2 ADD SWAP3 SWAP2 POP POP JUMP JUMPDEST PUSH1 0x20 DUP2 MSTORE PUSH1 0x0 PUSH2 0x204E PUSH1 0x20 DUP4 ADD DUP5 PUSH2 0x1E36 JUMP JUMPDEST SWAP4 SWAP3 POP POP POP JUMP JUMPDEST DUP2 DUP2 SUB DUP2 DUP2 GT ISZERO PUSH2 0x1E0C JUMPI PUSH2 0x1E0C PUSH2 0x1C6C JUMP JUMPDEST PUSH4 0x4E487B71 PUSH1 0xE0 SHL PUSH1 0x0 MSTORE PUSH1 0x31 PUSH1 0x4 MSTORE PUSH1 0x24 PUSH1 0x0 REVERT INVALID 0xC8 0xFC 0xAD DUP14 0xB8 0x4D EXTCODECOPY 0xC1 DUP12 0x4C COINBASE 0xD5 MLOAD 0xEA 0xE 0xE6 PUSH14 0xD599CDE068D998E57D5E09332C13 SHR 0x4C PUSH10 0x624469616D6F6E644375 PUSH21 0x3A205F696E6974206164647265737320686173206E PUSH16 0x20636F64654C69624469616D6F6E6443 PUSH22 0x743A204E657720666163657420686173206E6F20636F PUSH5 0x65A2646970 PUSH7 0x735822122092D8 PUSH6 0xD88FEC14BB22 0x5C 0x1F BALANCE REVERT AND PUSH28 0x832C06056F0F4779A70E2A9569F0778F5D64736F6C63430008140033 "},"gasEstimates":{"creation":{"codeDepositCost":"1696000","executionCost":"1778","totalCost":"1697778"},"external":{"cancelDiamondCut()":"infinite","diamondCut((address,uint8,bytes4[])[],address,bytes)":"863","executeDiamondCut()":"infinite","proposeDiamondCut((address,uint8,bytes4[])[],address,bytes)":"infinite"}},"methodIdentifiers":{"cancelDiamondCut()":"6fb05998","diamondCut((address,uint8,bytes4[])[],address,bytes)":"1f931c1c","executeDiamondCut()":"f37a5da0","proposeDiamondCut((address,uint8,bytes4[])[],address,bytes)":"bbf2358e"}},"storageLayout":{"storage":[],"types":null},"userdoc":{"kind":"user","methods":{"cancelDiamondCut()":{"notice":"Cancel a previously proposed diamond cut"},"diamondCut((address,uint8,bytes4[])[],address,bytes)":{"notice":"Add/replace/remove any number of functions and optionally execute initialization code"},"executeDiamondCut()":{"notice":"Execute a previously proposed diamond cut after the timelock period has elapsed"},"proposeDiamondCut((address,uint8,bytes4[])[],address,bytes)":{"notice":"Propose a diamond cut to be executed after the timelock period"}},"version":1}}}}