{"contracts/facets/CounterFacet.sol":{"CounterFacet":{"abi":[{"anonymous":false,"inputs":[{"indexed":true,"internalType":"address","name":"user","type":"address"},{"indexed":false,"internalType":"uint256","name":"newValue","type":"uint256"}],"name":"CounterDecremented","type":"event"},{"anonymous":false,"inputs":[{"indexed":true,"internalType":"address","name":"user","type":"address"},{"indexed":false,"internalType":"uint256","name":"newValue","type":"uint256"}],"name":"CounterIncremented","type":"event"},{"anonymous":false,"inputs":[{"indexed":true,"internalType":"address","name":"user","type":"address"},{"indexed":false,"internalType":"uint256","name":"previousValue","type":"uint256"}],"name":"CounterReset","type":"event"},{"anonymous":false,"inputs":[{"indexed":true,"internalType":"address","name":"user","type":"address"},{"indexed":false,"internalType":"uint256","name":"newValue","type":"uint256"}],"name":"UserCounterUpdated","type":"event"},{"inputs":[],"name":"decrement","outputs":[],"stateMutability":"nonpayable","type":"function"},{"inputs":[],"name":"getCounter","outputs":[{"internalType":"uint256","name":"","type":"uint256"}],"stateMutability":"view","type":"function"},{"inputs":[],"name":"getCounterMetadata","outputs":[{"internalType":"address","name":"lastUpdater","type":"address"},{"internalType":"uint256","name":"lastUpdateTimestamp","type":"uint256"}],"stateMutability":"view","type":"function"},{"inputs":[{"internalType":"address","name":"user","type":"address"}],"name":"getUserCounter","outputs":[{"internalType":"uint256","name":"","type":"uint256"}],"stateMutability":"view","type":"function"},{"inputs":[],"name":"increment","outputs":[],"stateMutability":"nonpayable","type":"function"},{"inputs":[],"name":"incrementUserCounter","outputs":[],"stateMutability":"nonpayable","type":"function"},{"inputs":[],"name":"resetCounter","outputs":[],"stateMutability":"nonpayable","type":"function"},{"inputs":[{"internalType":"uint256","name":"value","type":"uint256"}],"name":"setUserCounter","outputs":[],"stateMutability":"nonpayable","type":"function"},{"inputs":[{"internalType":"address","name":"user","type":"address"},{"internalType":"uint256","name":"value","type":"uint256"}],"name":"setUserCounterAsOwner","outputs":[],"stateMutability":"nonpayable","type":"function"}],"devdoc":{"details":"A sample facet that demonstrates basic diamond functionality with a simple counter      This facet provides increment, decrement, and view operations for a counter value      stored in diamond storage. It serves as an example of how to implement business      logic in a diamond facet while using the diamond storage pattern.","kind":"dev","methods":{"decrement()":{"details":"Decreases the global counter and updates metadata      Reverts if counter would go below zero"},"getCounter()":{"returns":{"_0":"The current counter value"}},"getCounterMetadata()":{"returns":{"lastUpdateTimestamp":"Timestamp of the last update","lastUpdater":"Address of the last user to update the counter"}},"getUserCounter(address)":{"params":{"user":"The address of the user"},"returns":{"_0":"The user's counter value"}},"increment()":{"details":"Increases the global counter and updates metadata"},"incrementUserCounter()":{"details":"Each user has their own counter independent of the global one"},"resetCounter()":{"details":"Only the diamond owner can reset the counter"},"setUserCounter(uint256)":{"details":"Only the user themselves or the diamond owner can set their counter","params":{"value":"The new counter value"}},"setUserCounterAsOwner(address,uint256)":{"details":"Only the diamond owner can set other users' counters","params":{"user":"The user whose counter to set","value":"The new counter value"}}},"title":"CounterFacet","version":1},"evm":{"bytecode":{"linkReferences":{},"object":"608060405234801561001057600080fd5b506106dd806100206000396000f3fe608060405234801561001057600080fd5b50600436106100935760003560e01c80638ada066e116100665780638ada066e14610106578063aaa089141461011b578063d09de08a1461012e578063dbdf7fce14610136578063e1aad65b1461013e57600080fd5b806316cb1bc7146100985780632baeceb7146100e157806338c6a5c4146100eb5780638806a32f146100fe575b600080fd5b6100ce6100a63660046105c0565b6001600160a01b03166000908152600080516020610688833981519152602052604090205490565b6040519081526020015b60405180910390f35b6100e96101b2565b005b6100e96100f93660046105e2565b610297565b6100e9610300565b600080516020610668833981519152546100ce565b6100e96101293660046105fb565b610385565b6100e96103ff565b6100e9610477565b6101937fb7b015d605ece0e8fe533fe842b448ce2b6465e6d573f424dd3872fbf1824257547fb7b015d605ece0e8fe533fe842b448ce2b6465e6d573f424dd3872fbf1824258546001600160a01b0390911691565b604080516001600160a01b0390931683526020830191909152016100d8565b60008051602061066883398151915280546102275760405162461bcd60e51b815260206004820152602a60248201527f436f756e74657246616365743a20436f756e7465722063616e6e6f7420676f2060448201526962656c6f77207a65726f60b01b60648201526084015b60405180910390fd5b600181600001600082825461023c919061063b565b90915550506001810180546001600160a01b0319163390811790915542600283015581546040519081527f9cdaca08b82c2d66f0eb8c0ca62ab7a1e1da2238c2edd03b19e1accc9e806d6a906020015b60405180910390a250565b3360008181526000805160206106888339815191526020908152604091829020849055905183815260008051602061066883398151915292917feb7bf040c0984f14f21d0089c5ef66e5b6f076260cb92ab3195cc4bb1c1cd8f791015b60405180910390a25050565b336000908152600080516020610688833981519152602052604081208054600080516020610668833981519152926001929161033d908490610654565b90915550503360008181526003830160209081526040918290205491519182527feb7bf040c0984f14f21d0089c5ef66e5b6f076260cb92ab3195cc4bb1c1cd8f7910161028c565b61038d61051b565b6001600160a01b03821660008181526000805160206106888339815191526020908152604091829020849055905183815260008051602061066883398151915292917feb7bf040c0984f14f21d0089c5ef66e5b6f076260cb92ab3195cc4bb1c1cd8f7910160405180910390a2505050565b60008051602061066883398151915280546001908290600090610423908490610654565b90915550506001810180546001600160a01b0319163390811790915542600283015581546040519081527f59950fb23669ee30425f6d79758e75fae698a6c88b2982f2980638d8bcd9397d9060200161028c565b61047f61051b565b6000805160206106688339815191528054600082557fb7b015d605ece0e8fe533fe842b448ce2b6465e6d573f424dd3872fbf182425780546001600160a01b03191633908117909155427fb7b015d605ece0e8fe533fe842b448ce2b6465e6d573f424dd3872fbf1824258556040518281527f0c4f92d0724fb3d16c74d6fd66f78fe790dbfb5849f7691e9931db60bb64aad4906020016102f4565b7fc8fcad8db84d3cc18b4c41d551ea0ee66dd599cde068d998e57d5e09332c131c600401546001600160a01b031633146105a25760405162461bcd60e51b815260206004820152602260248201527f4c69624469616d6f6e643a204d75737420626520636f6e7472616374206f776e60448201526132b960f11b606482015260840161021e565b565b80356001600160a01b03811681146105bb57600080fd5b919050565b6000602082840312156105d257600080fd5b6105db826105a4565b9392505050565b6000602082840312156105f457600080fd5b5035919050565b6000806040838503121561060e57600080fd5b610617836105a4565b946020939093013593505050565b634e487b7160e01b600052601160045260246000fd5b8181038181111561064e5761064e610625565b92915050565b8082018082111561064e5761064e61062556feb7b015d605ece0e8fe533fe842b448ce2b6465e6d573f424dd3872fbf1824256b7b015d605ece0e8fe533fe842b448ce2b6465e6d573f424dd3872fbf1824259a26469706673582212209ceef76383b7a0da42240da3ea0b699487c28288f3d3bab802619cc4e79239e564736f6c63430008140033","opcodes":"PUSH1 0x80 PUSH1 0x40 MSTORE CALLVALUE DUP1 ISZERO PUSH2 0x10 JUMPI PUSH1 0x0 DUP1 REVERT JUMPDEST POP PUSH2 0x6DD DUP1 PUSH2 0x20 PUSH1 0x0 CODECOPY PUSH1 0x0 RETURN INVALID PUSH1 0x80 PUSH1 0x40 MSTORE CALLVALUE DUP1 ISZERO PUSH2 0x10 JUMPI PUSH1 0x0 DUP1 REVERT JUMPDEST POP PUSH1 0x4 CALLDATASIZE LT PUSH2 0x93 JUMPI PUSH1 0x0 CALLDATALOAD PUSH1 0xE0 SHR DUP1 PUSH4 0x8ADA066E GT PUSH2 0x66 JUMPI DUP1 PUSH4 0x8ADA066E EQ PUSH2 0x106 JUMPI DUP1 PUSH4 0xAAA08914 EQ PUSH2 0x11B JUMPI DUP1 PUSH4 0xD09DE08A EQ PUSH2 0x12E JUMPI DUP1 PUSH4 0xDBDF7FCE EQ PUSH2 0x136 JUMPI DUP1 PUSH4 0xE1AAD65B EQ PUSH2 0x13E JUMPI PUSH1 0x0 DUP1 REVERT JUMPDEST DUP1 PUSH4 0x16CB1BC7 EQ PUSH2 0x98 JUMPI DUP1 PUSH4 0x2BAECEB7 EQ PUSH2 0xE1 JUMPI DUP1 PUSH4 0x38C6A5C4 EQ PUSH2 0xEB JUMPI DUP1 PUSH4 0x8806A32F EQ PUSH2 0xFE JUMPI JUMPDEST PUSH1 0x0 DUP1 REVERT JUMPDEST PUSH2 0xCE PUSH2 0xA6 CALLDATASIZE PUSH1 0x4 PUSH2 0x5C0 JUMP JUMPDEST PUSH1 0x1 PUSH1 0x1 PUSH1 0xA0 SHL SUB AND PUSH1 0x0 SWAP1 DUP2 MSTORE PUSH1 0x0 DUP1 MLOAD PUSH1 0x20 PUSH2 0x688 DUP4 CODECOPY DUP2 MLOAD SWAP2 MSTORE PUSH1 0x20 MSTORE PUSH1 0x40 SWAP1 KECCAK256 SLOAD SWAP1 JUMP JUMPDEST PUSH1 0x40 MLOAD SWAP1 DUP2 MSTORE PUSH1 0x20 ADD JUMPDEST PUSH1 0x40 MLOAD DUP1 SWAP2 SUB SWAP1 RETURN JUMPDEST PUSH2 0xE9 PUSH2 0x1B2 JUMP JUMPDEST STOP JUMPDEST PUSH2 0xE9 PUSH2 0xF9 CALLDATASIZE PUSH1 0x4 PUSH2 0x5E2 JUMP JUMPDEST PUSH2 0x297 JUMP JUMPDEST PUSH2 0xE9 PUSH2 0x300 JUMP JUMPDEST PUSH1 0x0 DUP1 MLOAD PUSH1 0x20 PUSH2 0x668 DUP4 CODECOPY DUP2 MLOAD SWAP2 MSTORE SLOAD PUSH2 0xCE JUMP JUMPDEST PUSH2 0xE9 PUSH2 0x129 CALLDATASIZE PUSH1 0x4 PUSH2 0x5FB JUMP JUMPDEST PUSH2 0x385 JUMP JUMPDEST PUSH2 0xE9 PUSH2 0x3FF JUMP JUMPDEST PUSH2 0xE9 PUSH2 0x477 JUMP JUMPDEST PUSH2 0x193 PUSH32 0xB7B015D605ECE0E8FE533FE842B448CE2B6465E6D573F424DD3872FBF1824257 SLOAD PUSH32 0xB7B015D605ECE0E8FE533FE842B448CE2B6465E6D573F424DD3872FBF1824258 SLOAD PUSH1 0x1 PUSH1 0x1 PUSH1 0xA0 SHL SUB SWAP1 SWAP2 AND SWAP2 JUMP JUMPDEST PUSH1 0x40 DUP1 MLOAD PUSH1 0x1 PUSH1 0x1 PUSH1 0xA0 SHL SUB SWAP1 SWAP4 AND DUP4 MSTORE PUSH1 0x20 DUP4 ADD SWAP2 SWAP1 SWAP2 MSTORE ADD PUSH2 0xD8 JUMP JUMPDEST PUSH1 0x0 DUP1 MLOAD PUSH1 0x20 PUSH2 0x668 DUP4 CODECOPY DUP2 MLOAD SWAP2 MSTORE DUP1 SLOAD PUSH2 0x227 JUMPI PUSH1 0x40 MLOAD PUSH3 0x461BCD PUSH1 0xE5 SHL DUP2 MSTORE PUSH1 0x20 PUSH1 0x4 DUP3 ADD MSTORE PUSH1 0x2A PUSH1 0x24 DUP3 ADD MSTORE PUSH32 0x436F756E74657246616365743A20436F756E7465722063616E6E6F7420676F20 PUSH1 0x44 DUP3 ADD MSTORE PUSH10 0x62656C6F77207A65726F PUSH1 0xB0 SHL PUSH1 0x64 DUP3 ADD MSTORE PUSH1 0x84 ADD JUMPDEST PUSH1 0x40 MLOAD DUP1 SWAP2 SUB SWAP1 REVERT JUMPDEST PUSH1 0x1 DUP2 PUSH1 0x0 ADD PUSH1 0x0 DUP3 DUP3 SLOAD PUSH2 0x23C SWAP2 SWAP1 PUSH2 0x63B JUMP JUMPDEST SWAP1 SWAP2 SSTORE POP POP PUSH1 0x1 DUP2 ADD DUP1 SLOAD PUSH1 0x1 PUSH1 0x1 PUSH1 0xA0 SHL SUB NOT AND CALLER SWAP1 DUP2 OR SWAP1 SWAP2 SSTORE TIMESTAMP PUSH1 0x2 DUP4 ADD SSTORE DUP2 SLOAD PUSH1 0x40 MLOAD SWAP1 DUP2 MSTORE PUSH32 0x9CDACA08B82C2D66F0EB8C0CA62AB7A1E1DA2238C2EDD03B19E1ACCC9E806D6A SWAP1 PUSH1 0x20 ADD JUMPDEST PUSH1 0x40 MLOAD DUP1 SWAP2 SUB SWAP1 LOG2 POP JUMP JUMPDEST CALLER PUSH1 0x0 DUP2 DUP2 MSTORE PUSH1 0x0 DUP1 MLOAD PUSH1 0x20 PUSH2 0x688 DUP4 CODECOPY DUP2 MLOAD SWAP2 MSTORE PUSH1 0x20 SWAP1 DUP2 MSTORE PUSH1 0x40 SWAP2 DUP3 SWAP1 KECCAK256 DUP5 SWAP1 SSTORE SWAP1 MLOAD DUP4 DUP2 MSTORE PUSH1 0x0 DUP1 MLOAD PUSH1 0x20 PUSH2 0x668 DUP4 CODECOPY DUP2 MLOAD SWAP2 MSTORE SWAP3 SWAP2 PUSH32 0xEB7BF040C0984F14F21D0089C5EF66E5B6F076260CB92AB3195CC4BB1C1CD8F7 SWAP2 ADD JUMPDEST PUSH1 0x40 MLOAD DUP1 SWAP2 SUB SWAP1 LOG2 POP POP JUMP JUMPDEST CALLER PUSH1 0x0 SWAP1 DUP2 MSTORE PUSH1 0x0 DUP1 MLOAD PUSH1 0x20 PUSH2 0x688 DUP4 CODECOPY DUP2 MLOAD SWAP2 MSTORE PUSH1 0x20 MSTORE PUSH1 0x40 DUP2 KECCAK256 DUP1 SLOAD PUSH1 0x0 DUP1 MLOAD PUSH1 0x20 PUSH2 0x668 DUP4 CODECOPY DUP2 MLOAD SWAP2 MSTORE SWAP3 PUSH1 0x1 SWAP3 SWAP2 PUSH2 0x33D SWAP1 DUP5 SWAP1 PUSH2 0x654 JUMP JUMPDEST SWAP1 SWAP2 SSTORE POP POP CALLER PUSH1 0x0 DUP2 DUP2 MSTORE PUSH1 0x3 DUP4 ADD PUSH1 0x20 SWAP1 DUP2 MSTORE PUSH1 0x40 SWAP2 DUP3 SWAP1 KECCAK256 SLOAD SWAP2 MLOAD SWAP2 DUP3 MSTORE PUSH32 0xEB7BF040C0984F14F21D0089C5EF66E5B6F076260CB92AB3195CC4BB1C1CD8F7 SWAP2 ADD PUSH2 0x28C JUMP JUMPDEST PUSH2 0x38D PUSH2 0x51B JUMP JUMPDEST PUSH1 0x1 PUSH1 0x1 PUSH1 0xA0 SHL SUB DUP3 AND PUSH1 0x0 DUP2 DUP2 MSTORE PUSH1 0x0 DUP1 MLOAD PUSH1 0x20 PUSH2 0x688 DUP4 CODECOPY DUP2 MLOAD SWAP2 MSTORE PUSH1 0x20 SWAP1 DUP2 MSTORE PUSH1 0x40 SWAP2 DUP3 SWAP1 KECCAK256 DUP5 SWAP1 SSTORE SWAP1 MLOAD DUP4 DUP2 MSTORE PUSH1 0x0 DUP1 MLOAD PUSH1 0x20 PUSH2 0x668 DUP4 CODECOPY DUP2 MLOAD SWAP2 MSTORE SWAP3 SWAP2 PUSH32 0xEB7BF040C0984F14F21D0089C5EF66E5B6F076260CB92AB3195CC4BB1C1CD8F7 SWAP2 ADD PUSH1 0x40 MLOAD DUP1 SWAP2 SUB SWAP1 LOG2 POP POP POP JUMP JUMPDEST PUSH1 0x0 DUP1 MLOAD PUSH1 0x20 PUSH2 0x668 DUP4 CODECOPY DUP2 MLOAD SWAP2 MSTORE DUP1 SLOAD PUSH1 0x1 SWAP1 DUP3 SWAP1 PUSH1 0x0 SWAP1 PUSH2 0x423 SWAP1 DUP5 SWAP1 PUSH2 0x654 JUMP JUMPDEST SWAP1 SWAP2 SSTORE POP POP PUSH1 0x1 DUP2 ADD DUP1 SLOAD PUSH1 0x1 PUSH1 0x1 PUSH1 0xA0 SHL SUB NOT AND CALLER SWAP1 DUP2 OR SWAP1 SWAP2 SSTORE TIMESTAMP PUSH1 0x2 DUP4 ADD SSTORE DUP2 SLOAD PUSH1 0x40 MLOAD SWAP1 DUP2 MSTORE PUSH32 0x59950FB23669EE30425F6D79758E75FAE698A6C88B2982F2980638D8BCD9397D SWAP1 PUSH1 0x20 ADD PUSH2 0x28C JUMP JUMPDEST PUSH2 0x47F PUSH2 0x51B JUMP JUMPDEST PUSH1 0x0 DUP1 MLOAD PUSH1 0x20 PUSH2 0x668 DUP4 CODECOPY DUP2 MLOAD SWAP2 MSTORE DUP1 SLOAD PUSH1 0x0 DUP3 SSTORE PUSH32 0xB7B015D605ECE0E8FE533FE842B448CE2B6465E6D573F424DD3872FBF1824257 DUP1 SLOAD PUSH1 0x1 PUSH1 0x1 PUSH1 0xA0 SHL SUB NOT AND CALLER SWAP1 DUP2 OR SWAP1 SWAP2 SSTORE TIMESTAMP PUSH32 0xB7B015D605ECE0E8FE533FE842B448CE2B6465E6D573F424DD3872FBF1824258 SSTORE PUSH1 0x40 MLOAD DUP3 DUP2 MSTORE PUSH32 0xC4F92D0724FB3D16C74D6FD66F78FE790DBFB5849F7691E9931DB60BB64AAD4 SWAP1 PUSH1 0x20 ADD PUSH2 0x2F4 JUMP JUMPDEST PUSH32 0xC8FCAD8DB84D3CC18B4C41D551EA0EE66DD599CDE068D998E57D5E09332C131C PUSH1 0x4 ADD SLOAD PUSH1 0x1 PUSH1 0x1 PUSH1 0xA0 SHL SUB AND CALLER EQ PUSH2 0x5A2 JUMPI PUSH1 0x40 MLOAD PUSH3 0x461BCD PUSH1 0xE5 SHL DUP2 MSTORE PUSH1 0x20 PUSH1 0x4 DUP3 ADD MSTORE PUSH1 0x22 PUSH1 0x24 DUP3 ADD MSTORE PUSH32 0x4C69624469616D6F6E643A204D75737420626520636F6E7472616374206F776E PUSH1 0x44 DUP3 ADD MSTORE PUSH2 0x32B9 PUSH1 0xF1 SHL PUSH1 0x64 DUP3 ADD MSTORE PUSH1 0x84 ADD PUSH2 0x21E JUMP JUMPDEST JUMP JUMPDEST DUP1 CALLDATALOAD PUSH1 0x1 PUSH1 0x1 PUSH1 0xA0 SHL SUB DUP2 AND DUP2 EQ PUSH2 0x5BB JUMPI PUSH1 0x0 DUP1 REVERT JUMPDEST SWAP2 SWAP1 POP JUMP JUMPDEST PUSH1 0x0 PUSH1 0x20 DUP3 DUP5 SUB SLT ISZERO PUSH2 0x5D2 JUMPI PUSH1 0x0 DUP1 REVERT JUMPDEST PUSH2 0x5DB DUP3 PUSH2 0x5A4 JUMP JUMPDEST SWAP4 SWAP3 POP POP POP JUMP JUMPDEST PUSH1 0x0 PUSH1 0x20 DUP3 DUP5 SUB SLT ISZERO PUSH2 0x5F4 JUMPI PUSH1 0x0 DUP1 REVERT JUMPDEST POP CALLDATALOAD SWAP2 SWAP1 POP JUMP JUMPDEST PUSH1 0x0 DUP1 PUSH1 0x40 DUP4 DUP6 SUB SLT ISZERO PUSH2 0x60E JUMPI PUSH1 0x0 DUP1 REVERT JUMPDEST PUSH2 0x617 DUP4 PUSH2 0x5A4 JUMP JUMPDEST SWAP5 PUSH1 0x20 SWAP4 SWAP1 SWAP4 ADD CALLDATALOAD SWAP4 POP POP POP JUMP JUMPDEST PUSH4 0x4E487B71 PUSH1 0xE0 SHL PUSH1 0x0 MSTORE PUSH1 0x11 PUSH1 0x4 MSTORE PUSH1 0x24 PUSH1 0x0 REVERT JUMPDEST DUP2 DUP2 SUB DUP2 DUP2 GT ISZERO PUSH2 0x64E JUMPI PUSH2 0x64E PUSH2 0x625 JUMP JUMPDEST SWAP3 SWAP2 POP POP JUMP JUMPDEST DUP1 DUP3 ADD DUP1 DUP3 GT ISZERO PUSH2 0x64E JUMPI PUSH2 0x64E PUSH2 0x625 JUMP INVALID 0xB7 0xB0 ISZERO 0xD6 SDIV 0xEC 0xE0 0xE8 INVALID MSTORE8 EXTCODEHASH 0xE8 TIMESTAMP 0xB4 BASEFEE 0xCE 0x2B PUSH5 0x65E6D573F4 0x24 0xDD CODESIZE PUSH19 0xFBF1824256B7B015D605ECE0E8FE533FE842B4 BASEFEE 0xCE 0x2B PUSH5 0x65E6D573F4 0x24 0xDD CODESIZE PUSH19 0xFBF1824259A26469706673582212209CEEF763 DUP4 0xB7 LOG0 0xDA TIMESTAMP 0x24 0xD LOG3 0xEA SIGNEXTEND PUSH10 0x9487C28288F3D3BAB802 PUSH2 0x9CC4 0xE7 SWAP3 CODECOPY 0xE5 PUSH5 0x736F6C6343 STOP ADDMOD EQ STOP CALLER "},"gasEstimates":{"creation":{"codeDepositCost":"351400","executionCost":"386","totalCost":"351786"},"external":{"decrement()":"infinite","getCounter()":"infinite","getCounterMetadata()":"4555","getUserCounter(address)":"infinite","increment()":"infinite","incrementUserCounter()":"infinite","resetCounter()":"infinite","setUserCounter(uint256)":"infinite","setUserCounterAsOwner(address,uint256)":"infinite"},"internal":{"counterStorage()":"infinite"}},"methodIdentifiers":{"decrement()":"2baeceb7","getCounter()":"8ada066e","getCounterMetadata()":"e1aad65b","getUserCounter(address)":"16cb1bc7","increment()":"d09de08a","incrementUserCounter()":"8806a32f","resetCounter()":"dbdf7fce","setUserCounter(uint256)":"38c6a5c4","setUserCounterAsOwner(address,uint256)":"aaa08914"}},"storageLayout":{"storage":[],"types":null},"userdoc":{"kind":"user","methods":{"decrement()":{"notice":"Decrement the global counter by 1"},"getCounter()":{"notice":"Get the current global counter value"},"getCounterMetadata()":{"notice":"Get metadata about the last counter update"},"getUserCounter(address)":{"notice":"Get a user's personal counter value"},"increment()":{"notice":"Increment the global counter by 1"},"incrementUserCounter()":{"notice":"Increment a user's personal counter"},"resetCounter()":{"notice":"Reset the global counter to zero"},"setUserCounter(uint256)":{"notice":"Set a user's counter to a specific value"},"setUserCounterAsOwner(address,uint256)":{"notice":"Set any user's counter (owner only)"}},"version":1}}}}