{
  "_format": "hh-sol-artifact-1",
  "contractName": "DiamondInit",
  "sourceName": "contracts/upgradeInitializers/DiamondInit.sol",
  "abi": [
    {
      "inputs": [],
      "name": "init",
      "outputs": [],
      "stateMutability": "nonpayable",
      "type": "function"
    }
  ],
  "bytecode": "0x6080604052348015600f57600080fd5b50606580601d6000396000f3fe6080604052348015600f57600080fd5b506004361060285760003560e01c8063e1c7392a14602d575b600080fd5b00fea2646970667358221220a975676969b303d0a5dece3030ffb5833e4e4050745c5c934f18f910b4a3a7a964736f6c63430008140033",
  "linkReferences": {},
  "deployedLinkReferences": {}
}