{
  "address": "0x5FC8d32690cc91D4c39d9d3abcBD16989F875707",
  "abi": [
    {
      "anonymous": false,
      "inputs": [
        {
          "indexed": true,
          "internalType": "address",
          "name": "user",
          "type": "address"
        },
        {
          "indexed": false,
          "internalType": "uint256",
          "name": "newValue",
          "type": "uint256"
        }
      ],
      "name": "CounterDecremented",
      "type": "event"
    },
    {
      "anonymous": false,
      "inputs": [
        {
          "indexed": true,
          "internalType": "address",
          "name": "user",
          "type": "address"
        },
        {
          "indexed": false,
          "internalType": "uint256",
          "name": "newValue",
          "type": "uint256"
        }
      ],
      "name": "CounterIncremented",
      "type": "event"
    },
    {
      "anonymous": false,
      "inputs": [
        {
          "indexed": true,
          "internalType": "address",
          "name": "user",
          "type": "address"
        },
        {
          "indexed": false,
          "internalType": "uint256",
          "name": "previousValue",
          "type": "uint256"
        }
      ],
      "name": "CounterReset",
      "type": "event"
    },
    {
      "anonymous": false,
      "inputs": [
        {
          "indexed": true,
          "internalType": "address",
          "name": "user",
          "type": "address"
        },
        {
          "indexed": false,
          "internalType": "uint256",
          "name": "newValue",
          "type": "uint256"
        }
      ],
      "name": "UserCounterUpdated",
      "type": "event"
    },
    {
      "inputs": [],
      "name": "decrement",
      "outputs": [],
      "stateMutability": "nonpayable",
      "type": "function"
    },
    {
      "inputs": [],
      "name": "getCounter",
      "outputs": [
        {
          "internalType": "uint256",
          "name": "",
          "type": "uint256"
        }
      ],
      "stateMutability": "view",
      "type": "function"
    },
    {
      "inputs": [],
      "name": "getCounterMetadata",
      "outputs": [
        {
          "internalType": "address",
          "name": "lastUpdater",
          "type": "address"
        },
        {
          "internalType": "uint256",
          "name": "lastUpdateTimestamp",
          "type": "uint256"
        }
      ],
      "stateMutability": "view",
      "type": "function"
    },
    {
      "inputs": [
        {
          "internalType": "address",
          "name": "user",
          "type": "address"
        }
      ],
      "name": "getUserCounter",
      "outputs": [
        {
          "internalType": "uint256",
          "name": "",
          "type": "uint256"
        }
      ],
      "stateMutability": "view",
      "type": "function"
    },
    {
      "inputs": [],
      "name": "increment",
      "outputs": [],
      "stateMutability": "nonpayable",
      "type": "function"
    },
    {
      "inputs": [],
      "name": "incrementUserCounter",
      "outputs": [],
      "stateMutability": "nonpayable",
      "type": "function"
    },
    {
      "inputs": [],
      "name": "resetCounter",
      "outputs": [],
      "stateMutability": "nonpayable",
      "type": "function"
    },
    {
      "inputs": [
        {
          "internalType": "uint256",
          "name": "value",
          "type": "uint256"
        }
      ],
      "name": "setUserCounter",
      "outputs": [],
      "stateMutability": "nonpayable",
      "type": "function"
    },
    {
      "inputs": [
        {
          "internalType": "address",
          "name": "user",
          "type": "address"
        },
        {
          "internalType": "uint256",
          "name": "value",
          "type": "uint256"
        }
      ],
      "name": "setUserCounterAsOwner",
      "outputs": [],
      "stateMutability": "nonpayable",
      "type": "function"
    }
  ],
  "transactionHash": "0x2b9fafbc3f92373d204fb985c73610c427d50e5513e23a77a194523c0861bd57",
  "args": [],
  "numDeployments": 1,
  "solcInputHash": "b953995d4bdc99a8a1a5a5bbfbdc36f1",
  "bytecode": "0x608060405234801561001057600080fd5b506106dd806100206000396000f3fe608060405234801561001057600080fd5b50600436106100935760003560e01c80638ada066e116100665780638ada066e14610106578063aaa089141461011b578063d09de08a1461012e578063dbdf7fce14610136578063e1aad65b1461013e57600080fd5b806316cb1bc7146100985780632baeceb7146100e157806338c6a5c4146100eb5780638806a32f146100fe575b600080fd5b6100ce6100a63660046105c0565b6001600160a01b03166000908152600080516020610688833981519152602052604090205490565b6040519081526020015b60405180910390f35b6100e96101b2565b005b6100e96100f93660046105e2565b610297565b6100e9610300565b600080516020610668833981519152546100ce565b6100e96101293660046105fb565b610385565b6100e96103ff565b6100e9610477565b6101937fb7b015d605ece0e8fe533fe842b448ce2b6465e6d573f424dd3872fbf1824257547fb7b015d605ece0e8fe533fe842b448ce2b6465e6d573f424dd3872fbf1824258546001600160a01b0390911691565b604080516001600160a01b0390931683526020830191909152016100d8565b60008051602061066883398151915280546102275760405162461bcd60e51b815260206004820152602a60248201527f436f756e74657246616365743a20436f756e7465722063616e6e6f7420676f2060448201526962656c6f77207a65726f60b01b60648201526084015b60405180910390fd5b600181600001600082825461023c919061063b565b90915550506001810180546001600160a01b0319163390811790915542600283015581546040519081527f9cdaca08b82c2d66f0eb8c0ca62ab7a1e1da2238c2edd03b19e1accc9e806d6a906020015b60405180910390a250565b3360008181526000805160206106888339815191526020908152604091829020849055905183815260008051602061066883398151915292917feb7bf040c0984f14f21d0089c5ef66e5b6f076260cb92ab3195cc4bb1c1cd8f791015b60405180910390a25050565b336000908152600080516020610688833981519152602052604081208054600080516020610668833981519152926001929161033d908490610654565b90915550503360008181526003830160209081526040918290205491519182527feb7bf040c0984f14f21d0089c5ef66e5b6f076260cb92ab3195cc4bb1c1cd8f7910161028c565b61038d61051b565b6001600160a01b03821660008181526000805160206106888339815191526020908152604091829020849055905183815260008051602061066883398151915292917feb7bf040c0984f14f21d0089c5ef66e5b6f076260cb92ab3195cc4bb1c1cd8f7910160405180910390a2505050565b60008051602061066883398151915280546001908290600090610423908490610654565b90915550506001810180546001600160a01b0319163390811790915542600283015581546040519081527f59950fb23669ee30425f6d79758e75fae698a6c88b2982f2980638d8bcd9397d9060200161028c565b61047f61051b565b6000805160206106688339815191528054600082557fb7b015d605ece0e8fe533fe842b448ce2b6465e6d573f424dd3872fbf182425780546001600160a01b03191633908117909155427fb7b015d605ece0e8fe533fe842b448ce2b6465e6d573f424dd3872fbf1824258556040518281527f0c4f92d0724fb3d16c74d6fd66f78fe790dbfb5849f7691e9931db60bb64aad4906020016102f4565b7fc8fcad8db84d3cc18b4c41d551ea0ee66dd599cde068d998e57d5e09332c131c600401546001600160a01b031633146105a25760405162461bcd60e51b815260206004820152602260248201527f4c69624469616d6f6e643a204d75737420626520636f6e7472616374206f776e60448201526132b960f11b606482015260840161021e565b565b80356001600160a01b03811681146105bb57600080fd5b919050565b6000602082840312156105d257600080fd5b6105db826105a4565b9392505050565b6000602082840312156105f457600080fd5b5035919050565b6000806040838503121561060e57600080fd5b610617836105a4565b946020939093013593505050565b634e487b7160e01b600052601160045260246000fd5b8181038181111561064e5761064e610625565b92915050565b8082018082111561064e5761064e61062556feb7b015d605ece0e8fe533fe842b448ce2b6465e6d573f424dd3872fbf1824256b7b015d605ece0e8fe533fe842b448ce2b6465e6d573f424dd3872fbf1824259a26469706673582212209ceef76383b7a0da42240da3ea0b699487c28288f3d3bab802619cc4e79239e564736f6c63430008140033",
  "devdoc": {
    "details": "A sample facet that demonstrates basic diamond functionality with a simple counter      This facet provides increment, decrement, and view operations for a counter value      stored in diamond storage. It serves as an example of how to implement business      logic in a diamond facet while using the diamond storage pattern.",
    "kind": "dev",
    "methods": {
      "decrement()": {
        "details": "Decreases the global counter and updates metadata      Reverts if counter would go below zero"
      },
      "getCounter()": {
        "returns": {
          "_0": "The current counter value"
        }
      },
      "getCounterMetadata()": {
        "returns": {
          "lastUpdateTimestamp": "Timestamp of the last update",
          "lastUpdater": "Address of the last user to update the counter"
        }
      },
      "getUserCounter(address)": {
        "params": {
          "user": "The address of the user"
        },
        "returns": {
          "_0": "The user's counter value"
        }
      },
      "increment()": {
        "details": "Increases the global counter and updates metadata"
      },
      "incrementUserCounter()": {
        "details": "Each user has their own counter independent of the global one"
      },
      "resetCounter()": {
        "details": "Only the diamond owner can reset the counter"
      },
      "setUserCounter(uint256)": {
        "details": "Only the user themselves or the diamond owner can set their counter",
        "params": {
          "value": "The new counter value"
        }
      },
      "setUserCounterAsOwner(address,uint256)": {
        "details": "Only the diamond owner can set other users' counters",
        "params": {
          "user": "The user whose counter to set",
          "value": "The new counter value"
        }
      }
    },
    "title": "CounterFacet",
    "version": 1
  },
  "userdoc": {
    "kind": "user",
    "methods": {
      "decrement()": {
        "notice": "Decrement the global counter by 1"
      },
      "getCounter()": {
        "notice": "Get the current global counter value"
      },
      "getCounterMetadata()": {
        "notice": "Get metadata about the last counter update"
      },
      "getUserCounter(address)": {
        "notice": "Get a user's personal counter value"
      },
      "increment()": {
        "notice": "Increment the global counter by 1"
      },
      "incrementUserCounter()": {
        "notice": "Increment a user's personal counter"
      },
      "resetCounter()": {
        "notice": "Reset the global counter to zero"
      },
      "setUserCounter(uint256)": {
        "notice": "Set a user's counter to a specific value"
      },
      "setUserCounterAsOwner(address,uint256)": {
        "notice": "Set any user's counter (owner only)"
      }
    },
    "version": 1
  },
  "storageLayout": {
    "storage": [],
    "types": null
  }
}