{
  "address": "0x0165878A594ca255338adfa4d48449f69242Eb8F",
  "abi": [
    {
      "inputs": [],
      "name": "init",
      "outputs": [],
      "stateMutability": "nonpayable",
      "type": "function"
    }
  ],
  "transactionHash": "0xecc59c01f46d8a545e7416b2bb457cba39311637aa348bd433d476cac5d8d856",
  "args": [],
  "numDeployments": 1,
  "solcInputHash": "72885b6b28d6b3c468b7566d0312e231",
  "bytecode": "0x6080604052348015600f57600080fd5b50606580601d6000396000f3fe6080604052348015600f57600080fd5b506004361060285760003560e01c8063e1c7392a14602d575b600080fd5b00fea2646970667358221220a975676969b303d0a5dece3030ffb5833e4e4050745c5c934f18f910b4a3a7a964736f6c63430008140033",
  "devdoc": {
    "kind": "dev",
    "methods": {},
    "version": 1
  },
  "userdoc": {
    "kind": "user",
    "methods": {},
    "version": 1
  },
  "storageLayout": {
    "storage": [],
    "types": null
  }
}