{
  "_format": "hh-sol-artifact-1",
  "contractName": "SimpleStorage",
  "sourceName": "contracts/SimpleStorage.sol",
  "abi": [
    {
      "inputs": [
        {
          "internalType": "uint256",
          "name": "_initialValue",
          "type": "uint256"
        }
      ],
      "stateMutability": "nonpayable",
      "type": "constructor"
    },
    {
      "anonymous": false,
      "inputs": [
        {
          "indexed": false,
          "internalType": "uint256",
          "name": "oldValue",
          "type": "uint256"
        },
        {
          "indexed": false,
          "internalType": "uint256",
          "name": "newValue",
          "type": "uint256"
        },
        {
          "indexed": false,
          "internalType": "address",
          "name": "changedBy",
          "type": "address"
        }
      ],
      "name": "ValueChanged",
      "type": "event"
    },
    {
      "inputs": [],
      "name": "getValue",
      "outputs": [
        {
          "internalType": "uint256",
          "name": "",
          "type": "uint256"
        }
      ],
      "stateMutability": "view",
      "type": "function"
    },
    {
      "inputs": [],
      "name": "increment",
      "outputs": [],
      "stateMutability": "nonpayable",
      "type": "function"
    },
    {
      "inputs": [],
      "name": "owner",
      "outputs": [
        {
          "internalType": "address",
          "name": "",
          "type": "address"
        }
      ],
      "stateMutability": "view",
      "type": "function"
    },
    {
      "inputs": [],
      "name": "reset",
      "outputs": [],
      "stateMutability": "nonpayable",
      "type": "function"
    },
    {
      "inputs": [
        {
          "internalType": "uint256",
          "name": "_value",
          "type": "uint256"
        }
      ],
      "name": "setValue",
      "outputs": [],
      "stateMutability": "nonpayable",
      "type": "function"
    },
    {
      "inputs": [],
      "name": "storedValue",
      "outputs": [
        {
          "internalType": "uint256",
          "name": "",
          "type": "uint256"
        }
      ],
      "stateMutability": "view",
      "type": "function"
    }
  ],
  "bytecode": "0x608060405234801561001057600080fd5b506040516102c03803806102c083398101604081905261002f9161008d565b6000818155600180546001600160a01b0319163390811790915560408051928352602083018490528201527f681683094c99fb1b55d9c72829a0516f885774946ee037b112798941433c137b9060600160405180910390a1506100a6565b60006020828403121561009f57600080fd5b5051919050565b61020b806100b56000396000f3fe608060405234801561001057600080fd5b50600436106100625760003560e01c80632096525514610067578063552410771461007e5780636d619daa146100935780638da5cb5b1461009c578063d09de08a146100c7578063d826f88f146100cf575b600080fd5b6000545b6040519081526020015b60405180910390f35b61009161008c366004610195565b6100d7565b005b61006b60005481565b6001546100af906001600160a01b031681565b6040516001600160a01b039091168152602001610075565b610091610122565b610091610136565b60008054908290556040805182815260208101849052338183015290517f681683094c99fb1b55d9c72829a0516f885774946ee037b112798941433c137b9181900360600190a15050565b610134600054600161008c91906101ae565b565b6001546001600160a01b0316331461018b5760405162461bcd60e51b815260206004820152601460248201527313db9b1e481bdddb995c8818d85b881c995cd95d60621b604482015260640160405180910390fd5b61013460006100d7565b6000602082840312156101a757600080fd5b5035919050565b808201808211156101cf57634e487b7160e01b600052601160045260246000fd5b9291505056fea2646970667358221220d9a1b5c51a30f87918220397cfce1f9bfb051f594dcc96965d3ca5337e47f49364736f6c63430008140033",
  "linkReferences": {},
  "deployedLinkReferences": {}
}