{
  "_format": "hh-sol-artifact-1",
  "contractName": "Diamond",
  "sourceName": "contracts/Diamond.sol",
  "abi": [
    {
      "inputs": [],
      "name": "InvalidInitialization",
      "type": "error"
    },
    {
      "inputs": [],
      "name": "NotInitializing",
      "type": "error"
    },
    {
      "anonymous": false,
      "inputs": [
        {
          "components": [
            {
              "internalType": "address",
              "name": "facetAddress",
              "type": "address"
            },
            {
              "internalType": "enum IDiamondCut.FacetCutAction",
              "name": "action",
              "type": "uint8"
            },
            {
              "internalType": "bytes4[]",
              "name": "functionSelectors",
              "type": "bytes4[]"
            }
          ],
          "indexed": false,
          "internalType": "struct IDiamondCut.FacetCut[]",
          "name": "_diamondCut",
          "type": "tuple[]"
        },
        {
          "indexed": false,
          "internalType": "address",
          "name": "_init",
          "type": "address"
        },
        {
          "indexed": false,
          "internalType": "bytes",
          "name": "_calldata",
          "type": "bytes"
        }
      ],
      "name": "DiamondCut",
      "type": "event"
    },
    {
      "anonymous": false,
      "inputs": [
        {
          "indexed": false,
          "internalType": "uint64",
          "name": "version",
          "type": "uint64"
        }
      ],
      "name": "Initialized",
      "type": "event"
    },
    {
      "anonymous": false,
      "inputs": [
        {
          "indexed": true,
          "internalType": "address",
          "name": "previousOwner",
          "type": "address"
        },
        {
          "indexed": true,
          "internalType": "address",
          "name": "newOwner",
          "type": "address"
        }
      ],
      "name": "OwnershipTransferred",
      "type": "event"
    },
    {
      "anonymous": false,
      "inputs": [
        {
          "indexed": true,
          "internalType": "address",
          "name": "previousOwner",
          "type": "address"
        },
        {
          "indexed": true,
          "internalType": "address",
          "name": "newOwner",
          "type": "address"
        }
      ],
      "name": "OwnershipTransferred",
      "type": "event"
    },
    {
      "stateMutability": "payable",
      "type": "fallback"
    },
    {
      "inputs": [],
      "name": "diamondAddress",
      "outputs": [
        {
          "internalType": "address",
          "name": "",
          "type": "address"
        }
      ],
      "stateMutability": "view",
      "type": "function"
    },
    {
      "inputs": [
        {
          "internalType": "address",
          "name": "_owner",
          "type": "address"
        },
        {
          "components": [
            {
              "internalType": "address",
              "name": "owner",
              "type": "address"
            },
            {
              "internalType": "address",
              "name": "factory",
              "type": "address"
            },
            {
              "internalType": "address",
              "name": "svgManager",
              "type": "address"
            },
            {
              "internalType": "string",
              "name": "symbol",
              "type": "string"
            },
            {
              "internalType": "string",
              "name": "name",
              "type": "string"
            }
          ],
          "internalType": "struct DiamondSettings",
          "name": "params",
          "type": "tuple"
        },
        {
          "components": [
            {
              "internalType": "address",
              "name": "facetAddress",
              "type": "address"
            },
            {
              "internalType": "enum IDiamondCut.FacetCutAction",
              "name": "action",
              "type": "uint8"
            },
            {
              "internalType": "bytes4[]",
              "name": "functionSelectors",
              "type": "bytes4[]"
            }
          ],
          "internalType": "struct IDiamondCut.FacetCut[]",
          "name": "_facets",
          "type": "tuple[]"
        },
        {
          "internalType": "address",
          "name": "diamondInit",
          "type": "address"
        },
        {
          "internalType": "bytes",
          "name": "_calldata",
          "type": "bytes"
        }
      ],
      "name": "initialize",
      "outputs": [],
      "stateMutability": "nonpayable",
      "type": "function"
    },
    {
      "inputs": [],
      "name": "owner",
      "outputs": [
        {
          "internalType": "address",
          "name": "owner_",
          "type": "address"
        }
      ],
      "stateMutability": "view",
      "type": "function"
    },
    {
      "inputs": [
        {
          "internalType": "address",
          "name": "_newOwner",
          "type": "address"
        }
      ],
      "name": "transferOwnership",
      "outputs": [],
      "stateMutability": "nonpayable",
      "type": "function"
    },
    {
      "stateMutability": "payable",
      "type": "receive"
    }
  ],
  "bytecode": "0x608060405234801561001057600080fd5b50611d50806100206000396000f3fe6080604052600436106100435760003560e01c80636a60c3b7146100f75780638da5cb5b14610122578063cde7b2c114610137578063f2fde38b146101575761004a565b3661004a57005b600080356001600160e01b0319168152600080516020611caf833981519152602081905260409091205481906001600160a01b0316806100d15760405162461bcd60e51b815260206004820181905260248201527f4469616d6f6e643a2046756e6374696f6e20646f6573206e6f7420657869737460448201526064015b60405180910390fd5b3660008037600080366000845af43d6000803e8080156100f0573d6000f35b3d6000fd5b005b34801561010357600080fd5b50305b6040516001600160a01b03909116815260200160405180910390f35b34801561012e57600080fd5b50610106610177565b34801561014357600080fd5b506100f56101523660046115de565b6101af565b34801561016357600080fd5b506100f561017236600461171c565b610513565b60006101aa7fc8fcad8db84d3cc18b4c41d551ea0ee66dd599cde068d998e57d5e09332c1320546001600160a01b031690565b905090565b60006101b9610527565b805490915060ff600160401b820416159067ffffffffffffffff166000811580156101e15750825b905060008267ffffffffffffffff1660011480156101fe5750303b155b90508115801561020c575080155b1561022a5760405163f92ee8a960e01b815260040160405180910390fd5b845467ffffffffffffffff19166001178555831561025457845460ff60401b1916600160401b1785555b7fc8fcad8db84d3cc18b4c41d551ea0ee66dd599cde068d998e57d5e09332c131f6020527f699d9daa71b280d05a152715774afa0a81a312594b2d731d6b0b2552b7d6f69f8054600160ff1991821681179092557f19068268aae2a38bd591de99c33751e9001444cb142e32d03cbfc67512a16fff80548216831790557f5622121b47b8cd0120c4efe45dd5483242f54a3d49bd7679be565d47694918c380548216831790557fb0f299ecb5b93181be17d5e233721498930c5361f367b1d41c5b827d4fe4d38080548216831790557f806e5513950c43892aa01780f899fe3e3229f9425b66a2610b01231f5799f44e805482168317905563780e9d6360e01b6000527fc564b00dd622489e8872cfaa1fdbe51ee7adef071bfa99bc1effdc20162fa70a805490911690911790556103cc61038f8a8c611762565b8989898080601f01602080910402602001604051908101604052809392919081815260200183838082843760009201919091525061055292505050565b6103d58c610763565b7f3b28ada7424160f36dba04e603ff68d11ac4a3eeb1ef7a9911d79d949607b74080546001600160a01b038e166001600160a01b031990911617905560608b015160408051651cde5b589bdb60d21b81527f3b28ada7424160f36dba04e603ff68d11ac4a3eeb1ef7a9911d79d949607b7456006820152905190819003602601902090610462908261192e565b5060808b015160408051636e616d6560e01b81527f3b28ada7424160f36dba04e603ff68d11ac4a3eeb1ef7a9911d79d949607b74560048201529051908190036024019020906104b2908261192e565b506104bf6202a3006107e6565b831561050557845460ff60401b19168555604051600181527fc7f505b2f371ae2175ee4913f4499e1f2633a7b5936321eed1cdaeb6115181d29060200160405180910390a15b505050505050505050505050565b61051b610892565b61052481610763565b50565b6000807ff0c57e16840df040f15088dc2f81fe391c3923bec73e23a9662efc9c229c6a005b92915050565b60005b8351811015610718576000848281518110610572576105726119ee565b60200260200101516020015190506000600281111561059357610593611a04565b8160028111156105a5576105a5611a04565b036105f3576105ee8583815181106105bf576105bf6119ee565b6020026020010151600001518684815181106105dd576105dd6119ee565b602002602001015160400151610909565b610705565b600181600281111561060757610607611a04565b03610650576105ee858381518110610621576106216119ee565b60200260200101516000015186848151811061063f5761063f6119ee565b602002602001015160400151610a88565b600281600281111561066457610664611a04565b036106ad576105ee85838151811061067e5761067e6119ee565b60200260200101516000015186848151811061069c5761069c6119ee565b602002602001015160400151610c18565b60405162461bcd60e51b815260206004820152602760248201527f4c69624469616d6f6e644375743a20496e636f727265637420466163657443756044820152663a20b1ba34b7b760c91b60648201526084016100c8565b508061071081611a30565b915050610555565b507f8faa70878671ccd212d20771b795c50af8fd3ff6cf27f4bde57e5d4de0aeb67383838360405161074c93929190611a99565b60405180910390a161075e8282610d36565b505050565b7fc8fcad8db84d3cc18b4c41d551ea0ee66dd599cde068d998e57d5e09332c132080546001600160a01b031981166001600160a01b03848116918217909355604051600080516020611caf833981519152939092169182907f8be0079c531659141344cd1fd0a4f28419497f9722a3daafe3b4186f6b6457e090600090a3505050565b7fc8fcad8db84d3cc18b4c41d551ea0ee66dd599cde068d998e57d5e09332c132154600080516020611caf83398151915290156108765760405162461bcd60e51b815260206004820152602860248201527f4c69624469616d6f6e643a2054696d656c6f636b20616c726561647920696e696044820152671d1a585b1a5e995960c21b60648201526084016100c8565b60008211610887576202a300610889565b815b60059091015550565b600080516020611caf833981519152600401546001600160a01b031633146109075760405162461bcd60e51b815260206004820152602260248201527f4c69624469616d6f6e643a204d75737420626520636f6e7472616374206f776e60448201526132b960f11b60648201526084016100c8565b565b600081511161092a5760405162461bcd60e51b81526004016100c890611b99565b600080516020611caf8339815191526001600160a01b03831661095f5760405162461bcd60e51b81526004016100c890611be4565b6001600160a01b0383166000908152600182016020526040812054906001600160601b0382169003610995576109958285610f43565b60005b8351811015610a815760008482815181106109b5576109b56119ee565b6020908102919091018101516001600160e01b031981166000908152918690526040909120549091506001600160a01b03168015610a535760405162461bcd60e51b815260206004820152603560248201527f4c69624469616d6f6e644375743a2043616e2774206164642066756e6374696f6044820152746e207468617420616c72656164792065786973747360581b60648201526084016100c8565b610a5f8583868a610fad565b83610a6981611c30565b94505050508080610a7990611a30565b915050610998565b5050505050565b6000815111610aa95760405162461bcd60e51b81526004016100c890611b99565b600080516020611caf8339815191526001600160a01b038316610ade5760405162461bcd60e51b81526004016100c890611be4565b6001600160a01b0383166000908152600182016020526040812054906001600160601b0382169003610b1457610b148285610f43565b60005b8351811015610a81576000848281518110610b3457610b346119ee565b6020908102919091018101516001600160e01b031981166000908152918690526040909120549091506001600160a01b039081169087168103610bdf5760405162461bcd60e51b815260206004820152603860248201527f4c69624469616d6f6e644375743a2043616e2774207265706c6163652066756e60448201527f6374696f6e20776974682073616d652066756e6374696f6e000000000000000060648201526084016100c8565b610bea85828461104d565b610bf68583868a610fad565b83610c0081611c30565b94505050508080610c1090611a30565b915050610b17565b6000815111610c395760405162461bcd60e51b81526004016100c890611b99565b600080516020611caf8339815191526001600160a01b03831615610cbe5760405162461bcd60e51b815260206004820152603660248201527f4c69624469616d6f6e644375743a2052656d6f76652066616365742061646472604482015275657373206d757374206265206164647265737328302960501b60648201526084016100c8565b60005b8251811015610d30576000838281518110610cde57610cde6119ee565b6020908102919091018101516001600160e01b031981166000908152918590526040909120549091506001600160a01b0316610d1b84828461104d565b50508080610d2890611a30565b915050610cc1565b50505050565b6001600160a01b038216610dbd57805115610db95760405162461bcd60e51b815260206004820152603c60248201527f4c69624469616d6f6e644375743a205f696e697420697320616464726573732860448201527f3029206275745f63616c6c64617461206973206e6f7420656d7074790000000060648201526084016100c8565b5050565b6000815111610e345760405162461bcd60e51b815260206004820152603d60248201527f4c69624469616d6f6e644375743a205f63616c6c6461746120697320656d707460448201527f7920627574205f696e6974206973206e6f74206164647265737328302900000060648201526084016100c8565b6001600160a01b0382163014610e6657610e6682604051806060016040528060288152602001611ccf60289139611410565b600080836001600160a01b031683604051610e819190611c56565b600060405180830381855af49150503d8060008114610ebc576040519150601f19603f3d011682016040523d82523d6000602084013e610ec1565b606091505b509150915081610d3057805115610eec578060405162461bcd60e51b81526004016100c89190611c72565b60405162461bcd60e51b815260206004820152602660248201527f4c69624469616d6f6e644375743a205f696e69742066756e6374696f6e2072656044820152651d995c9d195960d21b60648201526084016100c8565b610f6581604051806060016040528060248152602001611cf760249139611410565b6002820180546001600160a01b0390921660008181526001948501602090815260408220860185905594840183559182529290200180546001600160a01b0319169091179055565b6001600160e01b0319831660008181526020868152604080832080546001600160601b03909716600160a01b026001600160a01b0397881617815594909516808352600180890183529583208054968701815583528183206008870401805460e09890981c60046007909816979097026101000a96870263ffffffff9097021990971695909517909555529290915281546001600160a01b031916179055565b6001600160a01b0382166110c95760405162461bcd60e51b815260206004820152603760248201527f4c69624469616d6f6e644375743a2043616e27742072656d6f76652066756e6360448201527f74696f6e207468617420646f65736e277420657869737400000000000000000060648201526084016100c8565b306001600160a01b038316036111385760405162461bcd60e51b815260206004820152602e60248201527f4c69624469616d6f6e644375743a2043616e27742072656d6f766520696d6d7560448201526d3a30b1363290333ab731ba34b7b760911b60648201526084016100c8565b6001600160e01b03198116600090815260208481526040808320546001600160a01b0386168452600180880190935290832054600160a01b9091046001600160601b0316929161118791611c85565b9050808214611279576001600160a01b038416600090815260018601602052604081208054839081106111bc576111bc6119ee565b600091825260208083206008830401546001600160a01b038916845260018a019091526040909220805460079092166004026101000a90920460e01b92508291908590811061120d5761120d6119ee565b600091825260208083206008830401805463ffffffff60079094166004026101000a938402191660e09590951c929092029390931790556001600160e01b03199290921682528690526040902080546001600160a01b0316600160a01b6001600160601b038516021790555b6001600160a01b038416600090815260018601602052604090208054806112a2576112a2611c98565b60008281526020808220600860001990940193840401805463ffffffff600460078716026101000a0219169055919092556001600160e01b03198516825286905260408120819055819003610a8157600285015460009061130590600190611c85565b6001600160a01b03861660009081526001808901602052604090912001549091508082146113b4576000876002018381548110611344576113446119ee565b6000918252602090912001546002890180546001600160a01b039092169250829184908110611375576113756119ee565b600091825260208083209190910180546001600160a01b0319166001600160a01b03948516179055929091168152600189810190925260409020018190555b866002018054806113c7576113c7611c98565b60008281526020808220830160001990810180546001600160a01b03191690559092019092556001600160a01b0388168252600189810190915260408220015550505050505050565b813b8181610d305760405162461bcd60e51b81526004016100c89190611c72565b80356001600160a01b038116811461144857600080fd5b919050565b634e487b7160e01b600052604160045260246000fd5b60405160a0810167ffffffffffffffff811182821017156114865761148661144d565b60405290565b6040516060810167ffffffffffffffff811182821017156114865761148661144d565b604051601f8201601f1916810167ffffffffffffffff811182821017156114d8576114d861144d565b604052919050565b600082601f8301126114f157600080fd5b813567ffffffffffffffff81111561150b5761150b61144d565b61151e601f8201601f19166020016114af565b81815284602083860101111561153357600080fd5b816020850160208301376000918101602001919091529392505050565b60008083601f84011261156257600080fd5b50813567ffffffffffffffff81111561157a57600080fd5b6020830191508360208260051b850101111561159557600080fd5b9250929050565b60008083601f8401126115ae57600080fd5b50813567ffffffffffffffff8111156115c657600080fd5b60208301915083602082850101111561159557600080fd5b600080600080600080600060a0888a0312156115f957600080fd5b61160288611431565b9650602088013567ffffffffffffffff8082111561161f57600080fd5b9089019060a0828c03121561163357600080fd5b61163b611463565b61164483611431565b815261165260208401611431565b602082015261166360408401611431565b604082015260608301358281111561167a57600080fd5b6116868d8286016114e0565b60608301525060808301358281111561169e57600080fd5b6116aa8d8286016114e0565b608083015250975060408a01359150808211156116c657600080fd5b6116d28b838c01611550565b90975095508591506116e660608b01611431565b945060808a01359150808211156116fc57600080fd5b506117098a828b0161159c565b989b979a50959850939692959293505050565b60006020828403121561172e57600080fd5b61173782611431565b9392505050565b600067ffffffffffffffff8211156117585761175861144d565b5060051b60200190565b60006117756117708461173e565b6114af565b83815260208082019190600586811b86013681111561179357600080fd5b865b8181101561189957803567ffffffffffffffff808211156117b65760008081fd5b818a019150606082360312156117cc5760008081fd5b6117d461148c565b6117dd83611431565b815286830135600381106117f15760008081fd5b81880152604083810135838111156118095760008081fd5b939093019236601f85011261182057600092508283fd5b833592506118306117708461173e565b83815292871b8401880192888101903685111561184d5760008081fd5b948901945b848610156118825785356001600160e01b0319811681146118735760008081fd5b82529489019490890190611852565b918301919091525088525050948301948301611795565b5092979650505050505050565b600181811c908216806118ba57607f821691505b6020821081036118da57634e487b7160e01b600052602260045260246000fd5b50919050565b601f82111561075e57600081815260208120601f850160051c810160208610156119075750805b601f850160051c820191505b8181101561192657828155600101611913565b505050505050565b815167ffffffffffffffff8111156119485761194861144d565b61195c8161195684546118a6565b846118e0565b602080601f83116001811461199157600084156119795750858301515b600019600386901b1c1916600185901b178555611926565b600085815260208120601f198616915b828110156119c0578886015182559484019460019091019084016119a1565b50858210156119de5787850151600019600388901b60f8161c191681555b5050505050600190811b01905550565b634e487b7160e01b600052603260045260246000fd5b634e487b7160e01b600052602160045260246000fd5b634e487b7160e01b600052601160045260246000fd5b600060018201611a4257611a42611a1a565b5060010190565b60005b83811015611a64578181015183820152602001611a4c565b50506000910152565b60008151808452611a85816020860160208601611a49565b601f01601f19169290920160200192915050565b60006060808301818452808751808352608092508286019150828160051b8701016020808b0160005b84811015611b6957898403607f19018652815180516001600160a01b03168552838101518986019060038110611b0857634e487b7160e01b600052602160045260246000fd5b868601526040918201519186018a905281519081905290840190600090898701905b80831015611b545783516001600160e01b0319168252928601926001929092019190860190611b2a565b50978501979550505090820190600101611ac2565b50506001600160a01b038a16908801528681036040880152611b8b8189611a6d565b9a9950505050505050505050565b6020808252602b908201527f4c69624469616d6f6e644375743a204e6f2073656c6563746f727320696e206660408201526a1858d95d081d1bc818dd5d60aa1b606082015260800190565b6020808252602c908201527f4c69624469616d6f6e644375743a204164642066616365742063616e2774206260408201526b65206164647265737328302960a01b606082015260800190565b60006001600160601b03808316818103611c4c57611c4c611a1a565b6001019392505050565b60008251611c68818460208701611a49565b9190910192915050565b6020815260006117376020830184611a6d565b8181038181111561054c5761054c611a1a565b634e487b7160e01b600052603160045260246000fdfec8fcad8db84d3cc18b4c41d551ea0ee66dd599cde068d998e57d5e09332c131c4c69624469616d6f6e644375743a205f696e6974206164647265737320686173206e6f20636f64654c69624469616d6f6e644375743a204e657720666163657420686173206e6f20636f6465a2646970667358221220d3a5fd157e44e6573e0ecf26ab8a24b869b4dbe804e485f2916a0cb816a7714164736f6c63430008140033",
  "linkReferences": {},
  "deployedLinkReferences": {}
}