{
  "_format": "hh-sol-artifact-1",
  "contractName": "Marketplace",
  "sourceName": "contracts/Marketplace.sol",
  "abi": [
    {
      "inputs": [
        {
          "internalType": "uint256",
          "name": "_marketplaceFee",
          "type": "uint256"
        }
      ],
      "stateMutability": "nonpayable",
      "type": "constructor"
    },
    {
      "anonymous": false,
      "inputs": [
        {
          "indexed": true,
          "internalType": "address",
          "name": "seller",
          "type": "address"
        },
        {
          "indexed": false,
          "internalType": "uint256",
          "name": "amount",
          "type": "uint256"
        }
      ],
      "name": "EarningsWithdrawn",
      "type": "event"
    },
    {
      "anonymous": false,
      "inputs": [
        {
          "indexed": false,
          "internalType": "uint256",
          "name": "oldFee",
          "type": "uint256"
        },
        {
          "indexed": false,
          "internalType": "uint256",
          "name": "newFee",
          "type": "uint256"
        }
      ],
      "name": "FeeUpdated",
      "type": "event"
    },
    {
      "anonymous": false,
      "inputs": [
        {
          "indexed": true,
          "internalType": "uint256",
          "name": "itemId",
          "type": "uint256"
        },
        {
          "indexed": false,
          "internalType": "string",
          "name": "name",
          "type": "string"
        },
        {
          "indexed": false,
          "internalType": "uint256",
          "name": "price",
          "type": "uint256"
        },
        {
          "indexed": true,
          "internalType": "address",
          "name": "seller",
          "type": "address"
        }
      ],
      "name": "ItemListed",
      "type": "event"
    },
    {
      "anonymous": false,
      "inputs": [
        {
          "indexed": true,
          "internalType": "uint256",
          "name": "itemId",
          "type": "uint256"
        },
        {
          "indexed": true,
          "internalType": "address",
          "name": "seller",
          "type": "address"
        }
      ],
      "name": "ItemRemoved",
      "type": "event"
    },
    {
      "anonymous": false,
      "inputs": [
        {
          "indexed": true,
          "internalType": "uint256",
          "name": "itemId",
          "type": "uint256"
        },
        {
          "indexed": false,
          "internalType": "string",
          "name": "name",
          "type": "string"
        },
        {
          "indexed": false,
          "internalType": "uint256",
          "name": "price",
          "type": "uint256"
        },
        {
          "indexed": true,
          "internalType": "address",
          "name": "seller",
          "type": "address"
        },
        {
          "indexed": true,
          "internalType": "address",
          "name": "buyer",
          "type": "address"
        }
      ],
      "name": "ItemSold",
      "type": "event"
    },
    {
      "anonymous": false,
      "inputs": [
        {
          "indexed": false,
          "internalType": "bool",
          "name": "paused",
          "type": "bool"
        }
      ],
      "name": "MarketplacePaused",
      "type": "event"
    },
    {
      "inputs": [
        {
          "internalType": "uint256",
          "name": "_itemId",
          "type": "uint256"
        }
      ],
      "name": "buyItem",
      "outputs": [],
      "stateMutability": "payable",
      "type": "function"
    },
    {
      "inputs": [
        {
          "internalType": "address",
          "name": "_seller",
          "type": "address"
        }
      ],
      "name": "emergencyWithdraw",
      "outputs": [],
      "stateMutability": "nonpayable",
      "type": "function"
    },
    {
      "inputs": [],
      "name": "getItemCount",
      "outputs": [
        {
          "internalType": "uint256",
          "name": "",
          "type": "uint256"
        }
      ],
      "stateMutability": "view",
      "type": "function"
    },
    {
      "inputs": [
        {
          "internalType": "address",
          "name": "_seller",
          "type": "address"
        }
      ],
      "name": "getSellerItems",
      "outputs": [
        {
          "internalType": "uint256[]",
          "name": "",
          "type": "uint256[]"
        }
      ],
      "stateMutability": "view",
      "type": "function"
    },
    {
      "inputs": [
        {
          "internalType": "uint256",
          "name": "",
          "type": "uint256"
        }
      ],
      "name": "items",
      "outputs": [
        {
          "internalType": "uint256",
          "name": "id",
          "type": "uint256"
        },
        {
          "internalType": "string",
          "name": "name",
          "type": "string"
        },
        {
          "internalType": "string",
          "name": "description",
          "type": "string"
        },
        {
          "internalType": "uint256",
          "name": "price",
          "type": "uint256"
        },
        {
          "internalType": "address payable",
          "name": "seller",
          "type": "address"
        },
        {
          "internalType": "bool",
          "name": "sold",
          "type": "bool"
        },
        {
          "internalType": "uint256",
          "name": "listedAt",
          "type": "uint256"
        }
      ],
      "stateMutability": "view",
      "type": "function"
    },
    {
      "inputs": [
        {
          "internalType": "string",
          "name": "_name",
          "type": "string"
        },
        {
          "internalType": "string",
          "name": "_description",
          "type": "string"
        },
        {
          "internalType": "uint256",
          "name": "_price",
          "type": "uint256"
        }
      ],
      "name": "listItem",
      "outputs": [
        {
          "internalType": "uint256",
          "name": "",
          "type": "uint256"
        }
      ],
      "stateMutability": "nonpayable",
      "type": "function"
    },
    {
      "inputs": [],
      "name": "marketplaceFee",
      "outputs": [
        {
          "internalType": "uint256",
          "name": "",
          "type": "uint256"
        }
      ],
      "stateMutability": "view",
      "type": "function"
    },
    {
      "inputs": [],
      "name": "nextItemId",
      "outputs": [
        {
          "internalType": "uint256",
          "name": "",
          "type": "uint256"
        }
      ],
      "stateMutability": "view",
      "type": "function"
    },
    {
      "inputs": [],
      "name": "owner",
      "outputs": [
        {
          "internalType": "address",
          "name": "",
          "type": "address"
        }
      ],
      "stateMutability": "view",
      "type": "function"
    },
    {
      "inputs": [],
      "name": "paused",
      "outputs": [
        {
          "internalType": "bool",
          "name": "",
          "type": "bool"
        }
      ],
      "stateMutability": "view",
      "type": "function"
    },
    {
      "inputs": [
        {
          "internalType": "uint256",
          "name": "_itemId",
          "type": "uint256"
        }
      ],
      "name": "removeItem",
      "outputs": [],
      "stateMutability": "nonpayable",
      "type": "function"
    },
    {
      "inputs": [
        {
          "internalType": "address",
          "name": "",
          "type": "address"
        }
      ],
      "name": "sellerEarnings",
      "outputs": [
        {
          "internalType": "uint256",
          "name": "",
          "type": "uint256"
        }
      ],
      "stateMutability": "view",
      "type": "function"
    },
    {
      "inputs": [
        {
          "internalType": "address",
          "name": "",
          "type": "address"
        },
        {
          "internalType": "uint256",
          "name": "",
          "type": "uint256"
        }
      ],
      "name": "sellerItems",
      "outputs": [
        {
          "internalType": "uint256",
          "name": "",
          "type": "uint256"
        }
      ],
      "stateMutability": "view",
      "type": "function"
    },
    {
      "inputs": [
        {
          "internalType": "uint256",
          "name": "_newFee",
          "type": "uint256"
        }
      ],
      "name": "setMarketplaceFee",
      "outputs": [],
      "stateMutability": "nonpayable",
      "type": "function"
    },
    {
      "inputs": [
        {
          "internalType": "bool",
          "name": "_paused",
          "type": "bool"
        }
      ],
      "name": "setPaused",
      "outputs": [],
      "stateMutability": "nonpayable",
      "type": "function"
    },
    {
      "inputs": [],
      "name": "withdrawEarnings",
      "outputs": [],
      "stateMutability": "nonpayable",
      "type": "function"
    },
    {
      "inputs": [],
      "name": "withdrawFees",
      "outputs": [],
      "stateMutability": "nonpayable",
      "type": "function"
    }
  ],
  "bytecode": "0x608060405234801561001057600080fd5b506040516115ea3803806115ea83398101604081905261002f9161004e565b600280546001600160a01b031916331790556001908155600055610067565b60006020828403121561006057600080fd5b5051919050565b611574806100766000396000f3fe6080604052600436106100fe5760003560e01c806371329171116100955780639407ea98116100645780639407ea98146102a4578063b73c6ce9146102c4578063bfb231d2146102d9578063d3cbb62b1461030c578063e7fb74c71461033957600080fd5b8063713291711461020a5780637749cf231461022a5780638b0123581461023f5780638da5cb5b1461026c57600080fd5b80635c975abb116100d15780635c975abb1461018d5780636a166964146101be5780636a868974146101d45780636ff1c9bc146101ea57600080fd5b80630562021c1461010357806316c38b3c146101365780632c02338f14610158578063476343ee14610178575b600080fd5b34801561010f57600080fd5b5061012361011e366004611075565b61034c565b6040519081526020015b60405180910390f35b34801561014257600080fd5b506101566101513660046110e2565b610586565b005b34801561016457600080fd5b50610123610173366004611127565b610608565b34801561018457600080fd5b50610156610639565b34801561019957600080fd5b506002546101ae90600160a01b900460ff1681565b604051901515815260200161012d565b3480156101ca57600080fd5b5061012360015481565b3480156101e057600080fd5b5061012360005481565b3480156101f657600080fd5b50610156610205366004611151565b6106e5565b34801561021657600080fd5b5061015661022536600461116c565b610801565b34801561023657600080fd5b50610123610990565b34801561024b57600080fd5b5061012361025a366004611151565b60056020526000908152604090205481565b34801561027857600080fd5b5060025461028c906001600160a01b031681565b6040516001600160a01b03909116815260200161012d565b3480156102b057600080fd5b506101566102bf36600461116c565b6109a6565b3480156102d057600080fd5b50610156610a5f565b3480156102e557600080fd5b506102f96102f436600461116c565b610b30565b60405161012d97969594939291906111cb565b34801561031857600080fd5b5061032c610327366004611151565b610c8c565b60405161012d9190611226565b61015661034736600461116c565b610cf8565b600254600090600160a01b900460ff16156103a65760405162461bcd60e51b815260206004820152601560248201527413585c9ad95d1c1b1858d9481a5cc81c185d5cd959605a1b60448201526064015b60405180910390fd5b60008451116103f75760405162461bcd60e51b815260206004820152601960248201527f4974656d206e616d652063616e6e6f7420626520656d70747900000000000000604482015260640161039d565b600082116104475760405162461bcd60e51b815260206004820152601c60248201527f5072696365206d7573742062652067726561746572207468616e203000000000604482015260640161039d565b600080549081908061045883611280565b90915550506040805160e081018252828152602080820188815282840188905260608301879052336080840152600060a084018190524260c0850152858152600390925292902081518155915190919060018201906104b79082611322565b50604082015160028201906104cc9082611322565b506060820151600382015560808201516004808301805460a08601511515600160a01b026001600160a81b03199091166001600160a01b03909416939093179290921790915560c09092015160059091015533600081815260209283526040808220805460018101825590835293909120909201839055905182907f16244e47af8a7d2c923faa2cab44315c0514c7aa830682bbb9cc8f0d37ad75489061057690899088906113e2565b60405180910390a3949350505050565b6002546001600160a01b031633146105b05760405162461bcd60e51b815260040161039d90611404565b60028054821515600160a01b0260ff60a01b199091161790556040517f2d8cb32b79ced32c38fb4a61d8482c40627602feb2cc34b50d9b55eea376d88c906105fd90831515815260200190565b60405180910390a150565b6004602052816000526040600020818154811061062457600080fd5b90600052602060002001600091509150505481565b6002546001600160a01b031633146106635760405162461bcd60e51b815260040161039d90611404565b47806106a75760405162461bcd60e51b81526020600482015260136024820152724e6f206665657320746f20776974686472617760681b604482015260640161039d565b6002546040516001600160a01b039091169082156108fc029083906000818181858888f193505050501580156106e1573d6000803e3d6000fd5b5050565b6002546001600160a01b0316331461070f5760405162461bcd60e51b815260040161039d90611404565b6001600160a01b038116600090815260056020526040902054806107755760405162461bcd60e51b815260206004820152601b60248201527f4e6f206561726e696e677320666f7220746869732073656c6c65720000000000604482015260640161039d565b6001600160a01b0382166000818152600560205260408082208290555183156108fc0291849190818181858888f193505050501580156107b9573d6000803e3d6000fd5b50816001600160a01b03167f48dc35af7b45e2a81fffad55f6e2fafacdb1d3d0d50d24ebdc16324f5ba757f1826040516107f591815260200190565b60405180910390a25050565b8060005481106108495760405162461bcd60e51b8152602060048201526013602482015272125d195b48191bd95cc81b9bdd08195e1a5cdd606a1b604482015260640161039d565b600082815260036020526040902060048101546001600160a01b031633146108b35760405162461bcd60e51b815260206004820152601b60248201527f4f6e6c792073656c6c65722063616e2072656d6f7665206974656d0000000000604482015260640161039d565b6004810154600160a01b900460ff161561090f5760405162461bcd60e51b815260206004820152601760248201527f43616e6e6f742072656d6f766520736f6c64206974656d000000000000000000604482015260640161039d565b60008381526003602052604081208181559061092e6001830182610f7c565b61093c600283016000610f7c565b506000600382018190556004820180546001600160a81b03191690556005909101819055604051339185917f48694456128327a59523d36340d5e5b0157dfefecdeceb0b56e1fa3337fd0d459190a3505050565b600060016000546109a19190611445565b905090565b6002546001600160a01b031633146109d05760405162461bcd60e51b815260040161039d90611404565b6103e8811115610a1a5760405162461bcd60e51b81526020600482015260156024820152744665652063616e6e6f74206578636565642031302560581b604482015260640161039d565b600180549082905560408051828152602081018490527f528d9479e9f9889a87a3c30c7f7ba537e5e59c4c85a37733b16e57c62df61302910160405180910390a15050565b3360009081526005602052604090205480610abc5760405162461bcd60e51b815260206004820152601760248201527f4e6f206561726e696e677320746f207769746864726177000000000000000000604482015260640161039d565b336000818152600560205260408082208290555183156108fc0291849190818181858888f19350505050158015610af7573d6000803e3d6000fd5b5060405181815233907f48dc35af7b45e2a81fffad55f6e2fafacdb1d3d0d50d24ebdc16324f5ba757f19060200160405180910390a250565b60036020526000908152604090208054600182018054919291610b5290611299565b80601f0160208091040260200160405190810160405280929190818152602001828054610b7e90611299565b8015610bcb5780601f10610ba057610100808354040283529160200191610bcb565b820191906000526020600020905b815481529060010190602001808311610bae57829003601f168201915b505050505090806002018054610be090611299565b80601f0160208091040260200160405190810160405280929190818152602001828054610c0c90611299565b8015610c595780601f10610c2e57610100808354040283529160200191610c59565b820191906000526020600020905b815481529060010190602001808311610c3c57829003601f168201915b5050505060038301546004840154600590940154929390926001600160a01b0382169250600160a01b90910460ff169087565b6001600160a01b038116600090815260046020908152604091829020805483518184028101840190945280845260609392830182828015610cec57602002820191906000526020600020905b815481526020019060010190808311610cd8575b50505050509050919050565b600254600160a01b900460ff1615610d4a5760405162461bcd60e51b815260206004820152601560248201527413585c9ad95d1c1b1858d9481a5cc81c185d5cd959605a1b604482015260640161039d565b806000548110610d925760405162461bcd60e51b8152602060048201526013602482015272125d195b48191bd95cc81b9bdd08195e1a5cdd606a1b604482015260640161039d565b60008281526003602052604090206004810154600160a01b900460ff1615610df05760405162461bcd60e51b8152602060048201526011602482015270125d195b48185b1c9958591e481cdbdb19607a1b604482015260640161039d565b60048101546001600160a01b03163303610e4c5760405162461bcd60e51b815260206004820152601860248201527f43616e6e6f742062757920796f7572206f776e206974656d0000000000000000604482015260640161039d565b80600301543414610e9f5760405162461bcd60e51b815260206004820152601860248201527f496e636f7272656374207061796d656e7420616d6f756e740000000000000000604482015260640161039d565b60048101805460ff60a01b1916600160a01b179055600154600382015460009161271091610ecd919061145e565b610ed79190611475565b90506000818360030154610eeb9190611445565b60048401546001600160a01b0316600090815260056020526040812080549293508392909190610f1c908490611497565b90915550506004830154600384015460405133926001600160a01b03169188917f965f5f1cabd4450617ef4e4fb57afed8a8b87544c5549305429c15706fc892cf91610f6d9160018a0191906114aa565b60405180910390a45050505050565b508054610f8890611299565b6000825580601f10610f98575050565b601f016020900490600052602060002090810190610fb69190610fb9565b50565b5b80821115610fce5760008155600101610fba565b5090565b634e487b7160e01b600052604160045260246000fd5b600082601f830112610ff957600080fd5b813567ffffffffffffffff8082111561101457611014610fd2565b604051601f8301601f19908116603f0116810190828211818310171561103c5761103c610fd2565b8160405283815286602085880101111561105557600080fd5b836020870160208301376000602085830101528094505050505092915050565b60008060006060848603121561108a57600080fd5b833567ffffffffffffffff808211156110a257600080fd5b6110ae87838801610fe8565b945060208601359150808211156110c457600080fd5b506110d186828701610fe8565b925050604084013590509250925092565b6000602082840312156110f457600080fd5b8135801515811461110457600080fd5b9392505050565b80356001600160a01b038116811461112257600080fd5b919050565b6000806040838503121561113a57600080fd5b6111438361110b565b946020939093013593505050565b60006020828403121561116357600080fd5b6111048261110b565b60006020828403121561117e57600080fd5b5035919050565b6000815180845260005b818110156111ab5760208185018101518683018201520161118f565b506000602082860101526020601f19601f83011685010191505092915050565b87815260e0602082015260006111e460e0830189611185565b82810360408401526111f68189611185565b606084019790975250506001600160a01b0393909316608084015290151560a083015260c0909101529392505050565b6020808252825182820181905260009190848201906040850190845b8181101561125e57835183529284019291840191600101611242565b50909695505050505050565b634e487b7160e01b600052601160045260246000fd5b6000600182016112925761129261126a565b5060010190565b600181811c908216806112ad57607f821691505b6020821081036112cd57634e487b7160e01b600052602260045260246000fd5b50919050565b601f82111561131d57600081815260208120601f850160051c810160208610156112fa5750805b601f850160051c820191505b8181101561131957828155600101611306565b5050505b505050565b815167ffffffffffffffff81111561133c5761133c610fd2565b6113508161134a8454611299565b846112d3565b602080601f831160018114611385576000841561136d5750858301515b600019600386901b1c1916600185901b178555611319565b600085815260208120601f198616915b828110156113b457888601518255948401946001909101908401611395565b50858210156113d25787850151600019600388901b60f8161c191681555b5050505050600190811b01905550565b6040815260006113f56040830185611185565b90508260208301529392505050565b60208082526021908201527f4f6e6c79206f776e65722063616e2063616c6c20746869732066756e6374696f6040820152603760f91b606082015260800190565b818103818111156114585761145861126a565b92915050565b80820281158282048414176114585761145861126a565b60008261149257634e487b7160e01b600052601260045260246000fd5b500490565b808201808211156114585761145861126a565b6040815260008084546114bc81611299565b80604086015260606001808416600081146114de57600181146114f857611529565b60ff1985168884015283151560051b880183019550611529565b8960005260208060002060005b868110156115205781548b8201870152908401908201611505565b8a018501975050505b5050505050602092909201929092529291505056fea2646970667358221220f7fd8d5db797303d4e85cde065920126d8ed0ad60bc9eb52eda9f19e9d8372a264736f6c63430008140033",
  "linkReferences": {},
  "deployedLinkReferences": {}
}