{
  "_format": "hh-sol-artifact-1",
  "contractName": "DiamondInit",
  "sourceName": "contracts/upgradeInitializers/DynamicDiamondInit.sol",
  "abi": [
    {
      "inputs": [
        {
          "internalType": "bytes",
          "name": "initParams",
          "type": "bytes"
        }
      ],
      "name": "init",
      "outputs": [],
      "stateMutability": "nonpayable",
      "type": "function"
    }
  ],
  "bytecode": "0x608060405234801561001057600080fd5b50610130806100206000396000f3fe6080604052348015600f57600080fd5b506004361060285760003560e01c80634ddf47d414602d575b600080fd5b603b60383660046053565b50565b005b634e487b7160e01b600052604160045260246000fd5b600060208284031215606457600080fd5b813567ffffffffffffffff80821115607b57600080fd5b818401915084601f830112608e57600080fd5b813581811115609d57609d603d565b604051601f8201601f19908116603f0116810190838211818310171560c25760c2603d565b8160405282815287602084870101111560da57600080fd5b82602086016020830137600092810160200192909252509594505050505056fea2646970667358221220959b10802d31e7ee83496253838ab5653770359cb8527ab667fc025b5b269ef664736f6c63430008140033",
  "linkReferences": {},
  "deployedLinkReferences": {}
}