{
  "_format": "hh-sol-artifact-1",
  "contractName": "SimpleToken",
  "sourceName": "contracts/SimpleToken.sol",
  "abi": [
    {
      "inputs": [
        {
          "internalType": "string",
          "name": "_name",
          "type": "string"
        },
        {
          "internalType": "string",
          "name": "_symbol",
          "type": "string"
        },
        {
          "internalType": "uint8",
          "name": "_decimals",
          "type": "uint8"
        },
        {
          "internalType": "uint256",
          "name": "_initialSupply",
          "type": "uint256"
        }
      ],
      "stateMutability": "nonpayable",
      "type": "constructor"
    },
    {
      "anonymous": false,
      "inputs": [
        {
          "indexed": true,
          "internalType": "address",
          "name": "owner",
          "type": "address"
        },
        {
          "indexed": true,
          "internalType": "address",
          "name": "spender",
          "type": "address"
        },
        {
          "indexed": false,
          "internalType": "uint256",
          "name": "value",
          "type": "uint256"
        }
      ],
      "name": "Approval",
      "type": "event"
    },
    {
      "anonymous": false,
      "inputs": [
        {
          "indexed": true,
          "internalType": "address",
          "name": "from",
          "type": "address"
        },
        {
          "indexed": false,
          "internalType": "uint256",
          "name": "value",
          "type": "uint256"
        }
      ],
      "name": "Burn",
      "type": "event"
    },
    {
      "anonymous": false,
      "inputs": [
        {
          "indexed": true,
          "internalType": "address",
          "name": "to",
          "type": "address"
        },
        {
          "indexed": false,
          "internalType": "uint256",
          "name": "value",
          "type": "uint256"
        }
      ],
      "name": "Mint",
      "type": "event"
    },
    {
      "anonymous": false,
      "inputs": [
        {
          "indexed": true,
          "internalType": "address",
          "name": "from",
          "type": "address"
        },
        {
          "indexed": true,
          "internalType": "address",
          "name": "to",
          "type": "address"
        },
        {
          "indexed": false,
          "internalType": "uint256",
          "name": "value",
          "type": "uint256"
        }
      ],
      "name": "Transfer",
      "type": "event"
    },
    {
      "inputs": [
        {
          "internalType": "address",
          "name": "",
          "type": "address"
        },
        {
          "internalType": "address",
          "name": "",
          "type": "address"
        }
      ],
      "name": "allowance",
      "outputs": [
        {
          "internalType": "uint256",
          "name": "",
          "type": "uint256"
        }
      ],
      "stateMutability": "view",
      "type": "function"
    },
    {
      "inputs": [
        {
          "internalType": "address",
          "name": "_spender",
          "type": "address"
        },
        {
          "internalType": "uint256",
          "name": "_value",
          "type": "uint256"
        }
      ],
      "name": "approve",
      "outputs": [
        {
          "internalType": "bool",
          "name": "",
          "type": "bool"
        }
      ],
      "stateMutability": "nonpayable",
      "type": "function"
    },
    {
      "inputs": [
        {
          "internalType": "address",
          "name": "",
          "type": "address"
        }
      ],
      "name": "balanceOf",
      "outputs": [
        {
          "internalType": "uint256",
          "name": "",
          "type": "uint256"
        }
      ],
      "stateMutability": "view",
      "type": "function"
    },
    {
      "inputs": [
        {
          "internalType": "uint256",
          "name": "_value",
          "type": "uint256"
        }
      ],
      "name": "burn",
      "outputs": [],
      "stateMutability": "nonpayable",
      "type": "function"
    },
    {
      "inputs": [],
      "name": "decimals",
      "outputs": [
        {
          "internalType": "uint8",
          "name": "",
          "type": "uint8"
        }
      ],
      "stateMutability": "view",
      "type": "function"
    },
    {
      "inputs": [
        {
          "internalType": "address",
          "name": "_to",
          "type": "address"
        },
        {
          "internalType": "uint256",
          "name": "_value",
          "type": "uint256"
        }
      ],
      "name": "mint",
      "outputs": [],
      "stateMutability": "nonpayable",
      "type": "function"
    },
    {
      "inputs": [],
      "name": "name",
      "outputs": [
        {
          "internalType": "string",
          "name": "",
          "type": "string"
        }
      ],
      "stateMutability": "view",
      "type": "function"
    },
    {
      "inputs": [],
      "name": "owner",
      "outputs": [
        {
          "internalType": "address",
          "name": "",
          "type": "address"
        }
      ],
      "stateMutability": "view",
      "type": "function"
    },
    {
      "inputs": [],
      "name": "symbol",
      "outputs": [
        {
          "internalType": "string",
          "name": "",
          "type": "string"
        }
      ],
      "stateMutability": "view",
      "type": "function"
    },
    {
      "inputs": [],
      "name": "totalSupply",
      "outputs": [
        {
          "internalType": "uint256",
          "name": "",
          "type": "uint256"
        }
      ],
      "stateMutability": "view",
      "type": "function"
    },
    {
      "inputs": [
        {
          "internalType": "address",
          "name": "_to",
          "type": "address"
        },
        {
          "internalType": "uint256",
          "name": "_value",
          "type": "uint256"
        }
      ],
      "name": "transfer",
      "outputs": [
        {
          "internalType": "bool",
          "name": "",
          "type": "bool"
        }
      ],
      "stateMutability": "nonpayable",
      "type": "function"
    },
    {
      "inputs": [
        {
          "internalType": "address",
          "name": "_from",
          "type": "address"
        },
        {
          "internalType": "address",
          "name": "_to",
          "type": "address"
        },
        {
          "internalType": "uint256",
          "name": "_value",
          "type": "uint256"
        }
      ],
      "name": "transferFrom",
      "outputs": [
        {
          "internalType": "bool",
          "name": "",
          "type": "bool"
        }
      ],
      "stateMutability": "nonpayable",
      "type": "function"
    }
  ],
  "bytecode": "0x60806040523480156200001157600080fd5b5060405162000f7d38038062000f7d8339810160408190526200003491620001b2565b6000620000428582620002cc565b506001620000518482620002cc565b506002805460ff191660ff84161790556200006e82600a620004ad565b6200007a9082620004c5565b6003819055600480546001600160a01b0319163390811790915560008181526005602052604080822084905551919290917fddf252ad1be2c89b69c2b068fc378daa952ba7f163c4a11628f55a4df523b3ef91620000db9190815260200190565b60405180910390a350505050620004df565b634e487b7160e01b600052604160045260246000fd5b600082601f8301126200011557600080fd5b81516001600160401b0380821115620001325762000132620000ed565b604051601f8301601f19908116603f011681019082821181831017156200015d576200015d620000ed565b816040528381526020925086838588010111156200017a57600080fd5b600091505b838210156200019e57858201830151818301840152908201906200017f565b600093810190920192909252949350505050565b60008060008060808587031215620001c957600080fd5b84516001600160401b0380821115620001e157600080fd5b620001ef8883890162000103565b955060208701519150808211156200020657600080fd5b50620002158782880162000103565b935050604085015160ff811681146200022d57600080fd5b6060959095015193969295505050565b600181811c908216806200025257607f821691505b6020821081036200027357634e487b7160e01b600052602260045260246000fd5b50919050565b601f821115620002c757600081815260208120601f850160051c81016020861015620002a25750805b601f850160051c820191505b81811015620002c357828155600101620002ae565b5050505b505050565b81516001600160401b03811115620002e857620002e8620000ed565b6200030081620002f984546200023d565b8462000279565b602080601f8311600181146200033857600084156200031f5750858301515b600019600386901b1c1916600185901b178555620002c3565b600085815260208120601f198616915b82811015620003695788860151825594840194600190910190840162000348565b5085821015620003885787850151600019600388901b60f8161c191681555b5050505050600190811b01905550565b634e487b7160e01b600052601160045260246000fd5b600181815b80851115620003ef578160001904821115620003d357620003d362000398565b80851615620003e157918102915b93841c9390800290620003b3565b509250929050565b6000826200040857506001620004a7565b816200041757506000620004a7565b81600181146200043057600281146200043b576200045b565b6001915050620004a7565b60ff8411156200044f576200044f62000398565b50506001821b620004a7565b5060208310610133831016604e8410600b841016171562000480575081810a620004a7565b6200048c8383620003ae565b8060001904821115620004a357620004a362000398565b0290505b92915050565b6000620004be60ff841683620003f7565b9392505050565b8082028115828204841417620004a757620004a762000398565b610a8e80620004ef6000396000f3fe608060405234801561001057600080fd5b50600436106100b45760003560e01c806342966c681161007157806342966c681461015857806370a082311461016b5780638da5cb5b1461018b57806395d89b41146101b6578063a9059cbb146101be578063dd62ed3e146101d157600080fd5b806306fdde03146100b9578063095ea7b3146100d757806318160ddd146100fa57806323b872dd14610111578063313ce5671461012457806340c10f1914610143575b600080fd5b6100c16101fc565b6040516100ce9190610884565b60405180910390f35b6100ea6100e53660046108ee565b61028a565b60405190151581526020016100ce565b61010360035481565b6040519081526020016100ce565b6100ea61011f366004610918565b6102f7565b6002546101319060ff1681565b60405160ff90911681526020016100ce565b6101566101513660046108ee565b6104f8565b005b610156610166366004610954565b610653565b61010361017936600461096d565b60056020526000908152604090205481565b60045461019e906001600160a01b031681565b6040516001600160a01b0390911681526020016100ce565b6100c161074d565b6100ea6101cc3660046108ee565b61075a565b6101036101df36600461098f565b600660209081526000928352604080842090915290825290205481565b60008054610209906109c2565b80601f0160208091040260200160405190810160405280929190818152602001828054610235906109c2565b80156102825780601f1061025757610100808354040283529160200191610282565b820191906000526020600020905b81548152906001019060200180831161026557829003601f168201915b505050505081565b3360008181526006602090815260408083206001600160a01b038716808552925280832085905551919290917f8c5be1e5ebec7d5bd14f71427d1e84f3dd0314c0f7b2291e5b200ac8c7c3b925906102e59086815260200190565b60405180910390a35060015b92915050565b60006001600160a01b0383166103545760405162461bcd60e51b815260206004820152601f60248201527f43616e6e6f74207472616e7366657220746f207a65726f20616464726573730060448201526064015b60405180910390fd5b6001600160a01b0384166000908152600560205260409020548211156103b35760405162461bcd60e51b8152602060048201526014602482015273496e73756666696369656e742062616c616e636560601b604482015260640161034b565b6001600160a01b038416600090815260066020908152604080832033845290915290205482111561041f5760405162461bcd60e51b8152602060048201526016602482015275496e73756666696369656e7420616c6c6f77616e636560501b604482015260640161034b565b6001600160a01b03841660009081526005602052604081208054849290610447908490610a12565b90915550506001600160a01b03831660009081526005602052604081208054849290610474908490610a25565b90915550506001600160a01b0384166000908152600660209081526040808320338452909152812080548492906104ac908490610a12565b92505081905550826001600160a01b0316846001600160a01b0316600080516020610a39833981519152846040516104e691815260200190565b60405180910390a35060019392505050565b6004546001600160a01b031633146105485760405162461bcd60e51b815260206004820152601360248201527213db9b1e481bdddb995c8818d85b881b5a5b9d606a1b604482015260640161034b565b6001600160a01b03821661059e5760405162461bcd60e51b815260206004820152601b60248201527f43616e6e6f74206d696e7420746f207a65726f20616464726573730000000000604482015260640161034b565b80600360008282546105b09190610a25565b90915550506001600160a01b038216600090815260056020526040812080548392906105dd908490610a25565b90915550506040518181526001600160a01b038316907f0f6798a560793a54c3bcfe86a93cde1e73087d944c0ea20544137d41213968859060200160405180910390a26040518181526001600160a01b03831690600090600080516020610a398339815191529060200160405180910390a35050565b336000908152600560205260409020548111156106b25760405162461bcd60e51b815260206004820152601c60248201527f496e73756666696369656e742062616c616e636520746f206275726e00000000604482015260640161034b565b33600090815260056020526040812080548392906106d1908490610a12565b9250508190555080600360008282546106ea9190610a12565b909155505060405181815233907fcc16f5dbb4873280815c1ee09dbd06736cffcc184412cf7a71a0fdb75d397ca59060200160405180910390a26040518181526000903390600080516020610a398339815191529060200160405180910390a350565b60018054610209906109c2565b60006001600160a01b0383166107b25760405162461bcd60e51b815260206004820152601f60248201527f43616e6e6f74207472616e7366657220746f207a65726f206164647265737300604482015260640161034b565b336000908152600560205260409020548211156108085760405162461bcd60e51b8152602060048201526014602482015273496e73756666696369656e742062616c616e636560601b604482015260640161034b565b3360009081526005602052604081208054849290610827908490610a12565b90915550506001600160a01b03831660009081526005602052604081208054849290610854908490610a25565b90915550506040518281526001600160a01b038416903390600080516020610a39833981519152906020016102e5565b600060208083528351808285015260005b818110156108b157858101830151858201604001528201610895565b506000604082860101526040601f19601f8301168501019250505092915050565b80356001600160a01b03811681146108e957600080fd5b919050565b6000806040838503121561090157600080fd5b61090a836108d2565b946020939093013593505050565b60008060006060848603121561092d57600080fd5b610936846108d2565b9250610944602085016108d2565b9150604084013590509250925092565b60006020828403121561096657600080fd5b5035919050565b60006020828403121561097f57600080fd5b610988826108d2565b9392505050565b600080604083850312156109a257600080fd5b6109ab836108d2565b91506109b9602084016108d2565b90509250929050565b600181811c908216806109d657607f821691505b6020821081036109f657634e487b7160e01b600052602260045260246000fd5b50919050565b634e487b7160e01b600052601160045260246000fd5b818103818111156102f1576102f16109fc565b808201808211156102f1576102f16109fc56feddf252ad1be2c89b69c2b068fc378daa952ba7f163c4a11628f55a4df523b3efa264697066735822122023e164a2adb537e9bf59fd89882f73f707fdc13e56c56ddba06ae6c46137f91064736f6c63430008140033",
  "linkReferences": {},
  "deployedLinkReferences": {}
}